:020000040020DA
:10200000501900208D222000EF6A2000ED6A200088
:10201000ED6A2000ED6A2000ED6A2000000000005B
:10202000000000000000000000000000A771200078
:10203000ED6A200000000000C5712000516B2000F7
:10204000636B2000696B20006F6B2000756B2000B4
:1020500000000000576B20005D6B2000ED6A20003F
:10206000ED6A2000000000000000000000000000F9
:102070000000000000000000ED6A200000000000E9
:102080000000000000000000ED6A2000ED6A200062
:10209000ED6A2000ED6A2000ED6A2000ED6A200064
:1020A000ED6A2000ED6A2000ED6A2000ED6A200054
:1020B000ED6A2000ED6A2000ED6A2000ED6A200044
:1020C000ED6A2000ED6A2000ED6A2000ED6A200034
:1020D000ED6A200000000000000000000000000089
:1020E00000000000000000000000000000000000F0
:1020F0000000000000000000ED372000FD37200048
:1021000000000000000000000000000000000000CF
:1021100000000000000000000000000000000000BF
:1021200000000000000000000000000000000000AF
:10213000000000000000000000000000000000009F
:10214000000000000000000000000000000000008F
:10215000000000000000000000000000000000007F
:10216000000000000000000000000000000000006F
:10217000000000000000000000000000000000005F
:10218000000000000000000000000000000000004F
:10219000000000000000000000000000000000003F
:1021A000000000000000000000000000000000002F
:1021B000000000000000000000000000000000001F
:1021C000000000000000000000000000000000000F
:1021D00000000000000000000000000000000000FF
:1021E00000000000000000000000000000000000EF
:1021F00000000000000000000000000000000000DF
:1022000000000000000000000000000000000000CE
:1022100000000000000000000000000000000000BE
:1022200000000000000000000000000000000000AE
:10223000000000000000000000000000000000009E
:10224000000000000000000000000000000000008E
:10225000000000000000000000000000000000007E
:10226000000000000000000000000000000000006E
:10227000ED6A2000D1362000F5362000852D2000A3
:102280005D392000A9282000ED6A2000FF224824A3
:1022900008B5084B08481A60084AE369121A084949
:1022A00098470848084AA369121A0021984700F085
:1022B0000DF8FEE7B4200D40400000202D01002065
:1022C000F87D2000300100204D11002073B500F092
:1022D00039FC00F0F3FC00F04FFC00F053FA01F081
:1022E0002BFB04F0E2FC00F0E1FC00F0B3F801206D
:1022F00004F000FC02F0FAF800F010FC002000F0FE
:102300002BFB012000F028FB4049002000F0F0FBEF
:1023100002F032FA62B6042004F0ECFB3C4804F010
:102320004DFC3C4804F04AFC00F0CEF9002002F0DD
:10233000D1FA01F0F3F90021374802F065F901F014
:1023400045FF04F003FC00F041FD00F05DFD02F0EC
:1023500037FE0821684601F015FB9DF806309DF810
:1023600007502E4C45EA0325BDF806302C48238043
:1023700001F042FB2B4E21782B4801F03DFB6178A8
:102380002A4801F039FBF46A4AF6CD310220A04711
:1023900029460320A0471A210120A04708226946A8
:1023A000736B0B209847224801F026FB214B1868DD
:1023B00004F004FC204801F01FFB204B186804F0D7
:1023C000FDFB1F4801F018FB1E4B186804F0F6FBDC
:1023D00000211D4802F018F91C4B01219B68812047
:1023E000984704F044FC1A4804F037FC00F09CFBCA
:1023F000022004F07FFB00F09DFB02F08FF810F04C
:10240000FF0FF8D101F02EFAF5E700BF31472000A9
:102410007C7820008C78200078000020401100207B
:10242000B1782000FC762000CF782000D5782000FD
:10243000DB782000D0772000E278200000782000B0
:10244000E97820001C782000980000208476200085
:102450005878200008B500F0DDF80022014B1A7012
:1024600008BD00BF1A0F0020024A137818431070ED
:1024700000F0F4B81A0F0020034A137823EA000092
:10248000107000F0EBB800BF1A0F002018B101283F
:1024900004D000207047034B18687047024B18782F
:1024A000704700BF20900D401B0F002010B5094A57
:1024B0000020137801331370074B197802F07CF871
:1024C000BDE8104005490023054A0968054801F0A8
:1024D000B3BE00BF1B0F0020461100206801002082
:1024E000AD24200048010020812808B52BD0B0F58C
:1024F000807F3AD0802824D101F0F0FF1C4B1D4A88
:1025000018701368032123F00803136052F8203C6D
:10251000002023F0080342F8203C52F81C3C23F032
:10252000080342F81C3C52F8183C43F0080342F8F8
:10253000183C042200F0D0FB032200210E4800F0DA
:102540006DFB012108E00D4B0D481A6831B142F0D6
:1025500008021A6001230360084608BD22F0080241
:102560001A600123C0F88030F6E7064B1960E8E7EF
:102570004611002020940D408925200010940D4024
:1025800000E100E06801002008B50F4804F09BFB63
:10259000C8B108210C4804F08AFB0C4B196849B1FA
:1025A00000220B4B1A700B4B1B6843B90A4A0B48AD
:1025B00001F042FEBDE80840094802F05BB9074857
:1025C00001F044FEF6E708BD40010020680100204C
:1025D0001B0F002020900D40AD242000480100205A
:1025E00084762000084A136823F00403136052F82D
:1025F000203C43F0040342F8203C0022034B1A60C5
:102600000122034B1A70704720C40D4010C00D40CA
:102610001C0F00200D4A0E49136823F0C0031360FD
:1026200052F8203C43F0C00342F8203C0022094B02
:102630001A600B6823F010030B6051F8203C43F044
:10264000100341F8203C044B1A60704720A40D4051
:1026500020C40D4000A30D4040C00D4010F0020208
:1026600018BFFF22084B1A6010F0040218BFFF22A7
:10267000064B10F001001A6018BFFF22044B14BF74
:102680001A601860704700BF00A20D4000A10D4005
:1026900040C00D40044B1868C0F30720030904BF75
:1026A0001030C0B2704700BF1C300D40054B186899
:1026B000C0F3C21001289ABFC0F1020040034FF4DA
:1026C0000040704714300D402DE9F047482588B090
:1026D000FFF7E0FF164B07461C68AB6898476B682E
:1026E000804698470546FFF7E1FF064600F07EFA70
:1026F000814600F087FA824600F034FAB60A04F008
:102700000103AD0AC4F3400406900393CDF814A06E
:10271000CDF8109002940196009507F00F03C7F3CF
:1027200007124146034801F067F908B0BDE8F08799
:102730001C300D40F7782000F8B500F077F80F4B0B
:102740000024D3E900673A46B04238BF7A1C1546E8
:102750000443C3E900450A49D1E90023921B63EB16
:10276000070312196B41C1E9002301F01FFE18B1E4
:10277000BDE8F84001F09EBDF8BD00BF3801002063
:1027800030010020E0210D4B0D4A5A600D4A82F8BD
:102790002310002207219A6019600B490B6843F04F
:1027A00001030B60094B1A60042243F80C2C012230
:1027B00043F8082C0F22DA62704700BF10E000E0F7
:1027C00047E8010000ED00E008200D400C00034048
:1027D000034BD3E90023100A40EA0360704700BFAF
:1027E00038010020054B18601C3B1A6842F00102BA
:1027F0001A601A68D207FCD4704700BF2800034053
:1028000010B5064C236823F001032360FFF794FF03
:10281000236843F00103236010BD00BF10E000E017
:10282000014B1868704700BF6C010020064B186808
:102830005A6808331B681B0443EA0223034A034314
:10284000106843EA0060704740500D404C500D4006
:10285000014608B5104A1368DB07FCD572B6FFF7CE
:10286000E5FF0B1A062BD8BFC11D0C4B0A0E1A60D0
:10287000C1F3074243F8042CC1F3072243F8082CA4
:10288000CAB243F80C2C62B64FF40032044B196004
:10289000044B1A6108BD00BF50500D404C500D4014
:1028A0006C01002000E100E008B500F0C3FF002249
:1028B000064B1A604FF40032054BC3F89021C3F861
:1028C0009020BDE8084001F0D5BE00BF6C0100209B
:1028D00000E100E0064B1B681B075FBF054B186853
:1028E00080F00800C0F3C00048BF0020704700BF60
:1028F00018C0004018D000402C23154A70B503FBC7
:1029000000234FF6BF72DC680546236C626413F047
:1029100050021BD113F4D06F0BD04FF440732363DC
:10292000FF236360E36AE262E362236B43F0010327
:10293000236370BD56F8253033B12068C0B2984784
:10294000A369DB06F6D570BD2368F9E7014EF7E70A
:10295000947620007001002001282DE9F74F0646EB
:1029600000F2B4802C2545435A4F7C1994F92080FD
:10297000B8F1000FC0F2AA8094F92290B9F1000FCB
:10298000C0F2A480544800F0C7FF544A7959136834
:10299000E5680B4313605368616894F921A00B4309
:1029A00053609368A1685FFA89FB0B43936000232F
:1029B000C5F8C83F23690AEBC8021A6094F92330AE
:1029C000227D00939DF8003058461946019300F08F
:1029D0008DF9019B08221946584600F07DF9012324
:1029E0003F494FEA0939009A59F8010003FA02F207
:1029F000024349F801204FEA083858F8010003FA69
:102A00000AF2024348F801205022AA63AA6B94F903
:102A1000240042F4D062AA6302226A634FF4407237
:102A20002A63A26900286A62E269AA624FF0700212
:102A3000EA620D4614DB94F925102A4A41EAC004E3
:102A40001460020354598B4023435351C9B20022EE
:102A5000C0B200F041F9244A136843F40043136004
:102A60002C2303FB067393F92640002C1BDB93F900
:102A700027A05FFA84F85FFA8AF9012249464046A6
:102A800000F034F901232403625903FA0AF31343D3
:102A9000635108224946404600F01EF9124A136865
:102AA00043F4804313602C2303FB0676F268136B18
:102AB00043F001031363012296F82830590903F00B
:102AC0001F0302FA03F3094A42F8213003B0BDE8BC
:102AD000F08F00BF94762000D528200028200D40DC
:102AE00020940D4004410D4030D0004000E100E052
:102AF00001289CBF014B43F8201070477001002053
:102B0000012808D82C22044B02FB0030C3689A69C4
:102B10009206FCD419607047947620000022014B85
:102B20001A60704700500D400822014B1A60704730
:102B300000500D40A022024B1A6050221A607047CC
:102B400000500D40014B024A9A60704700ED00E0D2
:102B500000202000024B1868C0F38150704700BF6E
:102B600004200D4008B5FFF7F5FF024B53F8200095
:102B700008BD00BFEC76200038B5164D164C2B680A
:102B8000012223F040032B602368062123F0400339
:102B90002360032000F0A0F82B68012223F08003BB
:102BA0002B602368072123F080032360032000F0BB
:102BB00093F80A4A0A4B0B491A600B4A13461068ED
:102BC0000842FCD11A685101FCD41A685201FCD5A4
:102BD00038BD00BF20C40D4000C40D4001010200FB
:102BE00000200D400000010104200D40034B04486B
:102BF0001B6803F007031841704700BF04200D4015
:102C00000048E801034B04481B68C3F30223184142
:102C1000704700BF04200D400048E801024B02EB62
:102C2000C10243F82200704778010020F8B507463A
:102C30000E460024084D05EB411547FA04F3DB0767
:102C4000E1B204D555F824300BB130469847013431
:102C5000082CF2D1F8BD00BF780100202DE9F04723
:102C600080464FEA0837DFF8409007F1804505F5C8
:102C7000592500F0DFFDD5F8186457F809404FEAF0
:102C8000C80A24FA0AF446EA0400E4B24146C0B293
:102C9000F6B204FA0AF4FFF7C9FFC5F81C6447F856
:102CA0000940BDE8F08700BF18970D408022002141
:102CB000014803F0CDBE00BF78010020034A044B59
:102CC0001A60044B803A1A60704700BF80400D4084
:102CD000F8010020FC010020034B01EBC0011B6840
:102CE00043F82120704700BFF8010020034B01EB9F
:102CF000C0011B6843F82120704700BFFC01002081
:102D00000E2870B50BD1154B154E1C6844F002050A
:102D10001D60356825F03F0343F001033360114E19
:102D2000336823F0FF031A43114301430E4A316015
:102D300013681B06FCD50D4B0D4A1B6812680E2844
:102D400003F0FC0343EA022308BF054A1BB204BF99
:102D50001560024A184608BF146070BD3400014473
:102D6000F486084008700D4000700D400C700D4056
:102D700010700D40024B1868B0FA80F0400970479F
:102D800000B708404FF4004210B5064B064CC3F89C
:102D90009021C3F89020206818B101F04DFC002369
:102DA000236010BD00E100E000020020064A136825
:102DB00043F002031360536843F0020353609368C7
:102DC00043F002039360704748200D4007B50C485C
:102DD00000F0A2FDFFF7EAFF0A4B1A6842F0020278
:102DE0001A6000220192019A0F2A06DD1A6822F069
:102DF00002021A6003B05DF804FB019A0132F1E7A8
:102E0000752D200054200D40064A136823F002035C
:102E10001360536823F002035360936823F00203A6
:102E20009360704748200D40084B93F90020002A1A
:102E300009DBED21064A11601160E32111601A7867
:102E400062F07F021A700120704700BF1F0F002040
:102E5000388808400B4B1A689207FCD41B685B0645
:102E60005FBFED22084B1A601A60084B1B6813B154
:102E7000EF22054B1A60064A0120137803F07F0306
:102E8000137070474C860840388808402C860840EC
:102E90001F0F0020A0F10B01CBB20F2B10B5044681
:102EA00013D80B4B1B6813F03F0302D0FFF7D2FF80
:102EB000012301EB8101074A0B3111600BB1FFF7D0
:102EC000B3FF054B60B21C7010BD4FF0FF3010BD5A
:102ED000488608403C8608402A01002008B50B4B74
:102EE0001B6899060FD1FFF79FFF012308490A6865
:102EF000D207FCD5074A1168C1F300110BB1FFF7E7
:102F0000A9FF084608BD0023F0E700BF4886084037
:102F1000648608404C860840044B186800F0220084
:102F2000A0F1200358425841704700BF4C8608402A
:102F3000024B186800F04000704700BF4C86084004
:102F400010B50C46002900F08680102800F285801C
:102F5000DFE800F009101B22243B44575C727683A3
:102F6000837B7D547F003E4B1B68003318BF0123D9
:102F7000236024E005223B4B1B6803F07F030B3BDF
:102F800093FBF2F30B33DBB2F2E7374B1A68043BE7
:102F90001B6843EA0223EBE7344BF7E700230B609F
:102FA000334B344A1B6803F001030B601268900630
:102FB00044BF43F002030B602F4B1B780BB900207A
:102FC00010BD0B6843F00403D2E700202B4B0860D0
:102FD0001B78002BF3D001230B6010BD284B29492F
:102FE0001A680023D2B201EBC3000079904202D8E4
:102FF00051F83330BCE701330E2BF4D16FF01703D7
:10300000B6E7214B1B685BB2493BB1E71F4B1B681E
:1030100099060FD1FFF708FF01231D490A68D2075F
:10302000FCD51C4A1168493949B20BB1FFF712FFB0
:103030002160C4E70023F0E7174B93F9003097E7CE
:10304000164B1B7803F07F0392E70B2390E71A23BC
:103050008EE707238CE7022010BD012010BD00BFC2
:103060002C8608403C860840CC850840D485084022
:1030700000860840248608401E0F00202B010020F7
:10308000408608403477200058860840488608402B
:103090006486084060860840200F00201D0F002035
:1030A00038B505460C46134A13689B07FCD4124BEF
:1030B00093F90030002B01DBFFF7B6FEEE220F4B39
:1030C000691E1A601A60A21C43F8102C21440220C9
:1030D00000F03EFB0A49013C41EA0411022000F0E5
:1030E00049FB022000F050FB022000F065FB0020AD
:1030F00038BD00BF4C8608401F0F002038880840AC
:1031000002C001C0F8B5214B93F90030002B2BDB36
:10311000FFF78CFB0446FFF787FEC4F1FF2404F59C
:103120007F04F634FFF782FBC442FBD40126184B20
:103130001B78DBB9174C236899061BD4E9230427B5
:10314000154D2B6023689A0703D4013F17F0FF0742
:1031500013D123689B0714D4EE2301212B602B602D
:103160004EB1FFF777FE06E00026E0E7FFF7B6FE78
:103170000028DFD102210846F8BD0620FFF732FB08
:10318000E0E7216811F00201FBD1E9E71F0F002001
:103190002B0100204C86084038880840204B1870CE
:1031A000002832D01F4A13681B03FCD51E4B1A6837
:1031B00042F002021A601A6842F001021A601A68AC
:1031C0005007FCD51A6822F001021A601A685107EC
:1031D000FCD41A6842F002021A601A6842F0010236
:1031E0001A601A685207FCD5104A136823F00403CA
:1031F0001360D2F8A83123F00403C2F8A8314FF4C9
:1032000000520B4BC3F890207047084A136843F0F4
:10321000040313604FF40052054B1A61704700BF5E
:103220001E0F002004200D40048808408C860840B2
:1032300000E100E010B5072861D8DFE800F0040FD6
:103240001A212541475B012903D1FFF7EDFD00203D
:1032500010BD002955D1FFF7FDFDF8E7A1F10B03E3
:103260000F2B4ED8C8B2FFF715FE0130EFD1032067
:1032700010BD89B2244BCAB2090A1A605960E6E748
:1032800089B2CAB2214BF7E731F0070339D1204B9D
:1032900011F0010F1A68C1F3800014BF42F001025F
:1032A00022F001021A601B4B11F0020F1A6814BFC2
:1032B00042F0200222F020021A60FFF76FFFC6E7FB
:1032C00031F001001DD1144B197010BD01F118032C
:1032D0001F2B16D80D23114A52F83340D800A142B3
:1032E00004DC024412790E4B1A60B0E713F1FF338D
:1032F000F2D2ACE7C9B20B4B49311960A7E7012004
:1033000010BD022010BD00BFC8850840D085084010
:1033100000860840248608402B01002034772000D6
:1033200040860840588608400B280DD1082A0DD148
:1033300061B1074B074A083111F8010D43F8040F3A
:103340009342F9D100207047012070470220704756
:10335000A4850840C485084070B52F4D2B6813F034
:10336000400308D02D4E3368DCB21B0605D5ED2294
:103370002B4B1A601A60002070BD042CF7D9023C58
:103380008C42F4DCE4B2032C2FD001190139032064
:1033900000F0E6F9234B611E43EA0111032000F01F
:1033A000E9F9032000F0F0F9032000F005FA03200A
:1033B00000F00EFA0028FAD131681B4B493949B2A6
:1033C00019703368194E18063370D0D589B20420AD
:1033D00001F0CCFD3178032001F07F0101F0C6FD42
:1033E000134B1B7843B1204670BD336803703368BC
:1033F000437033688370DFE72B685A06F3D52B6878
:103400001B0603D50B4801F017F9ECE7ED22044B3E
:103410001A601A60E7E700BF4C8608402888084019
:103420003888084002C0010C200F00201D0F00202A
:103430001E0F002050000020F8B5294F3D7815F0F0
:1034400001054BD10124F822264B7F261C605C60CD
:103450009C60A3F59323A3F514731A600922C3F8A3
:103460009021152270331A600B2203F59B2303F57C
:103470009E731A604022A3F59B23A3F5F0731A6094
:103480001A6842F020021A60D52243F81C5CDE6202
:10349000DA61154B1878FFF7FDFC4FF48042134BAF
:1034A00002201E60124B1A6100F07AF911490220C5
:1034B00000F056F9032000F073F90E49032000F0E4
:1034C00047F90D4B1878FFF769FE29460B4801F0C4
:1034D0009BF83B78204623433B70F8BD0020F8BDA5
:1034E0001F0F0020A8200D402A01002094860840CC
:1034F00000E100E0288808401E0F00205000002056
:1035000038B503880446002B34D040F2034293427E
:1035100003D000230380032038BD194B18781A46C6
:1035200028B11B784BB3174B1B78580625D5822939
:1035300023D1137873B901F0CBFC01F059FC802141
:10354000FFF70AFF002805DD80B201F011FC0E4BE9
:103550001B6998470B4B1A7852060BD500221A703C
:103560000A4B1D68FFF776FCFFF766FFAB0601D03C
:10357000FFF75AFC40F203432380012038BD00BF0F
:103580001E0F00201F0F00201C78200048860840D6
:103590000B282DE9F0478A4611D1082A40F0818096
:1035A00000297ED0404B414A01F1FF3A53F8041DF7
:1035B00093420AF8011FF9D10020BDE8F0870C28DA
:1035C0006CD1042A6DD100296BD0394A394913686E
:1035D000DFF8EC9023F0070313600B68DFF8E4805A
:1035E00043F008030B60D9F80030D8F800401068A9
:1035F000DFF8D4C0DFF8D4E020F070001060DCF811
:103600000000DEF80050DBB2240243EA0563A4B2F6
:1036100023430024000400F47F0003432648066887
:10362000F5B244EA030613682F4623F0070343F07C
:10363000010313600B6843F008030B60D9F80030F6
:10364000D8F800101568DBB225F0700545F01005BC
:103650001560DCF80020DEF80050090289B243EA68
:10366000056312040B4302F47F021343026844EA29
:1036700003085FFA82F9FFF7D9F8B6EB080667EBA3
:103680000907F90305460D4A0023F00341EA5641B4
:1036900002F0B0FF281ACAF800008DE70120BDE84B
:1036A000F0870220BDE8F087C8850840A88508405B
:1036B00010880840048808401C8808400048E80139
:1036C000148808401888084024880840208808404A
:1036D00008B5054B1B7813B9044800F0ADFF002274
:1036E000034B1A6008BD00BF1E0F002050000020D1
:1036F00034880840064B07481A68042A1FBF064949
:103700000A7842F040020A7000221A6000F094BF6A
:103710002C880840500000201F0F002010B5094CD5
:1037200040220021204603F093F90122064B1A6043
:103730004FF480425C60054B5A604FF400425A607F
:1037400010BD00BF0000002004F00F4000E100E0C9
:1037500003289EBF014B0001195070470000002054
:1037600003289EBF024B03EB00104160704700BF6F
:103770000000002003289EBF024B03EB0010816075
:10378000704700BF00000020032806D80123034A29
:1037900003FA00F0116808431060704728F00F40EA
:1037A000032806D80123034A03FA00F011680843EE
:1037B0001060704720F00F40032806D80123034A09
:1037C00003FA00F0116808431060704714F00F40CE
:1037D00003289FBF044B03EB0010806800F0070034
:1037E00088BF0020704700BF000000204FF0FF326C
:1037F000014B1A60704700BF04F50F400122014BD6
:103800001A6070474CF00F40084B19461A68D002F6
:10381000FCD4074B1A6822F480321A600A68D2037B
:10382000FCD41A6842F400321A60704704200D403C
:1038300000200D4010B5094C226890070DD0084BB0
:103840001A4619684901FCD413685B01FCD5FEF7E0
:10385000D7FFFFF7D9FF0023236010BD58200D408C
:1038600004200D4038B5264B1C6814F03F0414D1D9
:10387000244D55F8243023B1984770B10134052CFC
:10388000F7D1214D2B7843B1FEF7CAFF0446FEF76E
:10389000CDFF201A092800D90CB930BF38BD1B4B09
:1038A0001A6822F400321A60194A11461068C002E0
:1038B000FCD41A6842F480321A600B68DB03FCD532
:1038C000FEF7B4FF201A092803D8BDE83840FFF7F7
:1038D0009BBF63280F4C0BD92B78022B08D1236098
:1038E00000F060FE30B1FFF78FFF0023236038BD8A
:1038F0000123F4E7FEF794FF0028CED1F3E700BFE1
:103900004886084004020020210F002000200D40BE
:1039100004200D4058200D400023064A52F8231081
:10392000814206D011B942F8230070470133052BBC
:10393000F4D17047040200200022054B05491A60AB
:103940000B6943F004030B61034B1A70704700BF0F
:1039500058200D4000ED00E0210F00204FF4803290
:1039600010B5064B064CC3F89021C3F89020206890
:1039700018B100F061FE0023236010BD00E100E0FB
:103980001802002030B5184B1A78431E1AB9174A8E
:103990001278122A06D001F52011154A27319142DA
:1039A0001CD130BD134A12784B2AF4D14A0802F1D7
:1039B0002814B4F1281F07D1002301F52011273165
:1039C0001044934205DB30BD14F8015D03F8015F3C
:1039D000EFE711F80149C4540133F2E711F8010986
:1039E00003F8010FDBE700BF2B0028002A002800A6
:1039F00027002800290028000FB407B504AA52F8B0
:103A0000041B0448019200F021F803B05DF804EBB8
:103A100004B070476000002070B505460C460A4EA1
:103A2000102C07D874B12B68224668680649BDE897
:103A3000704018472B68102231466868984710B9C3
:103A4000103CEDE7204670BDE27920002DE9F04FF3
:103A50008046154600268FB00791079B1B78BBB1A7
:103A6000079F00E027463C4614F8013B0BB1252B8D
:103A7000F8D1079B9F4210D0A7EB03094A46D8F81C
:103A800000300799D8F80400984728B14FF0FF3666
:103A900030460FB0BDE8F08F4E443B78002BF7D096
:103AA0007B78002BF4D021460024084610F8012B27
:103AB0000B462B2A39D02DD8202A39D0232A3AD0A8
:103AC000A2F13107082F3FD84FF0000A0B4611F83A
:103AD000012BA2F13000092830D91A782E2A4FD1B3
:103AE00059785A1CA1F13000092842D800271178D2
:103AF0001346A1F13000092802F1010234D91A78E5
:103B00006C2A40F0AA805A786C2A3CD144F0800498
:103B100002333BE02D2A04D0302AD1D144F01004E6
:103B200001E044F001040146BFE744F00604FAE76F
:103B300044F00204F7E744F00804F4E70A2303FB27
:103B40000A2AAAF1300AC1E72A2A0AD1D5F800A028
:103B50000346BAF1000F05F10405B8BF44F00104B3
:103B6000BBE74FF0000AB8E70A2303FB0717303F13
:103B7000BDE72A2903D12F6802330435BFE7134676
:103B80004FF0FF37BBE7013344F060041A78642A32
:103B900000F0908000F28380462A00F0AD806FD85C
:103BA000252A00F0BE8064D8002A3FF471AF0133AB
:103BB000079304F4E063B3F5806F00F0698200F2CC
:103BC000B380B3F5807F00F0F380B3F5407F7FF4DE
:103BD00044AF8B4B14F4804F8A4A18BF1A460DF13C
:103BE000330300211F462868043550EA010E40F0D7
:103BF0008982FF1A04BF302203F8012C4FF07802AB
:103C000008BF03F1FF3303F8012C4FF0300208BF67
:103C1000012703F8022C23220337BA458CBFAAEBF5
:103C2000070A4FF0000A14F00104A3F1030903F896
:103C3000032C06D151464046FFF7EEFE00287FF4E4
:103C400025AFD8F800303A464946D8F804009847DE
:103C500000287FF41BAF3E4448E2682A96D15A7888
:103C6000682A02D144F0200452E7013344F04004B2
:103C70008CE7412A4CD0452A99D144F4424496E736
:103C8000582A33D004D8472A91D144F4A1348EE77E
:103C9000612A3AD0632A8AD144F4A06487E76E2A65
:103CA0003CD00AD8662A24D029D3672A2AD0692A88
:103CB0007FF47DAF44F4245479E7732A2BD007D8DE
:103CC0006F2A10D0702A7FF472AF44F440746EE70C
:103CD000752A05D0782A7FF46AAF44F4C85466E7A1
:103CE00044F4106463E744F4885460E744F4B24455
:103CF0005DE744F400745AE744F4844457E744F41D
:103D0000024454E744F4813451E744F4C1344EE7AB
:103D100044F4E1344BE744F4806448E744F4E0645D
:103D200045E744F4C06442E7B3F5C06F34D0B3F55F
:103D3000E06F00F0F681B3F5A06F7FF48EAEBAF1BC
:103D4000010F2B688CBF0AF1FF3A4FF0000A14F004
:103D5000010405F104058DF8203007D15146404695
:103D6000FFF75AFE00287FF491AE5644D8F8003091
:103D7000012208A9D8F80400984700287FF486AEED
:103D80000AF1010734B151464046FFF745FE0028CD
:103D90007FF47CAE3E4460E6D8F8003001221A4938
:103DA000D8F80400984700287FF470AE013654E636
:103DB000002FACBF24F01004012714F40053069325
:103DC00004F0E00300F0D480402B00F0CA800AD851
:103DD000002B00F0C980202B18D000220023CDE951
:103DE0000023002320E0602B00F0BE80802BF4D164
:103DF000073525F0070303F10805D3E9002309E09F
:103E0000027A2000137A2000337A200095F90020EE
:103E1000D3170435002A73F10001E0DA524263EB54
:103E20004303CDE900230123059304F4C053B3F504
:103E3000805F00F0C880B3F5C05F00F0EA80B3F5A2
:103E4000006F40F00181DDE90023CDE902230DF18F
:103E5000360BDDE90223134340F0C9800DF1360330
:103E6000A3EB0B030293029B41F60802BB4238BF4F
:103E7000FF1A41F2080304EA020228BF00279A420F
:103E800002D1002F08BF012741F60801029B8A4298
:103E900003EB070040F0DC80DDE90023134300F072
:103EA000D780A24914F4804FA14B4FF0020908BFFC
:103EB0000B46069A72B1059A002A40F0CD8004F0B4
:103EC0000602022A00F0CC80062A9A4A04BF4FF06C
:103ED0000109134609EB000292458CBFAAEB020AC6
:103EE0004FF0000A14F00102009204D1E10640F103
:103EF000BB8057449246B9F1000F09D0D8F8004072
:103F00004A461946D8F80400A04700287FF4BEAD01
:103F10003C46029B1E44102CD8F8003000F2AE80C4
:103F20003CB122468449D8F80400984700287FF421
:103F3000ADADD8F80030029A5946D8F804004E4486
:103F4000984700287FF4A2AD009B3E44002B00F070
:103F5000D08051464046FFF75FFD002800F0C98041
:103F600094E5B5F9002053E72A680435D31751E7E3
:103F7000402B1FD009D8FBB1202B14D000230022E6
:103F800005930023CDE900234FE7602B14D0802B4D
:103F9000F4D1073525F0070303F10805D3E9002321
:103FA000CDE9002304E02A780023CDE9002304357D
:103FB000069B39E72A88F7E72B6800221946043563
:103FC000CDE90012F4E70DF1360BDDE9002352EAEA
:103FD00003013FF443AF02F0070130310BF8011D3C
:103FE000D10841EA4371D8080A460346EFE7DDE904
:103FF00002010A22002302F0FDFADDE9020130325B
:104000000BF8012D00230A2202F0F4FACDE9020197
:104010001FE74A4B14F4804F0DF1360B484918BF87
:104020001946DDE9002352EA03003FF417AF02F01E
:104030000F00085C4FEA131E0BF8010D100940EA4F
:10404000037002467346EEE70DF1360B002309E7D5
:104050004FF000094B462CE74FF00109394B39E787
:104060004FF00109384B35E7514640460593FFF7BD
:10407000D3FC059B00283FF43EAF07E510222E49F4
:10408000D8F80400984700287FF400AD103C42E7C0
:10409000D5F800B00435BBF1000F2ED0D94699F801
:1040A000003009F1010233BBA9EB0B09002F02DB41
:1040B000B94528BFB946CA458CBFAAEB090A4FF0DB
:1040C000000A14F0010406D151464046FFF7A4FC53
:1040D00000287FF4DBACD8F800304A465946D8F8BF
:1040E0000400984700287FF4D1AC4E44002C7FF4A4
:1040F00030AF5644B1E49146D1E7DFF850B04FF00D
:104100000609D3E700F00F0E12F80EE04FEA111C7B
:1041100003F801ED4FEA101E4EEA017E704661463B
:1041200063E52B6804351E6097E400BF247A200005
:10413000277A20002A7A2000F2792000027A2000D3
:10414000137A20003F7C2000E77820002C7A2000A2
:10415000F8B50388064615462BB14A2B17D0002325
:1041600003800320F8BD164802F0BEFD044634B9B2
:104170000122144B1A704A2333800120F8BDA16834
:10418000201D02F075FD2468F1E7246805E0882908
:10419000F3D10B4802F0A8FD0446002CEBD0231D00
:1041A0009D42F2D12146064802F0A7FD064D626904
:1041B0002F682A60A2690AB1E06990472F60DAE7A8
:1041C0001C020020220F0020A803002010B50024AC
:1041D000054B06481C7002F084FD2146BDE81040E6
:1041E000034800F011BA00BF220F00201C0200207B
:1041F0006800002070B50446E3610B4B049D1B78FA
:104200006561A2616BB1094D094B2E68201D2B60C1
:1042100002F02EFD2E602146BDE87040054802F0F8
:1042200081BDA160F7E700BF220F0020A803002096
:10423000680000201C02002013B5034C2468009481
:10424000FFF7D8FF02B010BDA803002010B5084B3F
:1042500004461B7843B1043000F0B0F82146BDE8B5
:104260001040044802F049BDC3600361F6E700BF97
:10427000220F00201C02002010B50C4C236813B93B
:104280000B4A136010BDFEF7A3FA226892E80A00F9
:104290000B441B1A92680AB90344F1E792E8120032
:1042A0002144091A8B4228BF0B46F3E72402002061
:1042B00020020020014800F0BFB900BF78000020B4
:1042C0002DE9F8430388054633B1592B46D0002326
:1042D00003800320BDE8F883234A136059232B8011
:1042E0000120BDE8F88301209B681BB90028F5D0A8
:1042F0000B60F3E7DC68A242F5D000B10B6099686F
:104300000029EBD0C86882420ABF89680B469960D1
:10431000F5E78229E2D1144F4FF00009B846002694
:104320003C68002CDAD0204602F0CDFC98B1224641
:104330008821E06800F040F958B9E060A3682EB128
:10434000B360C4F80890FFF797FFE8E7C8F80030BB
:10435000F7E7FFF7AFFF2646A468E2E78729D8D141
:10436000014900200B68C0E72402002010B5044674
:10437000FFF7A0FFE3680B4A0BB1136833B90A4B90
:104380001B68E36013681460A36004E0A34206D1D5
:10439000054A1268DA60BDE81040FFF76DBF9B6800
:1043A000ECE700BF24020020A8030020024B18689D
:1043B000003018BF012070472402002010B50B4ABE
:1043C00004461368834208D183681360FFF754FFE3
:1043D0000023A360E36010BD1346002BF8D09A6859
:1043E0009442F9D1A2689A60F0E700BF240200204D
:1043F00038B5836804460D469BB10A480460022024
:10440000A07304F10C0098470238012801D9832DCC
:1044100005D121462046BDE8384000F005B801230B
:10442000A37338BDA80300202DE9F8431C4F89462B
:104430003D681C4E2C46D6F80080844204D00CB94E
:10444000BDE8F8832468F8E7ACB1A37B63B100232F
:10445000A37395B9A3683BB14C4505D034602A4697
:10446000832104F10C0098473B689C420FD12368DC
:104470003B60C6F80080BDE8F883AC4204D0224619
:104480008721284602F00BFC2D68E2E71346002B3B
:10449000EFD01A689442F9D122681A60E9E700BFA8
:1044A000AC030020A8030020002370B501261D46A0
:1044B000084A1370084A146804B970BDE37B33B12D
:1044C000A673E573002282212046FFF791FF24683E
:1044D000F2E700BF260F0020AC030020024B187843
:1044E000421C1A70704700BF240F00208A22064B1E
:1044F0001A700023054A1370054A1370054A1360A9
:10450000054A1360704700BF240F0020230F0020CE
:10451000250F0020AC030020A80300202DE9F04166
:104520001B4D2B780BB1FFF7BFFF1A4C22789AB1C5
:104530000C21194E194F3378013A5943781817F85E
:10454000018001334768806803F01F0333702270D5
:1045500090B9134B1E6826B92B7820781844BDE813
:10456000F0812B780BB1FFF79FFF30463A4641466A
:1045700002F095FB3668EEE7B8F1810F08BF012322
:104580003A4608BF8373414602F089FBE4E700BF67
:10459000260F0020250F0020230F002028020020D6
:1045A000AC030020024A034B10781B781844704774
:1045B000250F0020260F0020F0B50B4E3378202B5E
:1045C0000FD00C25094C0A4F24781C4404F01F041A
:1045D0006C4301333D19A86039556A60337000207F
:1045E000F0BD0120F0BD00BF250F0020230F0020EB
:1045F0002802002038B5034C256802F050FB2560E6
:1046000038BD00BFA803002030B40A4C0A46256814
:104610002B4683420CD04BB950B101210560817308
:1046200020608381812130BCFFF7E4BF1B68F0E785
:1046300030BC7047AC03002038B1837B013B012BB9
:104640009FBF0123014AC37313707047260F0020D8
:10465000024610B5064853600468029B11609360DF
:10466000026014B90846FEF7F3F8002010BD00BF41
:10467000B003002010B5084C206858B100238168B1
:10468000236043689847236823B1BDE81040186849
:10469000FEF7DEB810BD00BFB003002070B505887E
:1046A0000446672D08D0792D32D06DBBFFF716FF79
:1046B0001A4B18701A4B1D601A4E194D304602F0F5
:1046C000B2FB431C03D167232380012070BD0A285D
:1046D0002B6806D07E2BF1DC5A1C2A60124AD0547B
:1046E000ECE75A1C2A6000250F4A2846D5540B4B8C
:1046F0001978FFF761FF0D4B2A4685211868FFF7EF
:104700005BFF38B97923DFE700230380032070BD06
:104710008529DAD10022024B1A60CDE74B11002027
:10472000B4030020B8030020270F0020A8030020B6
:104730000D2810B5014616D00C4C237853B90C48FF
:1047400002F05EFB08B9012323700A48FFF774FFEB
:10475000012010BD0A28F8D1054802F051FB0028BD
:10476000F3D00023F0E7002010BD00BFA70F00200A
:10477000B80300208800002008B5054905488022BC
:1047800002F037FBBDE8084000210348FFF73CBFBB
:10479000A80F0020B8030020880000202DE9F04178
:1047A00004880646772C21D07E2C43D0002C3CD1A7
:1047B000FFF794FE294D2A4B2A4FDFF8B48018707A
:1047C0002C602B6857F8232032B9274A13707723BF
:1047D00033800120BDE8F08108F803409368002190
:1047E000802098472B6801332B60EAE700231F4A9B
:1047F00013601A4A1360194B1B4A1B6812789A42BD
:1048000004DC1A4B1B68002BF0D1E0E7184AD256A3
:10481000002A1EDA134A002052F82320104B197880
:10482000FFF7CAFE50B97E23D2E70023038003209E
:10483000BDE8F0810A4B1B788B42CAD1074B0C496B
:104840001A688B5C03F07F038B54084A13680133AA
:104850001360024A13680133CCE700BFC403002091
:104860004C1100204000002028100020C003002030
:104870004711002010B40A4B0A491A7800239342CA
:1048800003DA51F82340A04208D107490748CA5C1F
:1048900062F07F02CA5410BCFFF7CEBE0133EEE7D0
:1048A0002810002040000020471100209800002020
:1048B000064A136843F004031360054B1868043379
:1048C0001B6840EA032080B2704700BF00700D40B3
:1048D00014700D4010B5174A136823F00C031360D1
:1048E0000122154B1A601A68012AFCD10822134BC9
:1048F00013491A60E32203F505731A601A460B6820
:10490000DB07FCD50F4C102100232068013900F093
:10491000010043EA00034FEA43039BB2F5D1002BA9
:10492000F1D00949180A03F0FE0308600B60EF2379
:10493000136010BD00700D40A8200D402486084073
:10494000648608409C86084014700D4003784078C7
:1049500040EA0320054B00FA01F1985CC2F108021D
:1049600000EA21201041C0B2704700BF667A2000E3
:10497000F8B506460A480D46174602F0B5F9044652
:1049800030B93A4629463046BDE8F84002F0D1BB7E
:10499000A3680BB128469847204602F0DFF9EEE7FE
:1049A000C803002038B500F0F5F80546094802F0C4
:1049B0009BF9044628B95DB12846BDE8384002F0AD
:1049C000B3BB636803B19847204602F0C7F9F0E72C
:1049D00038BD00BFC803002010B5044600F0E8F859
:1049E00038B100F0E1F9034B034821469B68984732
:1049F000012010BD487820007149200070B50B4C93
:104A00000023616E0A4A04F13800FFF715FCFFF736
:104A10004FFF616E0023B0FBF1F5064A05FB110163
:104A200004F11800BDE87040FFF706BCCC0300207D
:104A3000394A2000514A2000044B5A6E196E520028
:104A4000914294BF59665A66FFF7D8BFCC03002045
:104A500010B500F03DFA00F0CBF9002303800446C6
:104A600000F0F0F808B1037B63B9208880000230C1
:104A700080B200F07DF9238883B1BDE8104008487A
:104A800000F07AB82388818804EB83025180C188C2
:104A900001339180238002F061F9E3E710BD00BF8C
:104AA000CC0300209DF80030012B04D1024B9A6DFD
:104AB0005A66FFF7A3BF7047CC030020F8B50F4636
:104AC00016461D46064C0146064A204600F042F8AE
:104AD000A765E66525660448BDE8F84000F0ACB877
:104AE000CC030020DC772000A54A200070B50546E5
:104AF0000C46164600F010F82E612046BDE87040C6
:104B0000014902F01BBB00BF747A2000014802F08B
:104B1000E8B800BF3804002081800146014802F057
:104B200001B900BF380400200146014802F0E5B891
:104B30003804002010B50446054802F0D5F800B945
:104B400010BD8388A342FBD002F008F9F7E700BF4D
:104B50003804002070B505460C461646044AFFF797
:104B6000C5FF6E612046BDE87040024902F0E6BA1A
:104B7000E4772000767A200010B5044604491A2014
:104B800000F002FA2046BDE8104002F0CBBA00BFA8
:104B900040110020054B10B51B689847044618B11A
:104BA0008188012000F0E2F9204610BDC477200082
:104BB00038B5064B05465B6898470446A98801202E
:104BC00000F0D4F9201C18BF012038BDC4772000A4
:104BD000014B9B68184700BFC477200070B504469E
:104BE0001B200D4600F0DCF9064902F014FB38B139
:104BF000A3691B6823B129462046BDE870401847C9
:104C000070BD00BF4011002070B505460C46164629
:104C1000044AFFF79FFFAE612046BDE8704002499D
:104C200002F08CBAEC7720007A7A2000014802F07A
:104C300058B800BF3C040020014B1860704700BF0B
:104C400040040020014802F04FB800BF3C0400209F
:104C50002DE9F04106460C480C46174602F044F890
:104C600008B9BDE8F0818388A34209D18568002D89
:104C7000F7D03B4622463146AC46BDE8F04160479E
:104C800002F06CF8ECE700BF3C04002008B50448D3
:104C900002F067F8BDE80840024802F062B800BFC1
:104CA000B4000020A800002038B50E4802F069F8D2
:104CB000054650B10C4802F064F80446286030B94B
:104CC0002946084802F071F82546284638BD00F00C
:104CD00097F804F1B601A4F8800004F1820000F016
:104CE0001DF9F2E7A8000020B400002010B501462D
:104CF0000446074802F06FF848B12168054802F001
:104D000054F82146BDE81040014802F04EB810BDED
:104D1000A8000020B400002010B501460446094850
:104D200002F059F868B12468B4F88010204600F009
:104D3000DFF804F1B60104F18200BDE8104000F094
:104D400001B910BDA800002010B507490B888342A7
:104D500008DB064C80B222880244181A08802280A0
:104D6000012010BD002010BD0C0F00200E0F0020F0
:104D7000014B1880704700BF0C0F0020004870479F
:104D800064040020014B1888704700BF0C0F0020FE
:104D9000034A044B10781B781844C0B2704700BF18
:104DA000391000200E0F00202DE9F0410C4D2A880B
:104DB0006AB100240B4BDFF834801E880A4B1F7841
:104DC00021B2B14204F1010403DB00232B80BDE8D2
:104DD000F081FFF7DDFF41440B5CCB55F0E700BFEE
:104DE0000E0F00200C0F002039100020640400205A
:104DF00008B5FFF7CDFF014B184408BD640400203F
:104E0000F8B50C4B05461E780B4B1F88F419802C07
:104E10000DDC3246094901F0A5FDFFF7E9FF3544F5
:104E200001463A46284601F09DFD2046F8BD002483
:104E3000FBE700BF391000200C0F002064040020A5
:104E400008B5FFF7A5FF024B1B88184480B208BDC8
:104E50000C0F002010B50146FFF7F2FF4318802B1E
:104E600010DC0138084B00B2002805DA074B18782F
:104E700008441870012010BD1C5C1A1801385454E5
:104E800000B2F1E7002010BD6404002039100020BA
:104E900038B50C4D0C4C342200210C4801F0D8FDE3
:104EA0002946204602F0B4F92946A01C02F0B0F9C8
:104EB0002946201D02F0ACF92946A01DBDE8384066
:104EC00002F0A6B978782000041100200C1100200F
:104ED0000023044A1380044A1380044A1370FFF726
:104EE000D7BF00BF0E0F00200C0F0020391000208C
:104EF00038B50C460546FFF7EBFF802C28BF802411
:104F000029462246034801F02DFD034B20461C8014
:104F100038BD00BF640400200C0F002010B5074B03
:104F200003F1340253F8044B934240F8044BF9D197
:104F3000034A13680B6053684B6010BD0C110020CE
:104F40000411002010B5074B00F1340250F8044B57
:104F5000904243F8044BF9D10B68034A13604B6845
:104F6000536010BD0C11002004110020024B23F8E7
:104F700010100120704700BF0C110020014B33F8C6
:104F8000100070470C11002008B5044B1A3803EBD1
:104F9000400002F03DF9012008BD00BF04110020CF
:104FA000024B1A3803EB4000704700BF0411002089
:104FB0000149024802F02FB978782000061100203C
:104FC000084B10B51B689847074B5B689847074B21
:104FD0005B689847064B5B689847BDE81040054BF7
:104FE0005B681847FC7620001C7820004878200079
:104FF00000782000D07720002DE9F041FDF7E8FB94
:10500000002504464FF00C080F4F08FB05761A20C8
:10501000FFF7C6FF314602F0FEF888B10A20FFF71D
:10502000ADFF337A834202D00020BDE8F081706882
:10503000201AB0F5206F8CBF00200120BDE8F08160
:105040000135102DE1D1EFE7E404002070B5184ED2
:10505000002435461A20FFF7A3FF0C2101FB046151
:1050600002F0D9F8631C10B9102B1C46F2D10C22A7
:10507000013B02FB0352A2F10C067BB90A20FFF7A9
:105080007DFF2872FDF7A4FB68601A20FFF788FFF8
:10509000BDE870400146064802F0BAB8344603CC79
:1050A000106051602068013B90603246E3E700BF2A
:1050B000E404002030B591B0054600F0E5F94FF664
:1050C000FF73984204D14FF0FF34204611B030BD39
:1050D00040220021684601F0BBFC404B1A782AB9F7
:1050E00001221A70FFF7E4FB3D4B18701420FFF704
:1050F00045FF8DF810001320FFF740FF8DF81200D8
:10510000FFF756FF0446002849D000238DF81330DE
:105110008DF81530002301248DF814308DF81840D7
:105120004DB10A20FFF72AFF002840D00A20FFF7E0
:1051300025FF8DF81A0002248DF8194000F0A4F91B
:10514000ADF81C00FFF734FF00283DD0FF238DF899
:1051500017408DF800308DF8013000F095F9ADF86A
:105160001E001A20FFF71CFF014602A802F050F8AB
:10517000FFF73EFE0E90FFF705FE0F90684602F027
:10518000B0F90446002DA0D0FFF764FE00289AD0A5
:10519000FFF7F4FD0146684602F0EBF995E70B20B6
:1051A000FFF7ECFE8DF815408DF81300B2E70C4BBD
:1051B0001A7802B91C7019780A204A1C1A708DF8E6
:1051C0001A10FFF7D3FEB6E71B20FFF7E9FE0146F2
:1051D000684602F01DF88DF81740BEE73A1000202F
:1051E0003B100020014BDB68184700BF48782000C7
:1051F000014B5B69184700BF1C782000014B9B697D
:10520000184700BF1C782000024BD86900B1004746
:10521000704700BF1C78200013B5044668B1006BCE
:1052200001F062FD024640B12146054B0548DB68AE
:10523000019302B0BDE81040184702B010BD00BF96
:105240001C782000D172200070B590F829500F4BC7
:10525000042D28BF04250124DB6906469847AC408D
:10526000651E002814BF044601246C4305D0FFF7D7
:105270001FFBB0FBF4F303FB14043346214606F195
:105280000800034ABDE87040FEF7D6BF1C78200036
:10529000195220002DE9F04107461B208846FFF7F0
:1052A0007FFE494B05461A78484C22B901221A70F4
:1052B000FFF7FEFA208023880BB901232380218881
:1052C0000A204B1C2380FFF751FE414801F00CFDE2
:1052D0000446002848D13F4801F053FD0446002809
:1052E00068D02946201D01F093FF002304F12C0013
:1052F000206384F8283084F82930E36201F0F1FC5F
:105300002146334801F00EFD206B01F020FD0728F7
:1053100050DC314801F035FD054600283ED02F48CD
:1053200001F02FFDA860A8B3FFF7BEFC686068B36A
:105330000920AE68FFF722FE00BB0823337286E81F
:1053400080010D20FFF71AFE01282946206B1AD193
:1053500001F0F5FC206B01F0C7FC854232D12046FC
:10536000BDE8F041FFF770BF2946201D01F053FF53
:105370000028C9D1204601F0F1FCA9E70920FFF778
:10538000FDFD3072DBE701F0CDFCE3E7A9681348CF
:1053900001F00BFD2946104801F007FD206B01F0DC
:1053A000D6FC38B921460A4801F0A7FC2146094835
:1053B00001F0FBFC41463846BDE8F04101230422E0
:1053C00002F040B9BDE8F0813C100020100F002031
:1053D00004060020CC000020D8000020C0000020DF
:1053E00008B5054801F0BDFC044801F0BAFCBDE871
:1053F0000840034801F0B5BCD8000020C0000020E0
:10540000CC0000202DE9F0470D4614468B688046FD
:1054100093E8C000106B92F8289001F06EFC686869
:10542000FFF764FCA968144801F0BFFC2946134843
:1054300001F0BBFC206B01F057FC78B10023204643
:1054400084F8283084F82930FFF7FEFE4B464246A8
:1054500039463046BDE8F04702F0F4B804F10800E0
:10546000FEF7F4FE2146064801F047FC21460548B8
:1054700001F09BFCEAE700BFC0000020D80000203C
:1054800004060020CC000020014B1888704700BFA4
:10549000280100202DE9F041012986B006460F467B
:1054A000144603DC002006B0BDE8F08103A902F039
:1054B000A9F803AB03CB1B88206123839DF811302F
:1054C0006161002B44D0B51C02AA01A903A801F018
:1054D0006AFF9DF81380B8F1000F4CD0029B23B1F6
:1054E0006A7815F8023B03EB0223B8F1020FA3839D
:1054F00032D13249204601F08BFE6B78237015F8CB
:10550000023B63709DF81580B8F1000F4DD0019BF0
:10551000002B37D06A7815F8023B03EB0223029A7E
:105520009BB2E38302B9A383B8F1020F2DD12349C3
:1055300004F1080001F06CFE6B78237215F8023B51
:105540006372A81B3B1A8742E363A563AADBAAE741
:10555000B378F51CA376B7E7B8F1030FD2D105F104
:1055600008021346611E13F8010DAB4201F8010F4A
:10557000F9D11546C6E71149204601F049FEA4F8C5
:105580001C80BFE7A38BE383CEE7B8F1030FD8D12C
:1055900005F10802134604F1080113F8010D9D42BC
:1055A00001F8010BF9D11546CBE7044904F10800D5
:1055B00001F02EFEA4F81E80C3E700BF787820001B
:1055C00013B50024094B1C70094B1C80FDF72EF904
:1055D000009400F58051074B01220748FFF738F887
:1055E0000122064B1A7002B010BD00BF54100020FB
:1055F000120F0020C95A2000F40600204F1000208E
:10560000074B82B01B784BB1064B1A7832B9012296
:105610001A70054B1B6A019302B0184702B070471D
:105620004F10002054100020FC762000094B82B05F
:105630001B786BB1084B1A7852B1084A127802F005
:10564000FF012AB91970064B5B6A019302B0184733
:1056500002B070474F10002054100020501000205E
:10566000FC76200008B5FFF7E1FF0022014B1A602D
:1056700008BD00BF04070020044B1B7823B9044B6E
:105680001B680BB9FFF7D2BF704700BF5610002050
:10569000040700200022094B82B01A70084BC2B2E6
:1056A0001A70084A084B28B101211B6A1170019336
:1056B00002B0184710705B6AF9E700BF4F10002076
:1056C0005010002054100020FC76200037B50B4B02
:1056D0001A7802F0FF056AB901241C70084B1D708E
:1056E000FDF7A4F8009500F58051064B22460648C8
:1056F000FEF7AEFF012003B030BD00BF4F10002009
:1057000050100020C95A2000F406002037B50B4B7A
:1057100005461B780C4673B1FDF788F8231A022B57
:105720004FF0000348BF841C00930122044B214624
:105730002846FEF78DFF03B030BD00BF4F1000209C
:10574000C95A200013B5224C22680AB9FFF76EFF30
:10575000FFF718FB032823D0FFF772FB00B31D4BA4
:105760009B68984700281BDBFFF70CFBC0B1FFF7D5
:1057700067FBA8B11B20FFF713FC174901F04BFD95
:1057800050B11320FFF7FAFB206058B9FFF74EFF26
:105790001248FEF75BFD0DE0FFF70AFC0028F0D190
:1057A00002B010BDFFF72CFF00230D4A04210B4867
:1057B000FEF742FDFFF720FC0028F1D1FFF746FC81
:1057C000084BDB68019302B0BDE81040184700BFEA
:1057D000040700203C78200040110020D006002063
:1057E00065562000007820002DE9F04F774E89B0F3
:1057F000337803903BB9764B1B7823B905242046B8
:1058000009B0BDE8F08FFFF71BFB0028F6D0714907
:105810001A20FFF7B9FBFFF7CBFB04460C20FFF77C
:10582000ADFB002843D0FFF70BFB81464FF001088A
:10583000694D6F68FFF7A2FA4946B847674FAB69F1
:1058400087F800800093984700283AD1EB690193CC
:105850009847002835D1FFF7E9FE337886F80080B5
:10586000DBB20293039B002B3ED14FF006086FF092
:10587000030A6FF00F0BFCF7D9FF0490FFF7C0FE8F
:105880000498AAEB00030493FCF7D0FF049BC342E7
:10589000F9D46B699847C0B90090FFF7C7FE00982C
:1058A0003870FFF7C3FE9DF8083033700BE001211C
:1058B0000B20FFF75BFB4A4B5B6898470028B2DA86
:1058C0009CE700233B70012499E7FFF7AFFEFCF74C
:1058D000ADFFABEB00030493FCF7A8FF049BC342AE
:1058E000F9D4B8F10108C6D10CB9FFF789FE0A2036
:1058F000FFF744FBC3B20493FDF71CF9FCF796FFD6
:1059000000278046DFF8E0B0ABEB000BBA46002F73
:105910004BD1FCF78BFF1BEB000F46D5FDF70AF9C7
:10592000002C38D0AB6848469847FCF77FFF6FF0F3
:105930000C031B1A0593FCF779FF059BC342F9D4AE
:10594000002CE6D1009B984788B3FCF76FFF6FF0FF
:10595000140AAAEB000AFCF769FF1AEB000FFAD44D
:105960002B69032107A8984703282AD19DF81E30E8
:10597000049A934225D10125FFF758FE00229DF895
:1059800008303370154B1A70002F9CD1E4B9954242
:1059900008BF022433E7039B002BC3D0FCF746FF6C
:1059A000104BA3EB0803C342BCD40025E4E7019BE2
:1059B00098470028C9D16B6998470028C5D0574639
:1059C000A4E74FF0010AFAE73C4618E74F10002021
:1059D0005010002040110020FC76200056100020BE
:1059E0003C782000DEFDFFFFB0EFFFFF2DE9F14F17
:1059F000074688461446002A5DD0304B1E685EB1CB
:105A00005068FFF789F901231A464146384601B02C
:105A1000BDE8F04F01F016BE1546DFF8A4A0DFF890
:105A2000A4B0284601F09AF981466868FFF774F936
:105A30000C20FFF7A3FAE8B9B9F1000F03D0012158
:105A40001320FFF793FA51461A20FFF79DFA012120
:105A50000B20FFF78BFADBF804309847002802DAB6
:105A600001230522D1E701210C20FFF77FFA6868A6
:105A700001F0BAFB4D46002DD3D1204601F06EF95E
:105A800005466068FFF748F91320FFF777FA81466B
:105A90003046FFF7A9FE032804460CD00246012336
:105AA0004146384601F0CEFD2CB925B12C460126E1
:105AB000B9F1000FE1D101B0BDE8F08F040700207B
:105AC000401100203C78200040F2B1122DE9F3474C
:105AD0006D4C06462388934200F0D180B3F5D97F00
:105AE00004D2002B00F08880002395E040F2E312FE
:105AF00093422DD040F202229342F5D10023634A13
:105B00001370634A1370624B1B78012B13D8614BDF
:105B10001A78002A77D1604A1268002A73D11B785C
:105B20000BB9FFF76DFD5D4B5B699847002868D1A5
:105B30000122564B1A70554B1B78002B49D0FCF7AD
:105B400075FE574B574A186000231370564A13705E
:105B5000504BDFF864811B784BBB98F8003033B3AF
:105B6000FCF764FE6FF4CC724D4B1B68C01A1044F6
:105B700000281CDA494DDFF82C916B699847002802
:105B80004ED099F80030013389F80030464FD5F8EF
:105B900018A03B7801333B70D04710B1002389F83F
:105BA000003099F80030052B3DD9FFF765FD98F8D6
:105BB000003073B1394DAB699847002858D0FCF7D5
:105BC00035FE374B1B68C01A6FF4CC73184400289D
:105BD00052DA364D2B6803F580532B60FCF726FE16
:105BE0002B68C3F1A003C34288D529683046FFF76C
:105BF0008DFD40F202230FE0FCF718FE2B4B1860DE
:105C00007CE7FFF739FDFCF711FE00F1100130468B
:105C1000FFF77CFD40F2B113238002B0BDE8F087AE
:105C200089F80000B2E73B780A2B05D9D04718B9AC
:105C3000EB6998470028B8D0EB6998470028B6D19F
:105C40001B4B1B788BB13568FCF7F0FD002305F189
:105C500014072D1A15F1120F48BF871C009301225B
:105C6000144B39463046FEF7F3FC40F2E313D3E71A
:105C7000EB6998470028A2D1FFF7FEFCA9E7044A88
:105C8000137801333EE700BF120F002052100020AE
:105C9000511000205610002004070020FC76200040
:105CA000000700205510002053100020F0060020AF
:105CB0004F100020C95A20005410002008B5024B94
:105CC0001B689847023008BDF477200038B50C4BAC
:105CD0009B689847041E02DA4FF0FF3038BDFFF78B
:105CE00087F803780546002BF6D10220FFF72CF841
:105CF0000028F1D06878FFF73BF8A01C38BD00BF42
:105D0000F477200070B50220FFF7A4F810B94FF027
:105D1000FF3070BDFFF732F8002505700446FFF72D
:105D200031F86070FFF78CF80446FFF7C7FF204496
:105D30002A2812DCC0F12B00C4B2FFF759F806463E
:105D4000FFF720F822462946304400F081FEFFF795
:105D500019F8204480B2FFF70BF8044B5B689847B2
:105D6000041ED4DBFFF720F8A01C70BDF4772000E0
:105D7000014B9B68184700BFD077200070B50446E0
:105D80000D4614200121FFF7F1F8034B2946204668
:105D9000BDE870409B68184700782000F8B50546BC
:105DA00009480E462C46FDF727FE084F631B9E420E
:105DB00004DC0748BDE8F84000F000BF14F8011B00
:105DC0003846FDF719FEF1E75C7B2000767B20006A
:105DD000187C20008329F7B506460C46174602D1E9
:105DE000474801F0CDF935883DB140F261139D423D
:105DF00059D000230320338053E0424B424C9B6830
:105E000080214FF480709847E76A0D210120B84740
:105E100007210620B847A36A01A93C4C01209847F6
:105E20003B4800F0CBFE627821783A48FDF7E4FD6C
:105E300001993948FDF7E0FD384800F0BFFE3848C9
:105E400021460570457001F0E6F940B1627821788D
:105E50003448FDF7D1FD0120FCF706FBFBE7324A91
:105E600092213248FEF7D0FE3149922001F066F9C6
:105E7000304A80212248FEF76DFE2F49802001F034
:105E80005DF921462D4801F0C6F910B101222C4BD5
:105E90001A702C48802100F0EBFE40F261130120C3
:105EA000338003B0F0BD00F059FA274B1B7843B1A3
:105EB000264B1B782BB1224B197811B92448FEF7D9
:105EC000A3FB244B1B78A34216D10E4B9F4213D148
:105ED0007B680020984778B91F4800F06FFE1F4A82
:105EE00004201368B3F5FA6FB4BF03F5FA63A3F5A2
:105EF000FA631360FCF7B8FA00F04AFAC9E700BF8A
:105F00000807002084762000FC7620004011002045
:105F10001A7C2000417C2000567C20006E7C2000F2
:105F2000160F0020967C200070782000E8100020DA
:105F3000D67A200068782000CC7A20007A78200079
:105F4000D9100020340700202C0100205710002019
:105F5000E40000204C110020D47C2000F800002038
:105F6000F8B5134D06460F4612481349FDF744FD98
:105F70002846FEF745FF114C207037B10420FEF78C
:105F8000FDFF2378E85202332370217833880848D4
:105F90006B520231C9B22170FEF7AAFF02210D2017
:105FA000FEF7E4FF0649074801F0F3F80120F8BDC9
:105FB00058100020577B2000AF7A2000D810002016
:105FC00042110020E81000202DE9F34105460C465F
:105FD0001C481D49FDF710FD002302AE26F8043DC4
:105FE000ADF80030194F6B89E91D30463B8001F058
:105FF0000FF9174B39881B889DF804202B5315483F
:106000009DF80530FDF7F8FC023469463046A4B22D
:1060100001F001F970B9DFF840803A88B8F8003033
:106020001E339A420ADD3146684601F0F1F83B889A
:10603000A8F8003021462846FFF7B0FE012002B044
:10604000BDE8F081577B2000987A2000140F0020D3
:1060500040110020797B2000180F0020F7B50C4676
:106060000220FCF701FA152025786678FEF786FFF6
:1060700007460420FEF782FF294600903BB23246D5
:106080002A48FDF7B9FC0D20FEF778FF054620BB36
:106090001F21204600F01AFA254B1B78BBB1254979
:1060A0002548FDF7A9FC08212448FEF721FF2946D1
:1060B0001520FEF75BFF01210D20FEF757FF204959
:1060C0001C20FEF761FF21461E4801F062F8022005
:1060D00003B0BDE8F040FCF7CFB90D20FEF74EFF4E
:1060E0000228F4D1184800F069FD114B1B7823B940
:1060F00001212046FFF734FFE9E7144800F05EFD78
:106100000420FEF73BFF0546FEF772FE0446FEF74D
:1061100039FE2552FEF76CFE0446FEF733FE811C65
:1061200089B22046FFF750FFD1E700BFE07A200098
:10613000D9100020BC7A2000577B20001A7B200059
:106140007A782000E8100020227B20003B7B200092
:10615000832938B5044602D1254800F02FFD258853
:1061600035B1B5F58A7F23D000232380032038BDC5
:106170001921204800F07CFD1F4800F01FFD1F4B37
:106180001D704FF48A732380012038BD1C48FDF731
:1061900033FC1848FEF712F900F0E0F800F0F8F8C8
:1061A0000122164B02201A7000232B60238038BD79
:1061B000104800F06FFD0028E6D0124D2B68132B1D
:1061C000E4DC07211048FEF793FE00210D20FEF7C6
:1061D000CDFE1F211520FEF7C9FE0C48FEF7CCFCB2
:1061E0002B68044801332B6000F04BFDC9E700BF6A
:1061F000947B200024070020BB7B20005710002048
:10620000DE7B200020070020D67B2000080700202E
:10621000832910B5044602D1114800F0CFFC238831
:106220009BB140F29512934203D0002323800320B8
:1062300010BD0C4800F02EFD80B10B4B1B7823B134
:106240000A4B1B780BB100F09BF9FEF731FB802164
:10625000044800F00DFD40F295132380012010BD8D
:10626000E57C200044070020DA10002057100020B1
:10627000F7B50C460420FCF7F7F81520257866786A
:10628000FEF77CFE07460420FEF778FE3BB2009046
:10629000324629461F48FDF7AFFB0D20FEF76EFE84
:1062A00028B91D4803B0BDE8F04000F087BC0D20C0
:1062B000FEF764FE012805460CD11520FEF75EFEB0
:1062C000C1B2204600F002F9144B1A7802B91D70D1
:1062D00003B0F0BD0D20FEF751FE0228F8D11048A2
:1062E00000F06CFC0F4B197829B9204603B0BDE8CB
:1062F000F040FFF735BE0C4800F060FCFEF778FD7B
:106300000446FEF73FFD0146204603B0BDE8F040DD
:10631000FFF75ABE427D20007A7D2000DA1000206F
:10632000227B2000D91000208B7D200010B5044670
:10633000427901790648FDF75FFB2146054800F0E8
:10634000DCFC2146BDE81040034800F02EBD00BF34
:10635000DE7D20005C0700201C01002038B50948C4
:1063600000F0C2FC0446084D24B90848BDE8384096
:1063700000F024BCE388627921792846FDF73CFBD4
:106380002468F1E75C070020C77D2000187C20000E
:106390002DE9F0410C4800F0A7FC012504460B4F05
:1063A000DFF82C800CB9BDE8F081261D3946304657
:1063B00000F031FF30B1E5803146054800F028FF9C
:1063C000A8F802502468EDE75C0700207A782000E6
:1063D0004211002070B5224800F0B9FC214D04465E
:1063E000002836D000231E482B7000F07DFC1E4E86
:1063F0001E4CC3883060011D201DE38000F008FFA3
:1064000033681B4D1B68261D2B602968A1B9194DE7
:106410001949284600F0FCFE184AE38812686B8090
:10642000B2F5FA6F04DB164A1268B2F5FA6F01DAB8
:1064300001336B80012070BDCB88E2889A4204D979
:1064400004313046E38000F0E3FE2B681B682B60CC
:10645000DBE70C4800F0B2FB01232B70204670BD37
:106460005C0700202C01002018090020F008002003
:106470005407002042110020F4080020F4000020FE
:10648000F8000020BB7D200070B506460D480D4683
:1064900000F02AFC04460CB9204670BD211D304690
:1064A00000F0B9FE58B1013504F10800E58023463B
:1064B000054A4FF42061FDF7BFFE012070BD24683E
:1064C000E9E700BF5C0700202D6320002DE9F041C3
:1064D00080461C200F46FEF763FD244900F09BFE1A
:1064E000002839D0224800F0FFFB0446FCB9012502
:1064F00039464046FFF7C8FF064640BB1D4800F03E
:1065000040FC044668B34146043000F081FE2DBBD8
:106510000137E7802146164800F004FC2346164A5E
:106520004FF4206104F10800FDF786FE0EE0211D06
:10653000404600F070FE68B123460F4A4FF42061D8
:1065400004F10800FDF778FE1F23E38001263046A2
:10655000BDE8F0812468C9E70546C9E71F23E38049
:10656000D8E7064800F02AFBF1E700BF4011002001
:106570005C0700201C0100202D632000A87D200066
:1065800038B5164CFFF726FF2368254623B9144873
:1065900000F0AAFB206038BD124B134C1B781BB1D6
:1065A000002363802370637008211048FEF7A0FC6D
:1065B00061881520FEF7DAFC01210D20FEF7D6FCDC
:1065C00009491C20FEF7E0FC29680948043100F065
:1065D000E0FD2B681B682B6038BD00BF580700200A
:1065E0005C070020D9100020421100201A7B2000F7
:1065F000E810002053B94AB9002908BF00281CBF81
:106600004FF0FF314FF0FF3000F07AB9ADF1080CD8
:106610006DE904CE00F006F8DDF804E0DDE90223C0
:1066200004B070472DE9F0478C460E460446089D9D
:10663000002B50D18A4217466CD9B2FA82FEBEF1C5
:10664000000F0BD0CEF1200C01FA0EF620FA0CFC54
:1066500002FA0EF74CEA060C00FA0EF43A0CBCFBF8
:10666000F2F9BBB202FB19CC09FB03FA4FEA14485A
:1066700048EA0C46B2450AD9F61909F1FF3180F013
:106680002581B24540F22281A9F102093E44A6EBE0
:106690000A06B6FBF2F002FB106600FB03F3A4B29D
:1066A00044EA0644A34209D9E41900F1FF3280F01C
:1066B0000B81A34240F2088102383C440021E41AD5
:1066C00040EA0940002D62D0002324FA0EF42C6029
:1066D0006B60BDE8F0878B4207D9002D55D00021B3
:1066E00085E841000846BDE8F087B3FA83F1002948
:1066F00040F08F80B34202D3824200F2FC80841AC1
:1067000066EB03060120B446002D40D085E810104A
:10671000BDE8F08712B90127B7FBF2F7B7FA87FE99
:10672000BEF1000F35D10121F61B4FEA174C1FFABD
:1067300087F8B6FBFCF20CFB126608FB02F0230C98
:1067400043EA0646B04207D9F61902F1FF3302D2F6
:10675000B04200F2D2801A46361AB6FBFCF00CFBAF
:10676000106608FB00F8A3B243EA0644A04507D927
:10677000E41900F1FF3302D2A04500F2B9801846B7
:10678000A4EB080440EA02409CE729462846BDE8FD
:10679000F08707FA0EF7CEF1200326FA03F24FEA4C
:1067A000174CB2FBFCF11FFA87F80CFB112206FA1A
:1067B0000EF620FA03F301FB08F933431E0C46EAF8
:1067C0000246B14500FA0EF409D9F61901F1FF327B
:1067D00080F08C80B14540F2898002393E44A6EBBE
:1067E0000906B6FBFCF00CFB106200FB08F99EB238
:1067F00046EA0246B14507D9F61900F1FF3371D2D6
:10680000B1456FD902383E44A6EB090640EA014182
:106810008FE7C1F1200722FA07F88B4048EA03030B
:1068200026FA07F44FEA134EB4FBFEF91FFA83FC75
:106830000EFB19448E4020FA07F809FB0CFA48EACF
:1068400006084FEA184646EA0444A24502FA01F255
:1068500000FA01F608D9E41809F1FF3044D2A24544
:1068600042D9A9F102091C44A4EB0A04B4FBFEF0CE
:106870000EFB104400FB0CFC1FFA88F848EA0444A5
:10688000A44507D9E41800F1FF3E29D2A44527D931
:1068900002381C4440EA0940A0FB0289A4EB0C0C1E
:1068A000CC45C246CE4615D312D055B1B6EB0A033D
:1068B0006CEB0E0606FA07F7CB401F43CE402F6065
:1068C0006E600021BDE8F0871046F7E68946DEE6F7
:1068D0004645EAD2B8EB020A69EB030E0138E4E759
:1068E0007046D7E718468FE78146BDE7114676E741
:1068F00002383C4444E7084606E7023A3E442BE7A8
:10690000704700BF032A70B422D940EA01039B07F5
:1069100011D003780C78A3421DD10A44013105E05F
:1069200010F8013F11F8014BA34214D19142F7D165
:10693000002070BC70470D6806680C46AE420346E6
:1069400001F1040100F1040008D1043A032AF2D84D
:10695000002ADED1ECE7181B70BC704721461846B0
:10696000D7E700BF844641EA000313F0030349D18F
:10697000403A23D30B6803604B6843608B688360A5
:10698000CB68C3600B6903614B6943618B698361A9
:10699000CB69C3610B6A03624B6A43628B6A836291
:1069A000CB6AC3620B6B03634B6B43638B6B836379
:1069B000CB6BC36340304031403ADBD230320BD333
:1069C0000B6803604B6843608B688360CB68C3606F
:1069D00010301031103AF3D20C3205D351F8043B89
:1069E00040F8043B043AF9D2043208D0D2071CBF65
:1069F00011F8013B00F8013B01D30B88038060468E
:106A0000704700BF082A13D38B07B1D010F00303DF
:106A1000AED0C3F10403D21ADB071CBF11F8013B4F
:106A200000F8013BA4D331F8023B20F8023B9FE77A
:106A3000043AD9D3013A11F8013B00F8013BF9D2ED
:106A40000B7803704B7843708B7883706046704787
:106A500070B4860746D0541E002A41D0CAB20346FD
:106A600002E014F1FF343BD303F8012B9D07F8D16A
:106A7000032C2ED9CDB245EA05250F2C45EA054554
:106A800019D9264603F11002103E0F2E42F8105C71
:106A900042F80C5C42F8085C42F8045C02F1100217
:106AA000F2D8A4F1100222F00F0204F00F04103209
:106AB000032C13440DD91E462246043A032A46F8F5
:106AC000045BFAD8221F22F003020432134404F0BC
:106AD00003042CB1C9B21C4403F8011B9C42FBD136
:106AE00070BC704714460346C2E700BFFEE708B516
:106AF000FBF7CCFBF7B50024064625462746304673
:106B0000FBF7B2FC0197019B9D4215DC3046FBF779
:106B1000B3FCC5F5C8750197019B9D4211DC01349A
:106B2000B4F5487F01D103B0F0BDB4F5C87FCCBF48
:106B3000C4F548752546E2E700BF019B0133019388
:106B4000E1E700BF019B01330193E5E7FBF74ABD95
:106B5000FBF7F2BD70470020FBF7CEBE0120FBF72C
:106B6000CBBE0020FCF77AB80120FCF777B80220F2
:106B7000FCF774B80320FCF771B810B50C46FCF7AD
:106B80008FFA2046BDE81040FCF7BCBA10B50446A9
:106B9000C1B20020FBF7B4FF204610BD70B505461A
:106BA00004464618601B0CB1237803B970BDB4428B
:106BB000FCD018460134FFF7E9FFF3E738B5054686
:106BC000002415F8010B20B1FFF7E0FF0134002D80
:106BD000F7D10A20FFF7DAFF204638BD00207047C2
:106BE0000120704710B50446302200210E20FCF72A
:106BF00087F884B1012C0CD142F210730011A0F27D
:106C00008E5058432A2390FBF3F000F5C340283000
:106C100010BD4FF0004010BD0020704701207047AC
:106C200010B50446302200210F20FCF769F85CB152
:106C3000012C07D140F6F253584347F6F07390FB0E
:106C4000F3F010BD4FF0004010BD08B5084612B17A
:106C50001146FFF7A3FF002008BD10B5041F54F82C
:106C6000040F00B910BD0021FDF7CEFCF7E7704717
:106C700010B5044600F01BF82046BDE81040FDF7B3
:106C800075BB10B5044600F019F82046BDE8104069
:106C9000FDF76CBBC068B0FA80F040097047837B99
:106CA000DB0701D5FDF7A4BB7047FFF753BF10B555
:106CB00041600446FBF78CFD206010BD90E80C009D
:106CC00013440360704710B50446FBF781FD236849
:106CD000C3F1010303446068834294BF0020012094
:106CE00010BD00230360704700687047006808B15A
:106CF000036803B970471846FAE7036810B583B113
:106D00000022994209D10B682AB9036000230B6065
:106D100010BD2346F5E71360F8E71C681A46002CFF
:106D2000F7D110BD38B50546FFF7E7FF00230B602C
:106D3000FFF7DCFF08B9296038BD016038BD38B500
:106D40000446FFF7DAFF03680B60216038BD036873
:106D5000002003B9704701301B68FAE700B10068F2
:106D6000704710B50446428800214068FFF770FE66
:106D700023886288A0685A43BDE810400021FFF7CD
:106D800067BE002310B541888B4201DB002010BD97
:106D90004268D418D25C32B901222270028880681D
:106DA00003FB020010BD0133EEE7002330B582681B
:106DB0004488A34201DBFF2030BD8A4207D14168ED
:106DC000CA5C0AB1013ACA544268D05C30BD058839
:106DD00001332A44EDE782688A4208D84388008854
:106DE00000FB032081422CBF0020012070470020BF
:106DF00070470023013A016002714371837170474B
:106E000010B5427983790479D31A34EA030308D0A0
:106E10000368995443790279013313404371012087
:106E200010BD002010BD837942790179D21A0A423F
:106E30001FBF0268D25C01330B401ABF837110463A
:106E40004FF0FF307047831C0020023313F8042CEE
:106E500002B9704713F8032C1044F6E7072B2DE90D
:106E6000F8430746884615461C4607DC1A4629465D
:106E70004046FDF76BFD3870BDE8F8834FEAE30943
:106E8000AAB1002608EB060008222946FDF75EFDA0
:106E9000B85501364E45F5D114F0070217D02946F2
:106EA00008EB0600FDF752FDB855BDE8F88318F869
:106EB00005307B550135A945F9D114F0070206D0FC
:106EC000002108EB0900FDF741FD07F80900BDE8C6
:106ED000F8832DE9F743FDF78BFF04460220FDF709
:106EE00033FF20B90025284603B0BDE8F08363785E
:106EF000207800EB032080B2FDF71CFE0546002839
:106F0000F0D0FDF775FF8046287B10F0070318BF0F
:106F1000012303EBD000FDF717FF0028E2D0002685
:106F2000B146AC68023414F8023C002BDBD0192BBC
:106F300014F8017C06F0070208EBE6010BD901A862
:106F40003B46FFF78BFF01A914F8020CFEF71CF873
:106F50003E440234E7E73B4601A8ADF80490FFF752
:106F60007DFF9DF805109DF8043014F8020C43EAEB
:106F70000121FDF7FBFFEBE7072B2DE9F0410FDCCB
:106F80001478C1F11001CB1A04FA03F30178C3F3AA
:106F900007220A43417802700B434370BDE8F08139
:106FA000DC1069B302F1FF3E0519C1F1080C8542FE
:106FB00016D113F007033CD0125DC3F10800014461
:106FC0000A41D2B2C3F1100302FA03F32978C3F3E2
:106FD00007220A432A706A7813436B70BDE8F08178
:106FE0001EF8016F90F8008006FA0CF6C6F307272A
:106FF00047EA0807077010F8017F3E430670D6E79E
:10700000555C455401318C42FAD113F0070310D07E
:10701000125DC3F108052A41C3F11003055D02FAB0
:1070200003F3C3F307222A43011902554A78134395
:107030004B70BDE8F0812DE9F743047B054614F061
:10704000070318BF012303EBD404A01CFDF702FFC4
:10705000A8B1FDF793FEAB880370AB881B0A4370A1
:10706000FDF78CFE871C224600213846FFF7F0FC16
:10707000AC680025023414F8020C18B9012003B0E2
:10708000BDE8F083192814F8016C07EBE50805F05A
:1070900007090AD9FDF784FF3346024649464046B0
:1070A000FFF76AFF35440234E5E7FDF767FF8DF827
:1070B0000400000A8DF80500334601AAEEE710B57A
:1070C000FDF7E4FDFDF704FFFDF7B0FD00F05AF811
:1070D000BDE810404FF4E1234FF4F0524FF400713B
:1070E0000220FDF7EBBC7047F7B50F46FDF780FEB9
:1070F00006880446FDF746FEB3000233834203D8F8
:1071000000250234B54201DB03B0F0BD54F8041B86
:10711000384601910A0C89B2FDF79AFD0135F1E775
:10712000FDF702BDFDF758BC03691B6803B11847A2
:10713000704703695B6803B11847704738B50D465F
:10714000FDF7F8FC044620B185602846FDF740FDB8
:10715000207338BD43695B6803B11847704713B5A6
:1071600004461A20FDF71CFF014601A800F050F864
:1071700063691B6813B101A92046984702B010BD8E
:10718000FFF7CEBFFDF7C2BC83695B6803B1184748
:10719000704710B504461B20FDF7F6FE2046BDE8FB
:1071A0001040FDF7E9BC0EF00F000D2808BF00F0FD
:1071B0000EB800982DE9F04F00F1240181F3098801
:1071C00090E8F08F0EF00F000D2818BF7047EFF316
:1071D000098020E9F04F0990BDE8F08F006800F1C8
:1071E000B6018230FDF79ABE10B5046804F1B6010D
:1071F00004F18200FDF792FE2046FDF701FEA4F89F
:10720000800010BD036803EB4101B1F882007047B4
:107210000B880380704708B50222FFF773FBB0FAB2
:1072200080F0400908BD30B591B0FDF7E1FD04469E
:10723000FDF7A8FD6A4601462046FEF72BF90446F5
:1072400020B94FF0FF34204611B030BDFDF77CFD72
:107250000028F6D09DF810101420FDF787FE9DF849
:107260001730ABB1BDF81C50FEF70EF9854205D0C2
:107270004FF6FF73BDF81C209A42E2D169469DF893
:10728000170000F01FF918B969461B20FDF77CFEB6
:1072900002A91A20FDF778FE9DF812101320FDF7C1
:1072A00065FE9DF8153053B99DF81A100A20FDF7B8
:1072B0005DFE9DF81A100E20FDF758FEC3E74FF64D
:1072C000FF71F3E70120FDF7F5BE0020FDF7F2BEE8
:1072D0002DE9F0410E4617460446002861D0006BA8
:1072E000FFF702FD054608B9BDE8F0810A2168688C
:1072F000FFF788FF80460A20FDF740FE80454DD00D
:107300002846FFF72BFDEDE7032E43D8DFE806F014
:107310000220104994F8282000203A4484F82820BC
:107320002946224684F82900BDE8F041FEF76AB8F4
:10733000002284F8292094F828203A44D2B284F814
:1073400028201B7A93421DD8224629460220EBE7CB
:1073500094F829203A44D2B2052A83BF002284F847
:10736000292094F8282084F8292084BF013284F849
:10737000282094F828201B7A9A4203D322462946D3
:107380000120D1E72046FDF75FFF6868BDE8F041C6
:10739000FFF724BF224629463046C5E7AB68002BDD
:1073A000B2D1BDE8F08130B500284AD0037A022B73
:1073B0002ED1C479437A05792CB95BB9012D14BF5C
:1073C000002001200BE003B965B1032C35D1032B5C
:1073D00035D19DB1002002E0181C18BF012015B165
:1073E000002306E0012074B9023B012B8CBF00236F
:1073F000012301B10B6022B3106030BD01209C1E3F
:1074000063426341F5E7022CEED0032CF7D0E7E7A7
:107410000378022B0ED0037953B9437A13F0030398
:1074200018BF0123C07910F0030018BF0120E0E766
:107430000023F7E700200346DBE7022CCCD0022B29
:10744000BDE730BD002337B50B608B80437D0D4613
:10745000D9075CBF01232B70037E0446012B0BD898
:10746000C37D9A072CD0437E9B0729D0C28B838B88
:107470009A4225D10123237501AA694604F110001F
:10748000FFF791FF009B0BB10223EB70019B0BB147
:1074900002236B70E37D03F00303022B03D0032B65
:1074A0000CBF08230023AB70637E03F00303022BA1
:1074B00003D0032B0CBF082300232B7103B030BD76
:1074C0000023D8E702280CBF022308230B448B4279
:1074D00001D10120704713F8012DFF2AF7D00020B9
:1074E000704707B56946FFF7ADFF9DF800309DF87E
:1074F0000100023303449DF8020003449DF8030099
:1075000003449DF8040003449DF80500184403B0AB
:107510005DF804FB43788278DB00120102F0100270
:1075200003F008031343027802F007021343C27802
:10753000520102F0200213430279920102F040024C
:1075400013430B704379427A03F0010343EA821339
:107550008279520002F002021343C279920002F0D3
:107560000C021343027A120102F0300213434B70F3
:107570007047F7B504460D466946FFF763FF294695
:1075800004F11000FFF7C6FF9DF800309DF80120C0
:10759000012B09BFA37E0223AB700323022A08D16B
:1075A000A18B5A1CE954A18BD2B20233090ADBB277
:1075B000A95419469DF802002218A24217D19DF83D
:1075C00003200344022ADBB208D1E18B5A1CE954A0
:1075D000E18BD2B20233090ADBB2A9549DF8042030
:1075E0001344D8B2831ADBB23AB903B0F0BD12F833
:1075F000017D4E1C6F54F1B2DFE7013AA118097A00
:10760000E954EFE70278437802F007000870C2F30C
:10761000C0004870C2F300108870C2F34010C2F37B
:1076200080120A7103F001024A71C3F340028A71A9
:10763000C3F38102CA71C3F301129B09C8700A72B5
:107640004B72704730B40D460446114620B11A46BD
:107650002846234630BC184730BC7047102070477E
:1076600070B5044600200D46FEF7BEF8032802461A
:1076700006D029462046BDE870400123FFF7E2BF4F
:1076800070BD7047F07820008D242000E924200090
:1076900000000000010000000100000001000000E7
:1076A00000C0004000410D40000000000800000044
:1076B0002C00000000000001FFFFFFFF050000009C
:1076C00002000000020000000200000000D00040A4
:1076D00008410D4002000000080000002C000000DE
:1076E00002010200FFFFFFFF060000008B7920006F
:1076F0008F7920009E792000A27920003934200063
:10770000A1302000053120007B6B20005933200080
:10771000DD2E2000192F2000312F2000292E2000DF
:10772000552E2000412F20003532200091352000B9
:107730002933200007000000FF00000005000000C2
:10774000ED00000003000000D50000000100000073
:10775000C500000000000000B6000000FFFFFFFFB2
:10776000B0000000FDFFFFFFA1000000FBFFFFFFD6
:1077700091000000F9FFFFFF88000000F7FFFFFF06
:1077800072000000F5FFFFFF62000000F3FFFFFF43
:1077900058000000F1FFFFFF42000000E8FFFFFF7C
:1077A00000000000C9792000E56B2000DD6B20009F
:1077B000E16B2000DD792000216C2000196C200095
:1077C0001D6C2000D36E200037702000476E200013
:1077D0006F7A2000BF702000A5492000E9702000CA
:1077E000E77020005F71200055712000DD4B200004
:1077F00089712000CB722000C57220002772200002
:10780000807A2000E153200095522000E5512000AD
:10781000F1512000FD51200009522000857A2000FE
:10782000C155200061762000ED5920004557200009
:10783000CD562000955620005D762000BD5C2000CE
:10784000055D2000CD5C2000907A2000837620002A
:107850007D5D2000715D2000FC000020E400002020
:107860000C010020000000005D602000000000000E
:1078700071622000000000000000903D436F6E74B4
:10788000696B692D38643863323733005A6F6C6521
:10789000727469612052452D4D6F74652072657652
:1078A0006973696F6E204220706C6174666F726DCF
:1078B0000052696D6520636F6E66696775726564F5
:1078C0002077697468206164647265737320002591
:1078D0003032783A00253032780A00204E65743A0A
:1078E0002000204D41433A2000205244433A2000DA
:1078F000427574746F6E004343323533383A204911
:10790000443A2030782530346C782C207265762EFD
:107910003A20504725642E25642C20466C617368FC
:107920003A20256C75204B69422C205352414D3A28
:1079300020256C75204B69422C204145532F53481C
:10794000413A2025752C204543432F5253413A207C
:1079500025750A53797374656D20636C6F636B3A98
:1079600020256C7520487A0A492F4F20636C6F637D
:107970006B3A20256C7520487A0A5265736574202D
:1079800063617573653A2025730A00504F520045B4
:10799000787465726E616C2072657365740057440B
:1079A0005400434C44206F7220736F667477617289
:1079B0006520726573657400636332353338205215
:1079C0004620647269766572004F6E2D4368697057
:1079D0002054656D7065726174757265005644441B
:1079E00033002020202020202020202020202020A4
:1079F00020203030303030303030303030303030A7
:107A000030303031323334353637383941424344FF
:107A100045460030313233343536373839616263A8
:107A2000646566003078003058002B00286E756C55
:107A30006C290025004374696D65722070726F6354
:107A4000657373004576656E742074696D657200A8
:107A500053657269616C2064726976657200536562
:107A60006E736F7273000080C0E0F0F8FCFEFF528E
:107A7000696D650000001A1000001B101A1000004C
:107A800043534D4100436F6E74696B694D41430030
:107A90006E756C6C7365630070726F636573735F92
:107AA0007061636B65745F676174657761790066A7
:107AB0006F72776172645F6461746100696E666F92
:107AC000726D5F6E65696768626F720015060D08FA
:107AD0001C101A10000015060D081C101A100000CA
