:020000040020DA
:10200000603100208D2220002FB120002DB1200052
:102010002DB120002DB120002DB1200000000000C6
:1020200000000000000000000000000061C220006D
:102030002DB12000000000007FC220008DB12000E3
:102040009FB12000A5B12000ABB12000B1B12000AC
:102050000000000093B1200099B120002DB12000B4
:102060002DB1200000000000000000000000000072
:1020700000000000000000002DB120000000000062
:1020800000000000000000002DB120002DB1200054
:102090002DB120002DB120002DB120002DB1200048
:1020A0002DB120002DB120002DB120002DB1200038
:1020B0002DB120002DB120002DB120002DB1200028
:1020C0002DB120002DB120002DB120002DB1200018
:1020D0002DB1200000000000000000000000000002
:1020E00000000000000000000000000000000000F0
:1020F000000000000000000081382000913820001E
:1021000000000000000000000000000000000000CF
:1021100000000000000000000000000000000000BF
:1021200000000000000000000000000000000000AF
:10213000000000000000000000000000000000009F
:10214000000000000000000000000000000000008F
:10215000000000000000000000000000000000007F
:10216000000000000000000000000000000000006F
:10217000000000000000000000000000000000005F
:10218000000000000000000000000000000000004F
:10219000000000000000000000000000000000003F
:1021A000000000000000000000000000000000002F
:1021B000000000000000000000000000000000001F
:1021C000000000000000000000000000000000000F
:1021D00000000000000000000000000000000000FF
:1021E00000000000000000000000000000000000EF
:1021F00000000000000000000000000000000000DF
:1022000000000000000000000000000000000000CE
:1022100000000000000000000000000000000000BE
:1022200000000000000000000000000000000000AE
:10223000000000000000000000000000000000009E
:10224000000000000000000000000000000000008E
:10225000000000000000000000000000000000007E
:10226000000000000000000000000000000000006E
:102270002DB120006537200089372000FD2D20007A
:10228000F1392000F92820002DB1200008B5094BB4
:10229000FF221A600848094A4824E3690849121ACB
:1022A00098470848084AA3690021121A984700F085
:1022B0000DF8FEE7B4200D4040000020FD01002095
:1022C000C4CC2000000200205B290020F7B500F0FC
:1022D00073FC00F02DFD00F089FC00F06DFA01F0B8
:1022E00075FB09F013F800F01BFD00F0C7F80120A2
:1022F00008F020FF02F076F900F04AFC002000F020
:1023000055FB012000F052FB0020484900F02AFC58
:1023100002F0ACFA62B6042008F00CFF444808F062
:102320006BFF444808F068FF00F0E8F9002002F075
:1023300045FB01F03DFA4048002102F0DFF902F0D0
:1023400047F808F021FF00F07DFD00F099FD07F04F
:10235000A7FB6846082101F05FFB9DF807309DF858
:102360000670364C43EA07276B4603CB206061605A
:10237000334801F08BFB0025615D3248013501F0E7
:1023800085FB072D2D4EF7D12F4DF1792F4801F008
:102390007DFBEC6A4AF6CD310220A0473946032086
:1023A000A0471A210120A047694608226B6B0B2029
:1023B0009847274801F06AFB264B186808F01CFF75
:1023C000254801F063FB254B186808F015FF2448E9
:1023D00001F05CFB234B186808F00EFF224A3368BB
:1023E00013607368536007F075F82048002102F00D
:1023F00085F91F48002102F081F91E4B01219B68DD
:102400008120984708F058FF1B4808F044FF00F06F
:10241000C5FB022008F08EFE00F0C6FB02F0FAF8C1
:1024200010F0FF0FF8D101F069FAF5E72948200014
:1024300040CA200050CA2000680000205329002014
:1024400075CA200093CA20007CC9200099CA2000C8
:102450009FCA2000D4C92000A6CA2000ECC92000D1
:10246000ADCA200008CA2000381F00201801002033
:102470009800002094C8200038CA200008B500F059
:10248000DDF8024B00221A7008BD00BFC416002000
:10249000024A13781843107000F0F4B8C4160020F4
:1024A000034A137823EA0000107000F0EBB800BF75
:1024B000C416002020B1012805D1044B18787047BC
:1024C000034B186870470020704700BFC5160020F6
:1024D00020900D4010B5094A002013780133137085
:1024E000074B197802F0E2F8BDE81040054B0648AA
:1024F0001968064A002301F0A1BF00BFC5160020DD
:102500004A2900203802002010020020D524200093
:10251000812808B52AD0B0F5807F39D0802839D1FC
:1025200002F058F81C4B1D4A18701368002023F065
:102530000803136052F8203C032123F0080342F8FB
:10254000203C52F81C3C23F0080342F81C3C52F893
:10255000183C43F0080342F8183C042200F0F6FB54
:102560000F480021032200F093FB13E00D4B0E48AF
:102570001A6829B142F008021A600123036005E0DD
:1025800022F008021A600123C0F88030084608BD16
:10259000064B1960012008BD4A29002020940D40F7
:1025A000B125200010940D4000E100E03802002029
:1025B00008B50F4808F0BEFEC0B108210C4808F06D
:1025C000A7FE0C4B196861B10B4B00221A700B4B24
:1025D0000B481B681BB90B4A01F030FF01E001F00A
:1025E0006FFFBDE80840084802F0BCB908BD00BF55
:1025F0003002002038020020C516002020900D4037
:1026000010020020D524200094C82000084A136836
:1026100023F00403136052F8203C43F0040342F813
:10262000203C044B00221A60034B01221A707047B1
:1026300020C40D4010C00D40C61600200D4A0E49A2
:10264000136823F0C003136052F8203C43F0C0032A
:1026500042F8203C094B00221A600B6823F010035B
:102660000B6051F8203C43F0100341F8203C044B30
:102670001A60704720A40D4020C40D4000A30D40F7
:1026800040C00D4000F0020202F0FF010B4B12B1FE
:10269000FF221A6000E0196000F0040202F0FF015E
:1026A000074B12B1FF221A6000E0196010F0010020
:1026B000044B1ABFFF221A601860704700A20D4039
:1026C00000A10D4040C00D40044B1868C0F3072026
:1026D000030904BF1030C0B2704700BF1C300D406A
:1026E000054B1868C0F3C21001289ABFC0F1020060
:1026F00040034FF40040704714300D402DE9F0477F
:1027000088B0FFF7E1FF174B48251C68AB68074608
:1027100098476B68804698470646FFF7E1FF0546F5
:1027200000F09EFA824600F0A7FA814600F054FAC3
:10273000B60AC4F34003AD0A04F001040293069004
:10274000009601950394CDF810A0CDF81490414661
:10275000C7F3071207F00F03034801F097F908B019
:10276000BDE8F0871C300D40BBCA2000F8B500F072
:1027700081F80F4B0024D3E900673A46B04238BFD6
:102780007A1C15460443C3E90045DFF828E0DEE97A
:102790000001821B61EB070312196B41CEE9002394
:1027A00001F0B4FD18B1BDE8F84001F03FBDF8BD3F
:1027B00000020020080200200D4B0E4AE0215A6062
:1027C0000D4A82F82310002207219A6019600B49F4
:1027D0000B6843F001030B60094B1A60042243F8B5
:1027E0000C2C012243F8082C0F22DA62704700BF3C
:1027F00010E000E047E8010000ED00E008200D4097
:102800000C000340034BD3E90023100A40EA0360A5
:10281000704700BF00020020034BD3E90023D00B18
:1028200040EA4340704700BF08020020054B186093
:102830001C3B1A6842F001021A601A68D207FCD4E5
:10284000704700BF2800034010B5064C236823F0F2
:1028500001032360FFF78AFF236843F0010323602D
:1028600010BD00BF10E000E0014B1868704700BFCA
:102870003C020020074B084A196804331B681268A1
:10288000120442EA0323054A0B43106843EA00603E
:10289000704700BF40500D4048500D404C500D4017
:1028A00010B50446104B1B68DB07FBD572B6FFF76B
:1028B000E1FF231A062BD8BFC41D0C4B220E1A6051
:1028C000C4F3074243F8042CC4F3072243F8082C4E
:1028D000E2B243F80C2C62B6054B4FF400321C6098
:1028E000044B1A6110BD00BF50500D404C500D40BC
:1028F0003C02002000E100E008B500F0E5FF074BD6
:1029000000221A60064B4FF40032C3F89021C3F83E
:102910009020BDE8084001F027BF00BF3C02002026
:1029200000E100E0064B1B681B075FBF054B186802
:1029300080F00800C0F3C00048BF0020704700BF0F
:1029400018C0004018D00040164A38B52C2303FBAD
:1029500000234FF6BF72DC680546236C62649BB2AD
:1029600013F050020DD0A369DB0609D40E4B53F8C7
:1029700025301BB12068C0B29847F4E72368F2E71E
:1029800038BD13F4D06F0BD04FF440732363FF2393
:102990006360E36AE262E362236B43F00103236353
:1029A00038BD00BFA4C82000400200202DE9F04F30
:1029B000012885B0064600F2C3802C244443624BB4
:1029C0001D1995F920A005F12007BAF1000F9946CD
:1029D000C0F2B68095F92230002BC0F2B1805B487E
:1029E00000F0E4FF5A4A59F804301168EC680B43D0
:1029F000136051686B6895F921B00B43536091687F
:102A0000AB6895F822800B4393600023C4F8C83F5D
:102A10002B690BEBCA021A6095F823305FFA88FC29
:102A200001939DF80430604619462A7DCDF80CC00C
:102A3000029300F095F9029BDDF80CC01946604640
:102A4000082200F083F94FFA88F842494FEA083823
:102A50009DF9042058F80100012303FA02F2024311
:102A600048F801204FEA0A3A5AF8010003FA0BF23B
:102A700002434AF801205022A263A26B95F8240079
:102A800042F4D062A263022262634FF44072226376
:102A9000AA696262EA69A2627022E26242B2002A14
:102AA0000C4614DB95F925102B4D41EAC201296033
:102AB0007979120315594FB2BB402B4313510022B1
:102AC00000F044F9254A136843F4004313602C23B3
:102AD00003FB069393F8265020336FB2002F1CDBC4
:102AE00093F807A0EDB25FFA8AF828464146012222
:102AF0003F0300F035F94FFA8AFA3A59012303FAF5
:102B00000AF313433B5108222846414600F01EF9C0
:102B1000124A136843F4804313602C2303FB069688
:102B2000F268136B43F00103136396F82830012217
:102B3000590903F01F0302FA03F3094A42F821304E
:102B400005B0BDE8F08F00BFA4C8200025292000F3
:102B500028200D4020940D4004410D4030D000400D
:102B600000E100E001289CBF014B43F820107047B2
:102B700040020020012808D8044B2C2202FB003020
:102B8000C3689A699206FCD419607047A4C82000F3
:102B9000014B00221A60704700500D40014B082283
:102BA0001A60704700500D40024BA0221A6050225C
:102BB0001A60704700500D40014B024A9A607047FE
:102BC00000ED00E000202000024B1868C0F38150A7
:102BD000704700BF04200D4008B5FFF7F5FF024B1A
:102BE00053F8200008BD00BFFCC8200038B5164DC2
:102BF000164C2B68032023F040032B60236806212A
:102C000023F040032360012200F0A0F82B6801228A
:102C100023F080032B602368032023F080032360CC
:102C2000072100F093F80A4A0A4B1A600A4B0B4A34
:102C300019680A40002AF9D11A685101FCD41A68AF
:102C40005201FCD538BD00BF20C40D4000C40D406A
:102C50000101020000200D4004200D400000010190
:102C6000034B04481B6803F007031841704700BF7B
:102C700004200D400048E801034B04481B68C3F3DF
:102C800002231841704700BF04200D400048E801AE
:102C9000024B02EBC10243F82200704748020020B9
:102CA000F8B507460E46094D002405EB411547FAD5
:102CB00004F3DB07E1B204D555F824300BB13046FC
:102CC00098470134082CF2D1F8BD00BF480200201B
:102CD0002DE9F04780464FEA0837DFF8409007F1CA
:102CE000804505F5592500F0EFFDD5F8186457F833
:102CF00009404FEAC80A24FA0AF446EA0400E4B29A
:102D0000C0B24146F6B204FA0AF4FFF7C9FFC5F8AB
:102D10001C6447F80940BDE8F08700BF18970D40D4
:102D200002480021802208F0B3B900BF4802002009
:102D3000034A044B1A60044B803A1A60704700BF84
:102D400080400D40CC020020C8020020034B01EB64
:102D5000C0011B6843F82120704700BFCC0200204F
:102D6000034B01EBC0011B6843F82120704700BFF3
:102D7000C80200200E2870B50BD1164B164E1C68E9
:102D800044F002051D60356825F03F0343F0010360
:102D90003360124E336823F0FF031A43114301439B
:102DA00031600F4B1B681B06FBD50E4B0E4A1B6890
:102DB00012680E2803F0FC0343EA022308BF064A08
:102DC0009BB204BF1560034A9BB208BF146018B2DF
:102DD00070BD00BF34000144F486084008700D4007
:102DE00000700D400C700D4010700D40024B1868C3
:102DF000B0FA80F04009704700B7084010B5074BA3
:102E00004FF40042064CC3F89021C3F8902020688C
:102E100018B101F08BFC0023236010BD00E100E03D
:102E2000D0020020064A136843F00203136053687F
:102E300043F002035360936843F0020393607047CA
:102E400048200D4007B50C4800F0B0FDFFF7EAFF41
:102E50000A4B1A6842F002021A6000220192019A9B
:102E60000F2A02DC019A0132F8E71A6822F0020206
:102E70001A6003B05DF804FBED2D200054200D40D6
:102E8000064A136823F002031360536823F0020319
:102E90005360936823F002039360704748200D400D
:102EA000084B93F90020002A09DB074AED21116045
:102EB0001160E32111601A7862F07F021A7001201C
:102EC000704700BFCA160020388808400B4B1A68AC
:102ED0009207FBD41B685B065FBF094BED221A60AB
:102EE0001A60084B1B6813B1054BEF221A60064AA3
:102EF0000120137803F07F03137070474C8608405D
:102F0000388808402C860840CA16002038B5A0F141
:102F10000B04E3B20F2B054613D80B4B1B6813F0C1
:102F20003F0302D0FFF7D2FF012304EB8404074ADA
:102F30000B3414600BB1FFF7B3FF054BE8B21D7003
:102F400000E0FF2040B238BD488608403C8608407B
:102F5000FB01002010B50B4B1B68990603D1FFF74E
:102F60009FFF012300E00023074A1268D207FBD528
:102F7000064A1468C4F300140BB1FFF7A7FF2046FC
:102F800010BD00BF48860840648608404C86084053
:102F9000044B186800F02200A0F120035842584169
:102FA000704700BF4C860840024B186800F0400094
:102FB000704700BF4C86084038B50C46002900F029
:102FC0008880102800F28780DFE800F0090F1A1CC3
:102FD00023394253586F738585787A7C7F003F4B45
:102FE0001B68003318BF012370E03D4B05221B68AE
:102FF00003F07F030B3B93FBF2F30B33DBB265E093
:10300000384B00E0384B1A68043B1B6843EA022344
:103010005CE000230B60354B354A1B6803F001036D
:103020000B601268900644BF43F002030B60314B03
:103030001B78002B4BD00B6843F0040346E02E4B6B
:1030400000201B780860002B41D001230B6038BDA5
:103050002A4B1A680023D2B2294901EBC300007938
:10306000904202D851F8333030E001330E2BF3D1C7
:1030700028E0244B1B685BB2493B27E0224B1B68CE
:10308000990603D1FFF70CFF012300E000231F4A3C
:103090001268D207FBD51E4A1568493DEDB20BB147
:1030A000FFF714FF6DB2256011E01A4B93F9003061
:1030B0000CE0194B1B7803F07F0307E00B2305E0BE
:1030C0001A2303E06FF0170300E0072323600020BA
:1030D00038BD022038BD012038BD00BF2C86084015
:1030E0003C860840CC850840D485084000860840CE
:1030F00024860840C9160020FA01002040860840B6
:103100000CC920005886084048860840648608405C
:1031100060860840C8160020C716002038B505464E
:103120000C46134B1B689B07FBD4124B93F90030E2
:10313000002B01DBFFF7B4FE0F4BEE221A60691E75
:103140001A60A21C43F8102C2144022000F04AFB14
:10315000013C0A4924012143022000F055FB0220D2
:1031600000F05CFB022000F071FB002038BD00BFC6
:103170004C860840CA1600203888084002C001C0AA
:10318000F8B5214B93F90030002B0DDBFFF772FBF4
:103190000446FFF785FEFFF76DFB6FF009031B1B6D
:1031A000C342F8D4012600E00026184B1B7823B94F
:1031B000174D2B68990604D405E0FFF7CBFE0028D5
:1031C000F6D10220F8BD134CE923236004272B68B5
:1031D0009A0707D4013F17F0FF0703D00620FFF737
:1031E00025FBF4E72B689B0704D4EE2323602360C0
:1031F000012403E02C6814F00204FBD10EB1FFF7A8
:1032000065FE2046F8BD00BFCA160020FA01002066
:103210004C86084038880840044B1A6810B142F0C8
:10322000010201E022F001021A60704700860840A6
:103230000B280DD1082A0DD161B1074B083111F8C7
:10324000012D43F8042F054A9342F8D1002070471E
:103250000120704702207047A4850840C4850840BB
:1032600070B5304E336813F0400308D02E4D2B68F4
:10327000DCB21B0605D52D4BED221A601A6000202A
:1032800070BD042CF7D9023C8C42F4DCE4B2032C70
:1032900021D001190139032000F0ACFA631E244942
:1032A0001B010320194300F0AFFA032000F0B6FA27
:1032B000032000F0CBFA032000F0D4FA0028FAD162
:1032C00029681C4B4939C9B219702B681A4D180668
:1032D0002B70D0D506E02B6803702B6843702B68E9
:1032E0008370EDE749B289B2042006F0AFFB29787C
:1032F000032001F07F0106F0A9FB104B1B7873B986
:1033000033685A060BD5074B1B681B0603D50C48C0
:1033100001F00CFA03E0054BED221A601A6020461A
:1033200070BD00BF4C860840288808403888084097
:1033300002C0010CC8160020C7160020C9160020C4
:10334000500000200B282DE9F84F8A4611D1082A99
:1033500040F0828000297FD0414B01F1FF3A53F8C1
:10336000042D0AF8012F3F4A9342F8D10020BDE80E
:10337000F88F0C286DD1042A6ED100296CD03A49FF
:103380003A480B68DFF8EC9023F007030B60036802
:10339000DFF8E4B043F008030360DBF80040D9F83D
:1033A00000200B68DFF8D4C0DFF8D48023F070036E
:1033B0000B60D8F80050DCF80030E4B2120244EAA6
:1033C000036392B2DFF8BCE01A43EBB242EA034374
:1033D0000024DEF8002044EA03060B68D5B223F08F
:1033E000070343F001030B6003682F4643F0080313
:1033F0000360DBF80000D9F800200B68120223F00C
:10340000700343F010030B60D8F80050DCF8003074
:10341000C1B241EA036392B21A43EBB242EA0343F8
:10342000DEF8002044EA03085FFA82F9FFF722FA87
:10343000B6EB080667EB0907F903054641EA564172
:10344000F0030B4A002307F03FFA281ACAF80000DD
:103450008CE70120BDE8F88F0220BDE8F88F00BF9F
:10346000C8850840A885084010880840048808409E
:103470000048E8011888084014880840208808405F
:10348000248808401C880840214B1870002834D03C
:10349000204B1B681B03FBD51F4B1A6842F002022E
:1034A0001A601A6842F001021A601A681A49500735
:1034B000FBD50A6822F001020A601968164A49071A
:1034C000FBD4116841F002011160116841F0010163
:1034D00011601A685207FCD5104A136823F00403E0
:1034E0001360D2F8A83123F00403C2F8A8310C4BC2
:1034F0004FF40052C3F890207047084A136843F015
:1035000004031360064B4FF400521A61704700BF6A
:10351000C916002004200D40048808408C8608400D
:1035200000E100E010B50C4607285CD8DFE800F0A9
:10353000040F1B1F263C4256012903D1FFF7B0FCA4
:10354000002010BD002950D1FFF7C0FCF8E7A1F121
:103550000B030F2B49D8C8B2FFF7D8FC431C0CBF94
:103560000320002010BD8CB2E2B2214B02E08CB2ED
:10357000204BE2B2240A1A605C60E1E731F00703F5
:1035800033D101F00100FFF747FE1B4B14F0020F8F
:103590001A68C4F3800014BF42F0200222F0200217
:1035A0001A60FFF771FFCBE731F001001DD1134B1B
:1035B000197010BD01F118031F2B16D80D231049E7
:1035C000DA0051F83300844204DC8B181A790D4B71
:1035D0001A60B5E713F1FF33F1D2B1E7CCB20A4B71
:1035E00049341C60ACE7012010BD022010BD00BFB3
:1035F000C8850840D085084024860840FA0100208C
:103600000CC920004086084058860840F8B5294F6C
:103610003D7815F001054BD1274B01241C605C60FF
:103620009C60A3F59323A3F51473F8221A60092272
:10363000C3F89021152270331A6003F59B230B22E7
:1036400003F59E731A60A3F59B23A3F5F073402244
:103650001A601A687F2642F020021A60D52243F8C9
:103660001C5CDE62DA61154B1878FFF74FFC144BD7
:103670004FF480421E60134B02201A6100F0DAF80A
:103680001149022000F0B6F8032000F0D3F80E49EB
:10369000032000F0A7F80D4B1878FFF7F5FE0C4853
:1036A000294601F02BF83B78204623433B70F8BDB8
:1036B0000020F8BDCA160020A8200D40FB01002004
:1036C0009486084000E100E028880840C9160020E0
:1036D0005000002038B503880446CBB140F20342C5
:1036E000934203D000230380032038BD194B187880
:1036F0001A4628B11B7873B1174B1B7858060AD5A8
:10370000822908D1137843B1134B1A78520614D486
:1037100040F203432380012038BD06F03DF906F056
:10372000D1F88021FFF79CFD0028EDDD80B206F086
:10373000ADF80A4B1B699847E6E700221A70084B60
:103740001D68FFF7C3FBFFF761FFAB06E0D0FFF793
:10375000A7FBDDE7C9160020CA16002008CA200012
:103760004886084008B5054B1B7813B9044800F09B
:10377000DDFF044B00221A6008BD00BFC9160020FF
:103780005000002034880840064B07481A68042A75
:103790001FBF06490A7842F040020A7000221A60F0
:1037A00000F0C4BF2C88084050000020CA1600203A
:1037B00010B5094C40222046002107F069FC074B58
:1037C00001221A605C60064B4FF480425A604FF44D
:1037D00000425A6010BD00BF0000002004F00F40FE
:1037E00000E100E003289EBF014B00011950704723
:1037F0000000002003289EBF024B03EB0010416035
:10380000704700BF0000002003289EBF024B03EB5F
:1038100000108160704700BF0000002003289FBF98
:10382000034901230A6883409CBF13430B60704720
:1038300028F00F4003289FBF034901230A688340F3
:103840009CBF13430B60704720F00F4003289FBFBD
:10385000034901230A6883409CBF13430B607047F0
:1038600014F00F4003289FBF044B03EB0010806847
:1038700000F0070088BF0020704700BF0000002054
:10388000024B4FF0FF321A60704700BF04F50F4043
:10389000014B01221A6070474CF00F40094B1A6827
:1038A00012F4801F1A46F9D1043B196821F48031C3
:1038B00019601168C903FCD41A6842F400321A6016
:1038C000704700BF04200D4010B50A4B1A681C4613
:1038D00012F0030F0CD0084B1A685101FBD41A6880
:1038E0005201FCD5FEF7B0FFFFF7D8FF002323609D
:1038F00010BD00BF58200D4004200D4038B5254BA9
:103900001C6814F03F0413D1234B53F8243023B127
:10391000984768B10134052CF6D1204D2B783BB186
:10392000FEF7A2FF0446FEF7A5FF201A092801D8DA
:1039300030BF38BD002CFBD0194B1A6822F400327E
:103940001A60184A1168C902FBD4196841F4803121
:1039500019601368DB03FCD5FEF78CFF201A0928D9
:1039600003D8BDE83840FFF799BF63280E4C02D951
:103970002B78022B00D00123236000F08DFE20B1B4
:10398000FFF78CFF0023236038BDFEF76DFF002892
:10399000CED1F5E748860840D4020020CB1600209F
:1039A00000200D4004200D4058200D400023064A01
:1039B00052F82310814206D011B942F82300704713
:1039C0000133052BF3D17047D4020020054B0022B0
:1039D00005491A600B6943F004030B61034B1A702D
:1039E000704700BF58200D4000ED00E0CB160020CE
:1039F00010B5074B4FF48032064CC3F89021C3F842
:103A00009020206818B100F091FE0023236010BDC3
:103A100000E100E0E802002030B5184B1A78431EA0
:103A20003AB9174A1278122A03D1164A12784B2A49
:103A300003D001F52011273117E04A0802F12814BC
:103A4000B4F1281F04D014F8015D03F8015FF7E713
:103A500001F5201127310023934205DA11F80159AD
:103A60008418E5540133F7E730BD074A914204D08A
:103A700011F8012903F8012FF7E730BD2B002800CA
:103A80002A00280029002800270028000FB407B5C5
:103A900004AA52F8041B0448019200F021F803B074
:103AA0005DF804EB04B070476000002070B5054677
:103AB0000C46102C07D92B686868084910229847D3
:103AC00050B9103CF5E734B12B6868682246BDE870
:103AD000704002491847204670BD00BFEBCB200064
:103AE0002DE9F04F80468FB0069107920026069B85
:103AF0001B78002B00F05F83069B1C4613F8012BFC
:103B00001AB9069B9C4203D10FE0252AF5D1F8E7AC
:103B1000069BD8F80400E51A0699D8F800302A4622
:103B20009847002840F02A832E442378002B00F089
:103B300042836378611C002B00F03D8300240A4619
:103B400011F8013B2B2B11D006D8202B11D0232BA1
:103B500012D144F00804F2E72D2B04D0302B0BD106
:103B600044F01004EBE744F00104E8E744F00604F5
:103B7000E5E744F00204E2E7A3F1310108290DD89A
:103B8000134600251A4613F8011BA1F1300009283D
:103B900011D80A2202FB0515303DF3E72A2B09D183
:103BA000079B01321D68191D002D0791B8BF44F015
:103BB000010400E0002513782E2B1CD15178531CF2
:103BC000A1F1300009280ED8194600270A780B46C3
:103BD000A2F13000092801F101010FD80A2303FBEB
:103BE0000727303FF2E72A2906D1931C079A111DB7
:103BF0000791176802E013464FF0FF371A786C2AD6
:103C000009D15A786C2A02D144F080040AE00133C9
:103C100044F060040BE0682A09D15A78682A03D17D
:103C200044F02004023302E0013344F040041A78E7
:103C3000642A3CD01FD8462A48D00DD8252A5AD00D
:103C400003D8002A00F0B78257E0412A4AD0452A1B
:103C500053D144F4424450E0582A31D004D8472A82
:103C60004BD144F4A13448E0612A38D0632A44D1CE
:103C700044F4A06441E06E2A3AD007D8662A22D0E4
:103C800027D3672A28D0692A11D036E0732A2CD08E
:103C900006D86F2A11D0702A2FD144F440742CE03A
:103CA000752A07D0782A28D144F4C85425E044F472
:103CB000245422E044F410641FE044F488541CE0CF
:103CC00044F4B24419E044F4007416E044F484442B
:103CD00013E044F4024410E044F481340DE044F471
:103CE000C1340AE044F4E13407E044F4806404E0C1
:103CF00044F4E06401E044F4C0640133069304F446
:103D0000E063B3F5806F00F0AA8116D8B3F5807F29
:103D10002BD0B3F5407F7FF4EAAE079BA04914F4A3
:103D2000804F03F104029F4818BF08460DF133018C
:103D300007920F461A680023C5E1B3F5C06F08D09B
:103D4000B3F5E06F00F03182B3F5A06F7FF4CFAE32
:103D500000E2D8F80030D8F80400934901229847CF
:103D6000002840F00B820136C1E6002FACBF24F0E2
:103D70001004012714F40053039304F0E00337D038
:103D8000402B17D008D8DBB1202B2AD1079B1A1D56
:103D9000079293F9002017E0602B11D0802B20D1DF
:103DA000079B073323F0070303F108020792D3E9C7
:103DB00000230AE0079B1A1D0792B3F9002003E0D5
:103DC000079B1A1D07921A68D317002A73F1000186
:103DD00009DA524263EB4303CDE900234FF00109B6
:103DE00033E000220023CDE900234FF000092CE04E
:103DF000402B16D007D8CBB1202B20D1079B1A1D02
:103E000007921A78EEE7602B10D0802B17D1079B12
:103E1000073323F0070303F108020792D3E90023D5
:103E2000E1E7079B1A1D07921A88DBE7079B002131
:103E30001A1D07921B681846CDE90001D5E700223C
:103E40000023CDE900234FF0000904F4C053B3F57B
:103E5000805F0CD0B3F5C05F33D0B3F5006F4FD1A6
:103E6000DDE900230DF1360ACDE9042304E0DDE9A4
:103E700000230DF1360A15E0DDE9042313433AD09F
:103E8000DDE904010A22002306F01EFDDDE904013C
:103E900030320AF8012D00230A2206F015FDCDE983
:103EA0000401E9E752EA030125D002F007013031AD
:103EB0000AF8011DD10841EA4371D8080A460346B1
:103EC000F0E7384B14F4804F0DF1360A344908BF3F
:103ED0001946DDE9002352EA03000CD002F00F007E
:103EE000085C4FEA131E0AF8010D100940EA03703E
:103EF00002467346EFE70DF1360BCAEB0B0B03E0FE
:103F00000DF1360A4FF0000B41F6080241F20803AA
:103F10005F4502EA04028CBFCBEB070700279A42F9
:103F200002D1002F08BF012741F608018A4207EBA2
:103F30000B030DD1DDE9000150EA010208D01B4955
:103F400014F4804F1A4A4FF0020C18BF0A4602E0E0
:103F50004FF0000C62460399A1B1B9F1000F0AD1EC
:103F600004F0060102290AD00629124904BF4FF0C5
:103F7000010C0A4606E04FF0010C0F4A02E00F4A1E
:103F80004FF0010C63449D428CBFED1A002514F0E4
:103F9000010922D1E30613D52F444D461DE000BF91
:103FA000B6CB2000C7CB2000E9CB2000DBCB200024
:103FB000D8CB2000E0CB2000DECB2000ABCA200015
:103FC00040462946CDF80CC00092FFF76FFD009ADD
:103FD000DDF80CC0002840F0D180BCF1000F0DD0FE
:103FE0001146D8F800306246D8F80400CDF800C079
:103FF0009847DDF800C0002840F0C0803C465E4491
:10400000102CD8F800300DD9D8F804006C491022D3
:10401000CDF800C09847002840F0B080103CDDF893
:1040200000C0EDE75CB1D8F8040065492246CDF840
:1040300000C09847DDF800C0002840F09F80D8F805
:104040000030D8F8040051465A4666449847002884
:1040500040F094803E44B9F1000F79D073E0079BA3
:10406000D3F800A01A1D0792BAF1000F09D05346E9
:10407000994699F800200133002AF9D1CAEB0909C1
:1040800003E0DFF840A14FF00609002F02DBB9453D
:1040900028BFB9464D458CBFC9EB0505002514F076
:1040A000010405D140462946FFF700FD002865D1EF
:1040B000D8F80030D8F8040051464A4698470028FE
:1040C0005CD14E443EE052EA030E0ED002F00F0ED9
:1040D00010F80EE04FEA131C01F801ED4FEA121E32
:1040E0004EEA037E72466346EDE70B467F1A01BF38
:1040F0003022012701F1FF3301F8012C0337782228
:10410000BD4203F8012C4FF0300203F8022C88BFA7
:10411000ED1B4FF0230298BF002514F00104A3F11A
:10412000030903F8032C04D140462946FFF7BEFCDF
:1041300020BBD8F80030D8F8040049463A469847E2
:10414000E0B93E4424B140462946FFF7AFFCA8B988
:104150002E44CCE4079B012D03F104021B688CBFA5
:1041600005F1FF35002514F0010407928DF8203089
:1041700008D140462946FFF799FC10B14FF0FF30B7
:104180001AE02E44D8F80030D8F8040008A901221B
:1041900098470028F2D16F1C2CB140462946FFF702
:1041A00085FC0028EAD13E44A1E4079B1A1D1B6848
:1041B00007921E609BE430460FB0BDE8F08F00BF51
:1041C000A6CB2000E2CB200010B50446FEF724FB6E
:1041D00094E80C001344C01A024B98428CBF002094
:1041E000012010BDFEFFFF7F10B50E4C236813B9F0
:1041F0000D4A136010BDFEF705FB216891E80C0025
:104200001A44131A8A6842B192E812002144091A2A
:104210008B4228BF0B469268F5E71844024B1860A2
:1042200010BD00BFEC020020F0020020014800F0A9
:104230007DBA00BF68000020F8B5038805462BB1A1
:10424000592B09D0002303800320F8BD1E4A1360B8
:1042500059232B800120F8BD872920D08229F7D14E
:10426000194F00263C68002CF2D0204607F062F877
:1042700090B1E0688821224600F018FA50B9E06059
:10428000A3680EB1B36000E03B600023A360FFF7BA
:10429000ABFFE5E7FFF7CAFF2646A468E3E70A4954
:1042A0000B680BB90B60D3E7D868904201D19B68CB
:1042B000F7E70B6099680029CAD0C86890420ABF26
:1042C00089680B469960F5E7EC02002010B50446BA
:1042D000FFF7ACFFE3680B4A4BB113683BB1A34255
:1042E00003D1094A1268DA6007E09B68F6E7064BDB
:1042F0001B68E36013681460A360BDE81040FFF71B
:1043000073BF00BFEC020020F8020020024B1868C7
:10431000003018BF01207047EC02002010B50B4A96
:1043200004461368984206D18368136008E09A68CF
:10433000A24203D01346002BF9D103E0A2689A6091
:10434000FFF752FF0023A360E36010BDEC020020E2
:10435000F8B50388064615462BB14A2B15D0002325
:1043600003800320F8BD174806F0F5FF04462CB182
:10437000201DA16806F0A1FF2468F8E7124B012276
:104380001A704A2333800120F8BD8829FBD10D48DB
:1043900006F0E1FF0446002CF3D0231D9D420ED110
:1043A0000848214606F0E1FF084B62691F681A6061
:1043B000A2691D460AB1E06990472F60E1E72468D1
:1043C000E9E700BFF4020020CC160020F80200202C
:1043D00010B5064B002406481C7006F0B9FF2146B4
:1043E000BDE81040034800F089B900BFCC1600209A
:1043F000F40200207800002070B50446E3610B4B06
:10440000049D1B786561A26143B1094D094B2E687B
:10441000201D2B6006F051FF2E6000E0A1602146B8
:10442000BDE87040044806F0B4BF00BFCC160020C1
:10443000F802002078000020F402002013B5034C9D
:1044400024680094FFF7D8FF02B010BDF8020020E6
:1044500070B5094B05461B783BB1084C084B2668E4
:104460000430236006F032FF26602946BDE8704024
:10447000044806F08EBF00BFCC160020F8020020D2
:1044800078000020F402002070B5094B05461B7827
:104490003BB1084C084B26680430236006F01FFF30
:1044A00026602946BDE87040044806F072BF00BF90
:1044B000CC160020F802002078000020F402002032
:1044C00010B5084B04461B781BB10430FFF726FFDC
:1044D00001E0C36003612146BDE81040024806F0D8
:1044E00044BF00BFCC160020F402002038B583681A
:1044F00004460D469BB10A4804600220A07304F1F3
:104500000C0098470238012801D9832D05D1204697
:104510002146BDE8384000F005B80123A37338BD3B
:10452000F80200202DE9F8431C4A04461568894624
:104530002B4690461A4E3768A34204D00BB11B6835
:10454000FAE7BDE8F88334B3A37BABB10023A373D0
:1045500045B1AC4204D028468721224606F0D0FE61
:104560002D68F5E7A3683BB14C4505D0346004F1F4
:104570000C0083212A469847D8F800309C4203D18A
:104580002268064B05E0134623B11A68A242FAD10D
:1045900022681A603760BDE8F88300BFFC02002083
:1045A000F802002010B5094B00221A70084B1C6855
:1045B0005CB1E37B3BB101230022A373E27320468D
:1045C0008221FFF793FF2468F2E710BDCF16002089
:1045D000FC020020024B1878421C1A70704700BF82
:1045E000D0160020064B8A221A70064A0023137048
:1045F000054A1370054A1360054A1360704700BFEF
:10460000D0160020CD160020CE160020FC0200207F
:10461000F80200202DE9F0411A4D2B780BB1FFF77D
:10462000C1FF194C22783AB3184E0C213378184F39
:104630005943781817F8018001334768806803F000
:104640001F03013A3370227068B9124B1E689EB185
:104650002B780BB1FFF7A6FF304641463A4606F0ED
:104660004FFE3668F3E7B8F1810F04BF012383736F
:1046700041463A4606F044FE2B7820781844BDE8BF
:10468000F08100BFCF160020CE160020CD160020EE
:1046900000030020FC020020024A034B10781B7824
:1046A00018447047CE160020CF160020F0B50B4EF0
:1046B0003378202B0FD00A4C0C252478094F1C444A
:1046C00004F01F046C4301333D19A86039556A603A
:1046D00033700020F0BD0120F0BD00BFCE160020D9
:1046E000CD1600200003002038B5034C256806F0E5
:1046F00007FE256038BD00BFF802002010B50A464D
:1047000009490C68234683420DD00BB11B68FAE7B8
:1047100048B1046008600121817383818121BDE873
:104720001040FFF7E1BF10BDFC02002038B1837BD1
:10473000013B012B9FBF024A0123C37313707047D3
:10474000CF160020024610B5064853600468029B4D
:1047500011609360026014B90846FEF7A1F80020CA
:1047600010BD00BF8004002010B5084C206858B16F
:1047700000232360816843689847236823B1BDE81C
:1047800010401868FEF78CB810BD00BF80040020F0
:1047900038B505880446672D09D0792D2ED0002D17
:1047A00032D1FFF717FF1B4B18701B4B1D601B48C6
:1047B00006F082FE431C01D167231DE00A28164B38
:1047C00007D01A687E2AF2DC511C1960144B9854E9
:1047D000EDE7196800254A1C1A60114A0D4B555423
:1047E00028461978FFF762FF0E4B852118682A4684
:1047F000FFF75CFF20B97923238009E0852907D1E1
:10480000054B00221A60D2E700230380032038BD45
:10481000012038BD4F2900208C0400208404002092
:1048200052170020F80200200D2810B5014615D0BF
:104830000B4C23782BB90B4806F02AFE48B901230C
:1048400006E00A2805D1074806F022FE08B1002339
:1048500023700548FFF76AFF012010BD002010BD3E
:1048600051170020840400208800002008B5054866
:104870000549802206F005FEBDE8084003480021F6
:10488000FFF73CBF84040020D116002088000020E0
:1048900070B505880446772D30D07E2D3FD0002D91
:1048A0004DD1FFF797FE294B1870294B1D601D460F
:1048B0002B68284A264E52F823204AB12648002168
:1048C000C154936880209847336801333360EFE721
:1048D000224A1370772320E01F4AD256002A12DBA7
:1048E0001B4A136801331360194B1C4A1B6812786A
:1048F0009342F1DB1A4B1B68002BEBD0184A0023C4
:104900001360134AEFE7114A00201178114A52F858
:104910002320FFF7CBFE30B97E23238013E00B4B1F
:104920001B788B420FD10A4B0B491A688B5C03F042
:104930007F038B540A4A136801331360D0E70023C6
:104940000380032070BD012070BD00BF50290020EE
:1049500094040020400000204B290020D2170020A2
:1049600090040020094B1A780023934204DA084986
:1049700051F82310814207D106490748CA5C62F00A
:104980007F02CA54FFF7D2BE0133EEE7D2170020F0
:10499000400000204B29002098000020054A1368A1
:1049A00043F004031360044B1B68906943EA002042
:1049B00080B2704700700D4014700D40174A1368A4
:1049C00023F00C031360164B01221A601A68012AA7
:1049D000FCD1144B08221A60E322C3F8142203F519
:1049E00005731946104B1B68DB07FBD5102000230D
:1049F0000E4A0138126802F0010243EA02034FEA4C
:104A000043039BB2F4D1002BF0D0094A180A03F0FB
:104A1000FE0310601360EF230B60704700700D40C1
:104A2000A8200D4024860840648608409C860840E3
:104A300014700D402DE9FF411F4C204D04F1080377
:104A40000FCB8DE80F0029786F4694F80780A1B14D
:104A50003A23A3711A4B1A88521A92B21A80A2F101
:104A6000280318122C312071214404F12C002C3A17
:104A7000637106F0A9FA00232B70124806F06BFC54
:104A8000064690B1D6F804C0BCF1000F09D00C4B1B
:104A90002A781B8838322C3B3846414622449BB248
:104AA000E047304606F094FCEAE7054B2870188092
:104AB00004B0BDE8F08100BF401F0020F5170020C2
:104AC0002C1F002098040020F8B52A4B2A4C1B7993
:104AD00004F11806E371237E04F10805FF2B08D1C9
:104AE00095E80F0086E80F002846314600F0BEFA30
:104AF0001BE02F46B646214A3B4603CB7345106068
:104B000051601F4602F10802F6D196E80F0085E8D1
:104B10000F001A4B1A4D03F110062A4618685968FF
:104B2000083303C2B3421546F7D1164D297899B11F
:104B30003A23A371144B1A88521A92B21A80A2F126
:104B4000280318122C3120716371104821442C3A2B
:104B500006F03AFA00232B702B7881222833E518CF
:104B6000E25400236B706B8006F026FDC043688022
:104B7000F8BD00BFC01D0020401F0020F40F002022
:104B8000581F0020F51700202C1F00206C1F00204C
:104B900038B504460B480D4606F0DDFB78B10379C5
:104BA000A34209D14379AB4204D183683BB1984712
:104BB000002038BDFF2BF8D006F00AFCEEE70120FC
:104BC00038BD00BF9C0400200146014806F0E1BB4F
:104BD0009C0400202DE9F74F484D81462B788846EC
:104BE0009246474C43B12833E35C3A2B0BD1454AFC
:104BF000002313802B707EE0A3793A2B03D194F924
:104C00002830002BF3DA03F087FC3F4E3F4AB446CE
:104C1000934606F1100E334603CB73451060516086
:104C20001E4602F10802F6D1364E2F78338804EB87
:104C3000470030339BB2B3F5A06F88BF4FF4A06339
:104C4000338032882E4BD21B1946303A3030CDF8A3
:104C500004C0009306F0B8F99DE8081060222270A5
:104C60000022627062803A2217B183F8282000E0A7
:104C70009A71274A224B1279E271228972B95A89B4
:104C800062B99A8952B9DA8942B91A8A32B95A8A0A
:104C900022B99A8A12B9DB8A002BA8D01D4B0FCB00
:104CA0008CE80F009BF80030FF2B05D1B9F1040F01
:104CB0009DD1B8F1020F9AD11449164800F0D6F9E7
:104CC0002F78504607F12803E21804F8039082F881
:104CD000018006F07AFC33882C37283BE0511A1209
:104CE00063712B78227128331C440023638006F003
:104CF00063FCC043608003B0BDE8F08FF51700206F
:104D0000401F00202C1F0020581F0020F40F0020FF
:104D1000C01D0020481F00202DE9F0411E460F460F
:104D20001B4905460C4660230B7000234B704B80DB
:104D30003A238B71174B90461B7900F1100ECB7103
:104D4000331D1A120A714B7101F1180213462868BB
:104D50006968083503C375451A46F7D10E482C36E5
:104D600000F1100100F082F90C4B1B782833E51894
:104D7000E75400236B8085F8018006F01DFCC043DA
:104D8000074B68801E80BDE8F04102F091BE00BF75
:104D9000401F0020C01D0020481F0020F5170020E4
:104DA0002C1F002008B50448FFF70EFFBDE808409F
:104DB0000248FFF709BF00BFA8000020B400002090
:104DC0002DE9F3410446154D00910E4690461F46CD
:104DD0000195234612480321202206F07DFB01287D
:104DE0002B4616D12A6804F11001107020462A685B
:104DF000023250F8044B884242F8044BF9D118684B
:104E0000089B86744361099B80F813800777836150
:104E100000E0002002B0BDE8F08100BFA404002043
:104E2000BC1E002070B506460B4D0C4B2B602C6849
:104E30000B4B9C420BD2237833B1A27CA01C314691
:104E4000D20806F019F820B120342C60EFE70020DA
:104E500070BD012070BD00BFA4040020BC1E002056
:104E60001C1F002013B5084C8022034600920194B9
:104E700006480321202206F02FFB08B9206800E035
:104E8000002002B010BD00BFA8040020D81D0020E3
:104E900010B50C4A0C4B136013680C498B420DD2B1
:104EA000197849B1411C02D0997C814204D148F261
:104EB000FE015C888C4202D02033ECE700231846C8
:104EC00010BD00BFA8040020D81D0020381E0020FF
:104ED00037B504460F4D80230093019523460E48B5
:104EE0000521122206F0F8FA01282B460ED12A6875
:104EF00004F11001107020462A68023250F8044B69
:104F0000884242F8044BF9D1186800E0002003B051
:104F100030BD00BFA00400205C1E0020F7B5054690
:104F2000204C802300930E46174601941E4803210F
:104F300020222B4606F0D0FA012830D12A462368D9
:104F400005F1100118702368023352F8040B8A42ED
:104F500043F8040BF9D12068C77416B9012303750F
:104F600005E0002303753146183006F09EF92368EA
:104F70000E480121997402234370FF22002302701E
:104F800043808380C38003818372C17202736B7B11
:104F90004373EB89C381FFF79BFF206800E000208B
:104FA00003B0F0BDA8040020D81D0020041000208C
:104FB00013B5084C8022034600920194064805214F
:104FC000122206F089FA08B9206800E0002002B039
:104FD00010BD00BFA00400205C1E002038B50546AF
:104FE000C8B10D48022200244270FF230122C27280
:104FF00044808480C4800481847203730370EB7BDB
:1050000043732B8AC381FFF7D3FF044A106008B1B2
:1050100006F086FA2C7038BD04100020A004002091
:1050200010B50E4B0E4C236020680E4B98420ED2EA
:1050300003784BB1037D3BB91830FFF7C5F818B1C1
:10504000074B1868FFF7CAFF23682033EBE700F02F
:10505000E9FABDE81040044806F038B9D81D002030
:10506000A8040020381E00201C1F00202DE9F84352
:1050700048F2FE030A8805469A42884621D00B78FA
:10508000FF2B1ED01B4B0024A1461F461A4A1A6054
:105090003E681A4A964218D233787BB1B37C012B12
:1050A0000CD148F2FE0372889A4207D04046B11CE8
:1050B00006F043FA484524BF3446814620363E6018
:1050C000E6E70120FFF7E4FE04464CB92C806C8033
:1050D000AC80EC802C816C81AC81EC81BDE8F883E4
:1050E000A31C123453F8042BA34245F8042BF9D126
:1050F000BDE8F883A8040020D81D0020381E002039
:1051000010B5FFF74BFC0446FFF748FC054B2402A3
:105110009A68A4B22044B0FBF2F302FB130000EB48
:10512000520010BDC01D002073B52F4C01F076FA5F
:1051300000F08EF8002160222C4805F0A9FF002124
:105140002046F82205F0A4FF294B20221A70294B93
:1051500018221A704FF4A0632360274B4026267153
:10516000A360FFF7CDFF42F21073236148F2FE0304
:10517000314640F2FF260025E06025751F4C2A4687
:10518000238065802B46A580E5802046009501950B
:10519000FFF716FE20461A4906F0C6F929460122F5
:1051A0002046FFF7BBFE4FF480732046E381268044
:1051B0006580A580E58025816581A581FFF788FE52
:1051C0004FF40073204626806580A580E580258108
:1051D0006581A581E381FFF77BFE0A480C2102B0BF
:1051E000BDE8704006F069B8C01D0020BC1E00205C
:1051F000B91E0020B81E0020C0270900041000209E
:10520000381F00201C1F00202DE9F04105460D48E5
:105210000F46904606F09FF8044688B1012D04D849
:10522000094806F0CEF8034601E0084B1B68284603
:10523000666839464246B047204606F0C9F8EBE7B3
:10524000BDE8F08178080020F0040020EC04002084
:1052500008B50B4806F0BFF80A4806F079F80A4B83
:105260000A49186804F01AFA094806F0B4F809481F
:1052700006F06EF8BDE80840074806F069B800BFC0
:10528000E000002074050020DC0000207DB5200037
:10529000C0000020F00400207808002008B5034674
:1052A00040B1054A5968106807F074F8BDE8084035
:1052B00006F095B908BD00BFDC000020014806F0EB
:1052C0004AB800BF7405002008B506F08AF9014607
:1052D00038B1044B186807F044F8003018BF0120BB
:1052E00008BD08BDDC0000202DE9F0418046FFF735
:1052F000E5FF0026044637469CB194F82450B54299
:105300000AD3404604F10801EA0805F0B5FD18B9D2
:10531000802D08D02E462746204606F02BF904465D
:10532000EAE73C4667B1084806F015F8844207D022
:105330000548214606F019F80348214606F038F8DA
:105340002046BDE8F08100BF7405002038B5044652
:1053500000283ED04368002B3BD01E48214606F073
:1053600004F86368586805F0F6FF054630B14368F5
:10537000A34207D0284606F02BF8F6E704F1080010
:1053800002F004FB63682946586805F0EEFF636885
:10539000586805F0E0FF28B963680F4A596810683B
:1053A00004F034FA21460D4806F039F829460C4835
:1053B00006F035F80B4A20461368013B1360FFF7EF
:1053C0006DFF04F108010246BDE838400320FFF7F5
:1053D0001BBF38BD74050020DC000020E000002069
:1053E000EC000020EC04002010B5044680B14068B9
:1053F00070B105F0B0FF20B14068FFF7A7FF60680B
:10540000F7E7044B2146BDE81040186804F0FEB9E8
:1054100010BD00BFDC0000202DE9F84F0746104604
:105420008946904606F0DDF8834610B90020BDE8B5
:10543000F88F3846FFF758FF044660B1FFF72EFF9C
:10544000014628B14046102205F016FD002859D02B
:105450002046FFF77BFF2D4B1A689A46102AE5D0AD
:105460002B4E5946306806F07CFF054668B92B463E
:1054700030685946042204F03FF905460028D5D08B
:1054800000236860036005F063FF224805F0B3FF66
:1054900004460028CAD02048214605F089FF1F484D
:1054A00005F0A9FF834620B921461A4805F0B7FF49
:1054B000BCE744606868594605F06BFFDAF80030D5
:1054C0006560013330682946CAF8003004F0B4F949
:1054D0003B4604F1080507F110062A46186859688A
:1054E000083303C2B3421546F7D100210C2284F8D9
:1054F000249004F1180005F0CBFD02203946424605
:10550000FFF782FE2046BDE8F88F00BFEC040020C4
:10551000DC000020E000002074050020EC000020EA
:1055200038B505460D4805F016FF0446A0B1AC425B
:105530000ED12146094805F018FF2146084805F01C
:105540006EFF211D01200A46BDE83840FFF75CBE12
:10555000204605F03DFFE8E738BD00BFF00400201D
:10556000C000002038B50546084805F0F4FE0446A2
:1055700048B1201D2946102205F07EFC18B12046B6
:1055800005F026FFF3E7204638BD00BFF0040020F9
:10559000F8B505460F46FFF7E5FF044640B9134846
:1055A00005F029FF0446F0B11148214605F000FF3F
:1055B0002B46261D05F1100E32461868596808332F
:1055C00003C273451646F7D137B104F114003946CA
:1055D00005F06BFE002300E001232377002029461D
:1055E0002A46FFF711FE2046F8BD00BFC00000208C
:1055F000F004002038B50A4805F0ADFE0446002549
:105600005CB1251D284601F03DF808B1437C23B963
:10561000204605F0DDFE0446F2E7284638BD00BF0F
:10562000F004002010B50A4805F095FE044670B15C
:10563000237F43B904F11400FEF7C6FD18B12046DC
:10564000FFF76EFFEFE7204605F0C2FEEEE710BD64
:10565000F004002037B5124B124D1C782B796A7973
:10566000C4EB032313449BB2ADF80630BDF80630FB
:1056700005F108011844202280B205F081FFBDF831
:10568000062004F12801294492B205F079FF10B1F7
:1056900040BA80B201E04FF6FF7003B030BD00BFEA
:1056A000F5170020401F00202DE9F041264F274E1E
:1056B0003D7827482835AB195C780223E40007348D
:1056C0009C423DDBE9187218715CDFF8808001298B
:1056D00031D002D3632902D011E001332EE00370F0
:1056E00018461B4C02F098FED0B13B782278283344
:1056F000134443445B7813440233237021E001F0E8
:10570000C001802905D0C02905D0402913D10370DC
:1057100006E0037007E098F818200370FF2A02D112
:105720000120BDE8F08104200221EA18FFF752FAB7
:105730000220BDE8F081527802321344DBB2BFE7A9
:1057400003700020BDE8F081F5170020401F002005
:10575000FB170020F0B5C578124A0D44EDB2D570A4
:1057600083780F0A3B44DBB293704478BB42547099
:105770000678167005D2601CC0B2507008B90136A8
:105780001670C9B28D420CDA0133DBB20549937051
:105790003BB94B780133DBB24B7013B90B78013353
:1057A0000B70F0BD341F002010B5084C0146206876
:1057B0001430FFF7CFFF064A236811781975517826
:1057C00059759178D2789975DA7510BD64240020E6
:1057D000341F002008B5FFF7A7FCFFF7E3FA01F03C
:1057E000C3F800230E49002221F813200133082BAF
:1057F000F8D10C49002311443032B2F5F07F81F822
:105800002530F6D1084A4FF480611180074A002103
:105810001A442033B3F5A07F1182F7D108BD00BF31
:105820005026002068240020141000206426002048
:105830002DE9F041124F3D7805B3DFF84C8005F1BA
:105840002703B8F80040A34203DB0023A8F8003088
:1058500013E00C4EA4F1280205F12801641BA4B248
:1058600006F128003144521B05F0AEFBA8F80040B9
:10587000283C23123371747100233B70BDE8F08122
:10588000F5170020401F00202C1F00200023064A8F
:1058900032F81310814203D1002122F8131070470F
:1058A0000133082BF3D17047502600202DE9F74F24
:1058B000A24E04283468A24F00F06F82A149A24D85
:1058C000A24A03280D6015608A4615D194F8253048
:1058D00003F00F03032B08D1A38B002B40F0748639
:1058E0009B4B08221A7000F065BD022B40F06C86BD
:1058F000002305F8073CB3E302287AD1954A002338
:105900001370954A3B801380944AD3780133DBB2FD
:10591000D37063B993780133DBB293703BB953789A
:105920000133DBB2537013B913780133137094F859
:10593000253003F0FD02052A0DD194F826300133FD
:10594000DBB2782B84F8263040F03E86002384F8C2
:10595000253000F039BE002B00F03686A28B7C4843
:10596000002A3DD094F82620511E84F82610002AE3
:1059700040F02A8694F82720082A04D0591E0129CD
:105980000AD8052A08D1002384F825308023037023
:1059900002F0BCF900F01CBD042A9CBF0321914019
:1059A00003F00F0394BFC9B230210132013B84F8E8
:1059B000261084F82720072B00F20686DFE813F074
:1059C0004C0308000A00C3040406C3040406C3040D
:1059D000002242E30423037002F098F900F024BD92
:1059E00003F00F03032B40F0EF850823037000F052
:1059F000E1BC052811D15A4B1B681B8A002B00F013
:105A0000E3850C3D1560544A0023138033603B80CE
:105A10004F4B08220D601A70BDE115F83C3C3C3D2F
:105A200003F0F003602B40F0CF852B796A791B02DD
:105A300039889818884200F3C785283213443B8080
:105A40002B7AFF2B00F0C085464EAB1D3360464CD1
:105A5000404B00221A702270AA799846BAB90123E5
:105A60002370FFF721FE012800F0AE8503D3022842
:105A700000F0A6850BE098F8003003F128022A44D4
:105A800032605278083303EBC20388F8003037489D
:105A9000FFF7E8F9002840F0B2803448FFF788FAB1
:105AA000002840F0AC802A7E304BFF2AA3F1180377
:105AB00060D048F2FE00198B81425BD01989814287
:105AC00058D079B9598969B9998959B9D98949B9E0
:105AD0001B8A3BB9698A264B21B9998A11B9DB8A9D
:105AE000002B47D0298B224B79B9598B69B9998BF7
:105AF00059B9D98B49B9198C39B9598C29B9998CAB
:105B000019B9DB8CB3F5807F34D03B88B3F5A06F37
:105B100004D9022000214FF4A06205E0EB79012BAB
:105B200006D800210A460320FFF754F800F048BDCC
:105B30000F4A013BD37100F043BD00BF6424002035
:105B40002C1F0020602400207C1F0020301F00201C
:105B500054240020F517002060260020F7170020AD
:105B60005C24002058240020F6170020581F002035
:105B7000401F002048F2FE032989994240F0248505
:105B8000298BA14B81B9598B71B9998B61B9D98B8B
:105B900051B9198C41B9598C31B9998C21B9DB8C27
:105BA000B3F5807F00F01085FF2A00F00D8597483F
:105BB000FFF738F90246002840F00685012002214F
:105BC000B2E725D9B9F13A0F78D02CD9B9F13B0F0A
:105BD00000F0FA84B9F13C0F6CD123788C49980716
:105BE0003BD5580666D443F040030B70FFF75CFDCD
:105BF000012800F0E98433D3022800F0E184326800
:105C0000DFF83CB292F80090B9F12B0FD9D134E013
:105C1000B9F1060F00F01681B9F1110F6FD0B9F18B
:105C2000000F47D104E0B9F12C0F00F0CD8441E022
:105C30002378D9073ED4764A43F001031370FFF767
:105C400033FD012800F0C084D6D298F8003003F16B
:105C500028022A44CBF8002008E043F00203C4E7FE
:105C600098F8003003F128022A4432605278083351
:105C700003EBC20388F80030C1E7237803F0040087
:105C800000F0FF01B0B9624A43F00403137098F8C2
:105C9000002002F128032B44D87810B104202A32C6
:105CA00042E7CBF800305B78083202EBC302594B75
:105CB0001A70A4E704200121521B35E705F07CFC93
:105CC0004FF6FF73984240F07F8498F800302833F5
:105CD000E85C01F0C7FE98F800302833EA18E85C69
:105CE0005178FEF755FF012801BF0023494A3B8048
:105CF00013703B88002B00F0678400F061BCFFF755
:105D000097FDEB8D85F8069053B96E8D002E00F04F
:105D10005B84414B414D2B603B4BB3F828800BE03B
:105D200005F050FC4FF6FF73984240F04D84ECE7CD
:105D3000238A33B920342C602C68394B9C42F7D32A
:105D400015E09E42F6D1638A0BB19845F2D12368E3
:105D50002BB963681BB9A3680BB9E3685BB1314821
:105D60002146102205F088F80028E3D103E0012045
:105D700004210022D8E63B882B49303B3B8000239E
:105D80000B602A4902202A4A08702A49CAF80020D2
:105D90000A60294A138001F0B9FF274B1A88002AAC
:105DA00000F0128402F13003174C9BB23B80283B79
:105DB00019126371194B08321B6852BA2171197D8F
:105DC000A2850022E2851A8AE17122855A8A112170
:105DD0006285A17104F118050FCB85E80F0004F16D
:105DE00008002946FFF742F9144B04F13C021A60FF
:105DF00005F0E8FBC04380B208B1E085DAE34FF676
:105E0000FF73E385D6E300BF401F0020581F00202A
:105E1000F6170020F5170020642600205C240020DF
:105E2000A4270020481F00206424002054240020C0
:105E3000701F0020301F00206026002060240020FA
:105E400058240020FFF7F4FC85F8069005F0B7FB16
:105E50004FF6FF739842AE4C40F0B683B4F82AB0C8
:105E6000BBF1000F00F0B083238D002B00F0AC835A
:105E7000A84EB44696F82590B9F1000F11D0328A99
:105E80005A450ED1728A9A420BD1A348314610224C
:105E90008DE8081004F0F0FF9DE80810002800F0DD
:105EA000F5809E4A30369642E4D195F8352002F0CE
:105EB0003F02022A08D10022994931F812105945AF
:105EC00050D00132082AF7D195F83520904B52076F
:105ED00000F17A83142283F835203C223A80502244
:105EE00083F8342093F8332093F8314093F82F004F
:105EF00083F82F2093F8322093F82E1093F8306017
:105F000083F82E20013093F82D2083F82D4093F84C
:105F10002C40C0B283F8321083F8312083F82C6013
:105F200083F8304083F8330060B90131C9B283F897
:105F3000321039B90132D2B283F8312012B9621C61
:105F400083F830202B8D6A8D734C2A856B8504F184
:105F5000100594E80F0085E80F0020462946FFF75A
:105F600085F812E3002421466A4A92F8250018B900
:105F7000302404FB01C413E0072809D13CB192F896
:105F8000266094F82600864288BF144600E0144636
:105F900001310A2902F13002E7D1002C00F014830C
:105FA000604A638214605C4B032284F8262084F8E4
:105FB0002420042284F823200FCB84E80F005A4BBE
:105FC00001201A78002622765A7884F82500627615
:105FD0009A78DB78A276E37695F82C30A083237547
:105FE00095F82D3084F82260637595F82E3084F88A
:105FF0002760A37595F82F30A4F810B0E375FFF76C
:10600000D3FB95F8343003F0F002502A24D91A0952
:106010003346053A9200E91891F83C00E0B10128B6
:1060200001D1013316E002280FD191F83D00042878
:106030000BD191F83E2091F83F3043EA0223402BE8
:1060400028BF4023E383238406E0E91891F83D103C
:1060500011B10B449342DEDB10222D4B83F8352027
:106060002B4B93F8352042F0020283F835200222B0
:1060700083F83C20042283F83D20002283F83E2050
:10608000402283F83F203A80602242E2254B95F877
:1060900035101E60254B11F0040F344618709B46D6
:1060A00003D086F825002022E1E13B8809F00F09A2
:1060B000A3F12802164BB9F1020F93F834304FEADE
:1060C0001313A2EB83039BB23B8003D101F03F0289
:1060D000122A05E0B9F1010F03D101F03F02022AB3
:1060E00026D00BB98B0723D0AA8DB38A9A4204D14C
:1060F000074BDA8DF38A9A421AD0880740F1028260
:10610000B9F1010FA8D0B9F1020F40F0FB81A7E768
:10611000401F002068240020481F0020482600203F
:106120005026002064240020F7170020542400206B
:10613000C90654D5B18B002951D006F11800FFF7DC
:1061400009FBB24B95F8301093F800E0B04A8E4549
:1061500045D192F8311093F801C08C453FD192F8A7
:106160003200997881423AD192F83320DB78934219
:1061700035D1F37696F8273086F818E086F819C0FE
:10618000B1761BBB96F8243096F8261096F82200BC
:10619000591AA1EBD001C9B25FFA81FE1EF0800F3F
:1061A00096F82330084418BF4942A3EB930318BF65
:1061B0005FFA81FE03EB0E02C0B2D3B286F8233041
:1061C00003EBD00386F8220086F82430914B01229D
:1061D0001A7096F8243086F826300023B38396F898
:1061E0002510DFF8309201F00F03013B072B00F27E
:1061F000EB81DFE813F00800250083004001620115
:106200007C018701320199F80020824BD2070FD51B
:10621000032286F82520388840221A700022B28393
:10622000002800F0C48042221A70FFF7BDFABEE0D9
:1062300095F8353003F03F03022B40F0C5810BE7A2
:1062400099F80030DB074ED595F8353003F03F0361
:10625000122B48D16E4B93F8343003F0F002502AE1
:1062600024D91B09053B9B0000202A1892F83C10FA
:10627000E1B1012901D1013016E002290FD192F8D4
:106280003D1004290BD192F83E1092F83F3043EABA
:106290000123402B28BF4023F383338406E02A18D0
:1062A00092F83D2012B110449842DEDB032386F8B9
:1062B000253095F82C300120337595F82D30737505
:1062C00095F82E30B37595F82F30F375FFF76CFA0B
:1062D0004223514A8BF800300023B3833B8088F877
:1062E0000030138066E020238BF8003001F00EFDB3
:1062F0004A4B00221B6883F82520E5E595F83530E8
:10630000D80725D5CA0623D4B38B002B40F05C8177
:106310003888013080B2FFF747FA9BF8003043F02D
:1063200010028BF800203A881AB13A4A43F012035F
:10633000137001F0EBFC0123B383082386F82530AA
:10634000002386F827301122314B83F83520DCE01A
:1063500098060DD595F83A2095F83B3043EA02238C
:10636000DAF800201A44CAF800203A88D31A3B8091
:10637000388848B1CA0607D499F8003043F00203C0
:1063800089F80030FFF710FA95F8362095F8373085
:1063900003EB0223328C9BB2934202D8002B18BF2E
:1063A0001A4699F80030F2839B0700F00D811A4BD2
:1063B00000221A8001F0AAFC164B1A78164B02F044
:1063C000200000F0FF0128B100221A8084F8252067
:1063D0001422B9E702F0100000F0FF0540B1198067
:1063E0000123A383042384F8253084F82710AAE727
:1063F0001988B1B1D60748BFA583A28B82B9E28BB9
:10640000914288BF1A801B88A3830AE0341F0020B2
:10641000401F002054240020602600206424002017
:106420001A80002384F827306D4B1B68CAF80030AF
:106430006C4B1B882BB1A38B1BB13C333B801822C8
:1064400007E0694B1B789D0740F1BE803C233B80F1
:106450001022664B83F8352059E099F80030DC07AC
:1064600040F1B280002386F825305F4B10221A706D
:1064700001F04CFCA8E0388808B1FFF795F995F8D1
:10648000353013F001030FD099F80030D80745BF1D
:10649000072386F825300623002346BF86F82630DA
:1064A000B38386F8253016E099F80020D1071BD574
:1064B000052286F82520B38386E0388808B1FFF7E7
:1064C00073F995F83530DA070ED5072386F82530AD
:1064D000002386F826300120FFF766F9102389F89B
:1064E000003001F013FC0DE03B885BB96CE099F8DB
:1064F0000030DB0768D5072386F82530002386F8AF
:10650000263061E0102385F835303C233B80374B43
:10651000502283F83420237D344D85F83030637D5C
:1065200005F1180685F83130A37D85F83230E37D1A
:1065300085F83330237E85F82C30637E85F82D3046
:10654000A37E85F82E30E37E85F82F30238A2B85B5
:10655000638A6B8594E80F0086E80F0005F1080058
:106560003146FEF783FD94F8253003F0100303F065
:10657000FF022BB1002385F8373085F8363004E070
:10658000402385F8362085F83730184C0623A37150
:10659000174B1B79E3713B88283B1A126371002368
:1065A000227184F83B3084F83A30238705F007F8ED
:1065B000C04320870D4B60221A7000225A705A8007
:1065C000094B00221A7007E00A4A002313700A4A96
:1065D0003B801370044A137003B0BDE8F08F00BF16
:1065E000301F00206026002054240020401F00207F
:1065F000C01D0020F5170020F617002010B5044636
:1066000040B102F05DF8044B2146BDE81040186827
:1066100003F0FCB810BD00BFF800002008B503F07F
:10662000D9FA034B03491868BDE8084003F036B8AF
:10663000F8000020FD65200070B51E460C4B044696
:106640009DF810201868059B03F056F8054668B1C0
:1066500020462B4604F1100250F8041B904243F8E8
:10666000041BF9D16E74284602F02AF8284670BD42
:10667000F8000020024B0146186805F08BBE00BFF1
:10668000F800002070B50C4D0646286803F01AF893
:10669000044666B9002070BD20463146102204F041
:1066A000EBFB38B12146286805F03CFE0446002C7F
:1066B000F2D1EFE7204670BDF8000020024B014602
:1066C000186805F04EBE00BFF800002070B5054602
:1066D00010200C4603F0D4F90849064605F08FFE59
:1066E00058B930462946224603F012FA3046294668
:1066F0002246BDE8704001F0B9BF70BD80CC2000DB
:106700002DE9FF478C4C8D4FE379DFF85482FF2B46
:1067100040F00A813B78E21892F83020FF2A00F01E
:106720000381234493F82930002B40F0FD80844EF0
:10673000844D336014232B70387829782C30B8F8C6
:106740000030014499425ADA631858787A4A00288E
:1067500000F0EA80615C012947D11189336079B981
:10676000518969B9918959B9D18949B9118A39B918
:10677000518A29B9928A1AB9E28A002A00F0D48093
:1067800053F8020F02AA5968DFF8D89103C26E4885
:10679000FFF778FF0246C9F8000040B905230093CF
:1067A000019002A902236848FFF746FF1DE0FFF7AA
:1067B00061FF8246002800F0B78030685146023001
:1067C000082204F059FB50B1504602A9012205F0FD
:1067D000F1FD002800F0A880D9F8003003E0D9F8D6
:1067E00000305A7C0AB902225A743B782A782C333A
:1067F000134423445B7802EBC3022A709CE72044D5
:106800000430FEF72FFB514B4B4D18609946002882
:1068100000F08A802B8973B96B8963B9AB8953B94E
:10682000EB8943B92B8A33B96B8A23B9AB8A13B985
:10683000EB8A002B78D0444D2846FEF713FB2E46FA
:10684000002871D140F2FF23228BA5F1080E9A4255
:1068500005F1100C19D16B8ABBB9AB8AABB9EB8AC5
:106860009BB92B8B8BB96B8BB3F5807F0DD12B7FB5
:10687000FF2B0AD195E80F008CE80F003B7873449A
:1068800030330FCB85E80F0011E0314D2846FEF77D
:10689000E9FAD9F80030834246D196E80F0085E83E
:1068A0000F003B78234430330FCB86E80F00602283
:1068B0002270282262713A22A271FF22E27188229C
:1068C000002384F82820D9F800203B70637063808F
:1068D000237184F829301F4EE02384F82C30931C58
:1068E0001232354618685968083303C593422E465C
:1068F000F7D1194A022384F8403084F841301368F4
:106900001648C4F84230536800214360062208301C
:1069100004F0BEFB0023638504F04EFEC043502309
:106920006085A8F8003003E00023A8F800303B7031
:1069300004B0BDE8F08700BF401F0020F51700201D
:1069400080080020FC170020481F00208408002039
:10695000581F0020701F0020381F0020821F0020B9
:106960002C1F00207C0800200148FEF72DB900BF35
:106970000C0100200C4AB82303FB0022002330B591
:1069800053821A46094CE1188D782DB11C5D844262
:1069900002BF00248C70013240F24C5171338B42A3
:1069A000F0D1104630BD00BFA40800200818002018
:1069B00008B5064801F050F8054B01221A70FD2178
:1069C00000225A709970DA7008BD00BF196C20005F
:1069D000FE17002010B513780446087A83F00203EE
:1069E00098421DD1487A5378984219D1887A937881
:1069F000984215D1C87AD378984211D1087B13797F
:106A000098420DD1487B5379984209D1887B93797C
:106A1000984205D1C87BD379984201D103201BE06D
:106A20000B890F4A6BB94B89B3F57F4F09D18B891D
:106A3000FE2B06D11368C989022023F8021B1360BC
:106A40000AE0136851F8080F083343F8080C486847
:106A500043F8040C13600120A040C0B210BD00BF79
:106A60009008002010B50F4C0220A17902F0EEFF33
:106A7000A379112B01D0062B05D1238D618D99426D
:106A8000A8BF194608E03A2B05BF94F8281094F8DF
:106A90002930002143EA01210120BDE8104002F025
:106AA000D5BF00BF401F002010B5084C0146237819
:106AB000012B08D1A01C082204F0DEF900280CBF2D
:106AC0002046002010BD002010BD00BFFE17002092
:106AD00008B50146102002F0C7FF044B04489B682C
:106AE00000219847BDE80840FCF75EB828CA20009E
:106AF000F56A200010B508460C461146FFF7E6FD82
:106B0000044B1B6813B19B6820469847024B1C60DE
:106B100010BD00BFA00800209C080020F8B5054665
:106B20000023114A712404FB0324A278B2B96170D6
:106B300002F0B6FE26460D4F0D4A3B7806F8035B81
:106B4000C01A1568A0701D4402F0AAFE3A782946C2
:106B5000821A304604F0C2F9A078F8BD01330C2B3C
:106B6000DFD14FF0FF30F8BD08180020541D002081
:106B7000940800202DE9F8434FEA1219B9F10F0FDC
:106B800080461D4602F00F040BD00F2C05D1B9F141
:106B9000000F0AD11024274619E0B9F1000F09D0DF
:106BA00004E00F2C4FF0100900D1102440464A4653
:106BB00004F094F909EB04020F2A274606DC08EBDF
:106BC00009000021C2F1100204F062FABCB1114DBB
:106BD000C7F110002E6840443146224604F07EF989
:106BE000022C08D1B9F10A0F9FBFFF2388F80B30A0
:106BF000FE2388F80C3034442C60BDE8F883B9F1EA
:106C0000000F05D040462946BDE8F84304F08CBC8F
:106C1000BDE8F883900800202DE9F04F8E4E8F4D8F
:106C2000002387B033702B70044602F0B5FE02F0EB
:106C300049FE8B4A8B4B126818608DE860009946BC
:106C40000AB1FFF70FFF04A80CB9874900E02146FD
:106C500005F0D0FB854B864E1A8803933E2A40F2FE
:106C60000182D9F800B0834D0BF102032B60009B29
:106C700006F1180093F80080002308F102080BF8D1
:106C80000830FFF711FF20B906F10800FFF70CFFED
:106C900020B10BF103032B60802400E004467278DE
:106CA0003178130943EA0113DBB2980840EA8313F1
:106CB000DBB212F00F0FDEB26E4F01F00F010CD1FC
:106CC0006B48408848B911B912F0F00F1FD03B68EB
:106CD00003F8016B3B6070261AE079B912F0F00FEF
:106CE0000CD1296823F03F031A43634B0A701B88B9
:106CF000033121F8023C6826296009E05C4A2B68D0
:106D00001068186003F8046B2B60602600E078269A
:106D1000574B9A790293112A08BF46F0040673076D
:106D20005EBF3B6803F8012B3B60029BDB79402B85
:106D300006D0FF2B07D0012B08D146F0010609E051
:106D400046F0020606E046F0030603E03A6802F861
:106D5000013B3A60029A464B128982B95A8972B94C
:106D60009A8962B9DA8952B91A8A42B95A8A32B909
:106D70009A8A22B9DB8A13B944F0400013E03F48F5
:106D8000FFF792FE3E4B186078B142781BF808304E
:106D9000042043EA02130BF808303849394AFFF758
:106DA00019FE60F03F00C4B227E0029B30491A8907
:106DB00048F2FE039A420CD14B8B53B98B8B43B9EB
:106DC000CB8B33B9042008312E4AFFF703FE204352
:106DD000E9E73A68DFF8A4C096460CF1100A63466A
:106DE00003CB5345CEF80000CEF804109C460EF1BC
:106DF000080EF4D11F4B10321A60DFF874A09AF815
:106E00001830FF2B40F08A809AF8192044F0080EC1
:106E1000022A5FFA8EFE37D1BAF81A30A3BBBAF84D
:106E20001C308BBBBAF81E3073BBBAF820305BBB8A
:106E3000BAF8223043BBBAF824302BBB9AF826307C
:106E400013BB3B689AF8272044F00B0003F8012B92
:106E5000C4B23B609FE000BFFD170020541D00201E
:106E6000A00800209408002080CC20002C1F0020C7
:106E7000401F002090080020421F0020481F0020D3
:106E800088080020381F00209B4B588B194688BB70
:106E9000988B78BBD88BA8B9188C98B9588C88B9BE
:106EA00093F8240070B9296844F00A00C4B2084677
:106EB00000F8012B33F8252F043121F8032C9B789F
:106EC000837015E0C98B8C4BA1B9198C91B993F8DB
:106ED000221079B9296844F00900C4B2084600F8C4
:106EE000012B53F8232F063141F8052C1B79037130
:106EF000296050E0814ADFF818C214680CF11008CC
:106F00002746634603CB4345386079609C4607F1CA
:106F10000807F6D11034146074463CE00AF11800FA
:106F2000FFF7C2FD764B186050B143781BF808108C
:106F300044F004040B43E4B20BF8083000200EE0E8
:106F400048F2FE03BAF818209A4210D1BAF81A3063
:106F50006BB9BAF81C3053B9BAF81E303BB90AF114
:106F6000180104AAFFF736FD2043C4B213E0634AB8
:106F7000DFF89CC117680CF11008BE46634603CBCE
:106F80004345CEF80000CEF804109C460EF1080EE2
:106F9000F4D110371760019A5749282313708B7961
:106FA000112B53D14FF2B0030A8D52BA92B222F094
:106FB0000F0080B2984217D14B8D5BBA23F00F03BC
:106FC0001B041B0C83420FD12868F32303704B8DE5
:106FD00002301A0A0B8D1B0A02EB031303F5AA6396
:106FE00000F8013C286028E0029B43495B8D5BBAB6
:106FF00003F47F43B3F5704F09D12B68F1221A7067
:107000000A8DA3F801204A8D120ADA700CE002F40E
:107010007F42B2F5704F2B6808D1F2221A700A8DA8
:10702000120A5A704A8D5A80043305E0F0221A7011
:10703000886A053343F8040C2B60324B1A882B689E
:1070400023F8022B019A2B6030231370009BD9F890
:1070500000201B78D65413445C70284B1B689B1A85
:10706000009A1AE0D9F8002041231370009B06F122
:1070700028051C78631CDBB21344324603CAAA42BB
:1070800018605960164603F10803F6D1009B2934B5
:107090001C70019B019A1B782833102013700DEB94
:1070A000000102F0E1FC184BDFF868801B6898478C
:1070B00030EA200028BF1520039BC0F17D051C8805
:1070C000019BDFF854A01E78009BA21B93F800B030
:1070D0000E4FCBEB05039A4240F3CD80C0F178030D
:1070E000019302F005FA019B94FBF3F40134A042F2
:1070F00014DC0020D1E000BF401F002090080020D9
:10710000880800206E1F0020E0C92000541D0020C8
:10711000581F00202C1F0020FD170020D9F800B0B8
:107120005F4B3C7800221A60594622460BF104005E
:10713000039303F049FFB8F800205A496FEA8242EE
:107140006FEA9242C2F307228BF80020B8F80020C1
:1071500004348BF801200A88E4B2501C0880110A1C
:10716000DFF850C18BF802102D1B9AF8001025F0A3
:1071700007054D4E61448BF803200BEB04002A46B3
:10718000CDF808C03C70356003F0A8FE281980B225
:1071900002F07CFB02F0B2F9039B04461D46002876
:1071A000A7D00DF1100B5846FFF792FC204602F0D5
:1071B000DDF9204602F0C4F92B68012B99D0043B7D
:1071C000012B96D99AF800A0336853441FFA83FA2A
:1071D00005233B70354B1A68B8F800306FEAC3439B
:1071E0006FEAD343C3F307231370B8F8003053702A
:1071F000019B23F0070737602D4B1B889A454BD224
:10720000D9F800204FEADA0111713268CAEB0303A2
:107210009342B8BF244AD9F80000B8BF1360009B5E
:10722000376893F80080029B3A4603EB0A0140441A
:1072300003F054FE08EB070080B202F027FB02F0D7
:107240005DF9074600283FF454AF5846FFF740FC6D
:10725000384602F08BF9384602F072F9124B1B687F
:107260009A442B681FFA8AFA012B3FF442AF043B81
:10727000012BC1D83DE7D9F800000E4958443144EC
:1072800003F02CFEB8F800005844801B80B202F0D6
:10729000FDFA04A8FFF71CFC012007B0BDE8F08F41
:1072A0009C08002036110020980800209408002037
:1072B0002C1F0020401F00202DE9F047074688467C
:1072C0001646002A47D0434C0025A146238ABB42DC
:1072D00015D1638A9BB10F2002F0D2FB01462046F4
:1072E00005F08DF858B1ECB220463146FFF716FC98
:1072F000002827DA0027DFF8E0A0B8460DE0B83410
:10730000002D5DD10125E1E7A8450BD10AF1B80AAE
:10731000B8F1000F10D14FF001083AF8063C002BED
:10732000F4D0F1E7504604F005F80028EED04046CE
:10733000FFF720FB0744E9E7002F41DD20463146F7
:10734000FFF7ECFB00283BDDB82303FB0595AB8A78
:107350001844A8823AE0204DFF2435F8063C4FFA45
:1073600084F97BB3284603F0E5FF10B13046FFF700
:1073700001FBB9F1FF3F03D135F8063C03B9F4B284
:10738000012E05F1B80501D00126E6E765B26B1CB8
:1073900016D0B8235D43DFF83C900F2009EB0506BB
:1073A000A6F81280378202F06BFB0146304605F0EA
:1073B00021F805F118004844402103F0A9FF05E039
:1073C000FF2403E0B9F1FF3FDAD1D8E760B2BDE8AE
:1073D000F08700BFA4080020BC0800202DE9F04F72
:1073E0000F2087B0A54CDFF8CCA202F049FB0026A5
:1073F00002F0CAFB8AF80060267002F063FAA04D22
:10740000A0462860042002F029FB9E4B2A6800B2A7
:1074100018605778137847EA032703F0F803C02B66
:1074200002D0E02B19D03AE090782378D278C7F3D5
:107430000A07043342EA0020394632462370FFF738
:107440003BFFB0F1FF3F814600F080828E4CB823B5
:1074500003FB00440126223424E01379D17890788C
:107460002278C7F30A070532227041EA00201A4643
:1074700039460093FFF720FFB0F1FF3F814600F04F
:1074800065828149B82202FB0012958A4FF0010BF8
:10749000BD4234BF002501253446009BDFE1B146E3
:1074A0004F467A4C296898F800504A5D02F0E00394
:1074B000602B40F0B681A81C084429444D78744BD9
:1074C0005FFA85FC1CF0800F18601CBF013018604B
:1074D00012F0100F02F0080130D1D1B9196831F85B
:1074E000010FA4F801008978E170196811F8040B04
:1074F0001960830803F00F0141F060012170617889
:1075000003F0300343EA801301F00F010B43637073
:1075100030E018686021864621701EF8011B033098
:107520004FEA910B0BF0300B01F00F014BEA010118
:107530006170BEF80010186061801BE001F0FF0E62
:1075400099B919680878C0F3830040F06000207092
:1075500011F801BBA4F802E04FEA9B0000F03000F4
:1075600040EA8B106070196004E0602323700023F0
:107570006370638002F0040303F0FF0100912BB9F4
:1075800043490B6813F8010BA0710B6012F0030262
:107590000BBF3F4A3F4B13689B5C09BF13F8011BAD
:1075A000E3711360E1716B06C5F3011233D51CF072
:1075B000800F1DBF324998F80030096800211EBFB6
:1075C0005B189978090922B904F1080B9AB9114698
:1075D00014E0314B1878012805D1587888420CBF47
:1075E0001946002100E000212C4B19600029EBD145
:1075F000B3460D4632E1294B19680231284B0F2062
:107600009A5C0391CDF808C0019202F039FA03990F
:10761000034658460BE0234B0F209A5CCDF808C078
:10762000019202F02DFA2049034604F10800019A64
:10763000FFF7A0FA05F00800DDF808C005F0030226
:1076400000F0FF0105F00403002835D0002B6BD1BA
:10765000164B1B88ADF81430531E012B9FBF0C49ED
:107660000B6813F8010B0B60114B98BF8DF81500D8
:107670009A5C04F1180005A9002353E0541D002072
:10768000940800208C080020A4080020401F00203F
:10769000900800202ECC2000FE1700208808002033
:1076A00047CC200032CC200036CC20002CCC20004F
:1076B00038CC2000FD17002053B31CF0800F1DBFF5
:1076C000A44998F8003009680B4618BF5B18A24916
:1076D00018BF9D78087818BF05F00F03012805D161
:1076E0004D789D420CBF0D46002500E000259B4BC8
:1076F0001D60002D00F0AE80994B10209A5C019225
:1077000002F0BEF9A91C0346019A04F1180009E031
:10771000944B10209D5C02F0B3F92A46924903462F
:1077200004F11800FFF726FA9AF800008F4900F1DB
:1077300028038AF80030009B002B53D00B681A787E
:1077400002F0F802F02A4DD11122A2711A7802F04B
:10775000040502F0F302F03AEDB2032A7CD8DFE828
:1077600002F0020A1622B3F801200533228533F80D
:10777000022C62852CE0B3F801202285DA78A2F58C
:10778000805292B2120242F0F002628509E05A7809
:10779000A2F5805292B2120242F0F00222855A887B
:1077A0006285043314E05A7802331209A2F5756237
:1077B00092B2120242F0F002228513F8012C02F07C
:1077C0000F02A2F5756292B2120242F0F0026285D7
:1077D0000B6025B90B6833F8022BE2850B60303063
:1077E0008AF800005B4A0B6812689B1A88F8003020
:1077F00067B902F055F85E4B1B78C01A9AF8003052
:107800001844283803122371607104E0A7F128039B
:107810001A1222716371A379112B1DD1A388A3853C
:107820001AE0412A40F092806A1CD2B28B1822469C
:1078300003F1280153F8040B8B4242F8040BF9D1F1
:1078400005F1290388F800309AF8003028338AF8C7
:10785000003001E0B34601E0B34600252B4600931B
:1078600002F01EF898F8002082426FD802F018F853
:107870003F4A40491278009BC2EB0008C1F80080E3
:1078800040F214519AF800A0DB009BB253444344E9
:107890008B425BD83CB12F4B04EB0A0019681144B2
:1078A000424603F01BFB002F39D056B132484FFA45
:1078B00089F3B82404FB030308EB0A0189B2998217
:1078C000198495B3B8224FFA89F402FB04F32A49CC
:1078D0002A48CA18114697822231128C03F0FEFA08
:1078E000274D05F24C5615F8012C5AB115F8033CFA
:1078F000A34207D115F8020C204B294603EBC00028
:1079000003F0ECFA7135B542EDD15FFA89F0FFF77B
:1079100031F8BBF1000F0BD01A4B1F800CE0BBF10C
:10792000000F05D0002DF7D110E0BBF1000F0DD1F5
:10793000144BD044A3F80080134C236823B1FFF705
:1079400091F823685B68984700F0A0F807B0BDE89D
:10795000F08F00BF94080020FE1700208808002048
:1079600047CC200032CC200036CC200090080020EC
:10797000541D002098080020A4080020401F00206B
:107980000B1800202C1F0020A0080020F7B505468A
:1079900028B9224803B0BDE8F040FCF777B8038867
:1079A000ABB94488ACB98388A3B9C4888CB90389BE
:1079B00083B94FF6FF72418991420AD1017B427B24
:1079C000837BC07B00901648FCF760F824E000241D
:1079D00000E01C462646AB195B78AF5D03EB07273A
:1079E000BFB24FB9002C09DB01D0013411E00D48C2
:1079F000FCF74CF801240CE0002C04DC2EB13A20FA
:107A000003F0E2FB01E04FF0FF3407483946FCF792
:107A10003DF80236102EDED103B0F0BD4BCC200075
:107A20005ACC20006DCC200070CC200008B5054851
:107A300003F05EFC20B1BDE80840024803F04FBCF3
:107A400008BD00BF580A0020024B1B6803B118474D
:107A500018467047680A0020014B1860704700BF45
:107A6000680A002007B5074B8DF80700186828B191
:107A7000054B0DF107021978FCF736FE03B05DF8EF
:107A800004FB00BF482600205229002008B5002230
:107A900004480221FCF728FE034A00231380034A0E
:107AA000137008BD180100202C1F0020F5170020BE
:107AB00038B5274D2B88002B48D0B3F5A06F26D8BA
:107AC000244C238B6BB9638B5BB9A38B4BB9E38BD2
:107AD0003BB9238C2BB9638C1BB9A38C0BB9E38CFA
