:020000040020DA
:10200000801600208D2220008B662000896620002B
:102010008966200089662000896620000000000093
:10202000000000000000000000000000F16C200033
:1020300089662000000000000F6D2000E966200086
:10204000FB66200001672000076720000D67200065
:1020500000000000EF662000F56620008966200081
:102060008966200000000000000000000000000061
:102070000000000000000000896620000000000051
:102080000000000000000000896620008966200032
:102090008966200089662000896620008966200004
:1020A00089662000896620008966200089662000F4
:1020B00089662000896620008966200089662000E4
:1020C00089662000896620008966200089662000D4
:1020D00089662000000000000000000000000000F1
:1020E00000000000000000000000000000000000F0
:1020F0000000000000000000453820005538200096
:1021000000000000000000000000000000000000CF
:1021100000000000000000000000000000000000BF
:1021200000000000000000000000000000000000AF
:10213000000000000000000000000000000000009F
:10214000000000000000000000000000000000008F
:10215000000000000000000000000000000000007F
:10216000000000000000000000000000000000006F
:10217000000000000000000000000000000000005F
:10218000000000000000000000000000000000004F
:10219000000000000000000000000000000000003F
:1021A000000000000000000000000000000000002F
:1021B000000000000000000000000000000000001F
:1021C000000000000000000000000000000000000F
:1021D00000000000000000000000000000000000FF
:1021E00000000000000000000000000000000000EF
:1021F00000000000000000000000000000000000DF
:1022000000000000000000000000000000000000CE
:1022100000000000000000000000000000000000BE
:1022200000000000000000000000000000000000AE
:10223000000000000000000000000000000000009E
:10224000000000000000000000000000000000008E
:10225000000000000000000000000000000000007E
:10226000000000000000000000000000000000006E
:1022700089662000293720004D372000C12D20001D
:10228000B5392000BD2820008966200008B5094B1B
:10229000FF221A600848094A4824E3690849121ACB
:1022A00098470848084AA3690021121A984700F085
:1022B0000DF8FEE7B4200D4040000020F80000209B
:1022C00064772000F8000020790E002073B500F03C
:1022D00055FC00F00FFD00F06BFC00F059FA01F026
:1022E00057FB04F0A0FA00F0FDFC00F0B3F8012069
:1022F00004F0CEF902F010F900F02CFC002000F000
:1023000037FB012000F034FB0020404900F00CFCBA
:1023100002F046FA62B6042004F0BAF93C4804F030
:1023200019FA3C4804F016FA00F0D4F9002002F043
:10233000DFFA01F01FFA3848002102F079F902F0C3
:1023400019F804F0CFF900F05FFD00F07BFD02F01A
:1023500017FE0821684601F041FB9DF807309DF803
:1023600006502E4C43EA0525BDF806302C48238044
:1023700001F06EFB2B4E21782B4801F069FB617850
:102380002A4801F065FBF46A4AF6CD310220A047E5
:1023900029460320A0471A210120A04708226946A8
:1023A000736B0B209847224801F052FB214B1868B1
:1023B00004F0D0F9204801F04BFB204B186804F0E2
:1023C000C9F91F4801F044FB1E4B186804F0C2F91C
:1023D0001D48002102F02CF91C4B01219B68812033
:1023E000984704F010FA1A4804F003FA00F0B8FB1A
:1023F000022004F04DF900F0B9FB02F0A5F810F04E
:10240000FF0FF8D101F05CFAF5E700BF5D4720004F
:10241000BA732000CA73200068000020700E0020EC
:10242000EF732000C47220000D742000137420008C
:10243000197420003873200020742000507320008D
:10244000277420006C73200098000020DC712000AD
:10245000A873200008B500F0DDF8024B00221A70C6
:1024600008BD00BFF60C0020024A13781843107014
:1024700000F0F4B8F60C0020034A137823EA0000B9
:10248000107000F0EBB800BFF60C002020B101285E
:1024900005D1044B18787047034B1868704700202B
:1024A000704700BFF70C002020900D4010B5094A7E
:1024B0000020137801331370074B197802F090F85D
:1024C000BDE81040054B06481968064A002301F094
:1024D00087BF00BFF70C0020720E002030010020E3
:1024E00008010020AD242000812808B52AD0B0F5CD
:1024F000807F39D0802839D102F006F81C4B1D4A64
:1025000018701368002023F00803136052F8203C71
:10251000032123F0080342F8203C52F81C3C23F02E
:10252000080342F81C3C52F8183C43F0080342F8F8
:10253000183C042200F0ECFB0F480021032200F0BD
:1025400089FB13E00D4B0E481A6829B142F00802CE
:102550001A600123036005E022F008021A600123DB
:10256000C0F88030084608BD064B1960012008BD40
:10257000720E002020940D408925200010940D40FB
:1025800000E100E03001002008B50F4804F054F9E4
:10259000C0B108210C4804F048F90C4B196861B12E
:1025A0000B4B00221A700B4B0B481B681BB90B4AD4
:1025B00001F016FF01E001F01DFFBDE808400848EA
:1025C00002F06AB908BD00BF2801002030010020D8
:1025D000F70C002020900D4008010020AD242000C1
:1025E000DC712000084A136823F00403136052F8DA
:1025F000203C43F0040342F8203C044B00221A60C4
:10260000034B01221A70704720C40D4010C00D40CA
:10261000F80C00200D4A0E49136823F0C003136024
:1026200052F8203C43F0C00342F8203C094B002202
:102630001A600B6823F010030B6051F8203C43F044
:10264000100341F8203C044B1A60704720A40D4051
:1026500020C40D4000A30D4040C00D4000F0020218
:1026600002F0FF010B4B12B1FF221A6000E019606B
:1026700000F0040202F0FF01074B12B1FF221A60C2
:1026800000E0196010F00100044B1ABFFF221A602D
:102690001860704700A20D4000A10D4040C00D40E1
:1026A000044B1868C0F30720030904BF1030C0B200
:1026B000704700BF1C300D40054B1868C0F3C210B6
:1026C00001289ABFC0F1020040034FF40040704758
:1026D00014300D402DE9F04788B0FFF7E1FF174BAC
:1026E00048251C68AB68074698476B688046984742
:1026F0000646FFF7E1FF054600F094FA824600F037
:102700009DFA814600F04AFAB60AC4F34003AD0AC6
:1027100004F0010402930690009601950394CDF80D
:1027200010A0CDF814904146C7F3071207F00F032D
:10273000034801F08DF908B0BDE8F0871C300D406A
:1027400035742000F8B500F077F80F4B0024D3E97A
:1027500000673A46B04238BF7A1C15460443C3E9C5
:102760000045DFF828E0DEE90001821B61EB07038A
:1027700012196B41CEE9002301F09AFD18B1BDE8B2
:10278000F84001F025BDF8BDF80000200001002050
:102790000D4B0E4AE0215A600D4A82F823100022A8
:1027A00007219A6019600B490B6843F001030B6025
:1027B000094B1A60042243F80C2C012243F8082C20
:1027C0000F22DA62704700BF10E000E047E8010026
:1027D00000ED00E008200D400C000340034BD3E95E
:1027E0000023100A40EA0360704700BFF800002091
:1027F000054B18601C3B1A6842F001021A601A6807
:10280000D207FCD4704700BF2800034010B5064C27
:10281000236823F001032360FFF794FF236843F04C
:102820000103236010BD00BF10E000E0014B1868F9
:10283000704700BF34010020074B084A1968043371
:102840001B681268120442EA0323054A0B4310680E
:1028500043EA0060704700BF40500D4048500D40B3
:102860004C500D4010B50446104B1B68DB07FBD5E0
:1028700072B6FFF7E1FF231A062BD8BFC41D0C4B1D
:10288000220E1A60C4F3074243F8042CC4F3072253
:1028900043F8082CE2B243F80C2C62B6054B4FF417
:1028A00000321C60044B1A6110BD00BF50500D4037
:1028B0004C500D403401002000E100E008B500F06C
:1028C000E5FF074B00221A60064B4FF40032C3F8B5
:1028D0009021C3F89020BDE8084001F0DFBE00BFA2
:1028E0003401002000E100E0064B1B681B075FBFBE
:1028F000054B186880F00800C0F3C00048BF0020F6
:10290000704700BF18C0004018D00040164A38B5C4
:102910002C2303FB00234FF6BF72DC680546236CB3
:1029200062649BB213F050020DD0A369DB0609D498
:102930000E4B53F825301BB12068C0B29847F4E71E
:102940002368F2E738BD13F4D06F0BD04FF4407317
:102950002363FF236360E36AE262E362236B43F075
:102960000103236338BD00BFEC7120003801002053
:102970002DE9F04F012885B0064600F2C3802C24D3
:102980004443624B1D1995F920A005F12007BAF1C7
:10299000000F9946C0F2B68095F92230002BC0F2A4
:1029A000B1805B4800F0E4FF5A4A59F804301168DE
:1029B000EC680B43136051686B6895F921B00B43C9
:1029C00053609168AB6895F822800B4393600023B5
:1029D000C4F8C83F2B690BEBCA021A6095F8233084
:1029E0005FFA88FC01939DF80430604619462A7D01
:1029F000CDF80CC0029300F095F9029BDDF80CC0F5
:102A000019466046082200F083F94FFA88F84249D7
:102A10004FEA08389DF9042058F80100012303FA11
:102A200002F2024348F801204FEA0A3A5AF801003C
:102A300003FA0BF202434AF801205022A263A26B70
:102A400095F8240042F4D062A263022262634FF43C
:102A500040722263AA696262EA69A2627022E2623B
:102A600042B2002A0C4614DB95F925102B4D41EAA1
:102A7000C20129607979120315594FB2BB402B432B
:102A80001351002200F044F9254A136843F400432F
:102A900013602C2303FB069393F8265020336FB268
:102AA000002F1CDB93F807A0EDB25FFA8AF82846E6
:102AB000414601223F0300F035F94FFA8AFA3A59AC
:102AC000012303FA0AF313433B51082228464146E7
:102AD00000F01EF9124A136843F4804313602C235C
:102AE00003FB0696F268136B43F00103136396F839
:102AF00028300122590903F01F0302FA03F3094A9F
:102B000042F8213005B0BDE8F08F00BFEC71200025
:102B1000E928200028200D4020940D4004410D405C
:102B200030D0004000E100E001289CBF014B43F899
:102B30002010704738010020012808D8044B2C22AF
:102B400002FB0030C3689A699206FCD41960704792
:102B5000EC712000014B00221A60704700500D40BC
:102B6000014B08221A60704700500D40024BA02212
:102B70001A6050221A60704700500D40014B024A03
:102B80009A60704700ED00E000202000024B1868BA
:102B9000C0F38150704700BF04200D4008B5FFF717
:102BA000F5FF024B53F8200008BD00BF447220001F
:102BB00038B5164D164C2B68032023F040032B60CC
:102BC0002368062123F040032360012200F0A0F8CF
:102BD0002B68012223F080032B602368032023F05D
:102BE00080032360072100F093F80A4A0A4B1A6019
:102BF0000A4B0B4A19680A40002AF9D11A68510198
:102C0000FCD41A685201FCD538BD00BF20C40D4069
:102C100000C40D400101020000200D4004200D40C1
:102C200000000101034B04481B6803F0070318412F
:102C3000704700BF04200D400048E801034B0448E2
:102C40001B68C3F302231841704700BF04200D40E6
:102C50000048E801024B02EBC10243F82200704732
:102C600040010020F8B507460E46094D002405EB4B
:102C7000411547FA04F3DB07E1B204D555F82430D7
:102C80000BB1304698470134082CF2D1F8BD00BF93
:102C9000400100202DE9F04780464FEA0837DFF871
:102CA000409007F1804505F5592500F0EFFDD5F876
:102CB000186457F809404FEAC80A24FA0AF446EAA9
:102CC0000400E4B2C0B24146F6B204FA0AF4FFF7D7
:102CD000C9FFC5F81C6447F80940BDE8F08700BF8C
:102CE00018970D4002480021802203F07FBC00BFEE
:102CF00040010020034A044B1A60044B803A1A60DA
:102D0000704700BF80400D40C4010020C00100207A
:102D1000034B01EBC0011B6843F82120704700BF43
:102D2000C4010020034B01EBC0011B6843F82120C4
:102D3000704700BFC00100200E2870B50BD1164BA4
:102D4000164E1C6844F002051D60356825F03F03EF
:102D500043F001033360124E336823F0FF031A433C
:102D60001143014331600F4B1B681B06FBD50E4B13
:102D70000E4A1B6812680E2803F0FC0343EA022384
:102D800008BF064A9BB204BF1560034A9BB208BF46
:102D9000146018B270BD00BF34000144F4860840CE
:102DA00008700D4000700D400C700D4010700D400B
:102DB000024B1868B0FA80F04009704700B708402D
:102DC00010B5074B4FF40042064CC3F89021C3F8EE
:102DD0009020206818B101F043FC0023236010BD4F
:102DE00000E100E0C8010020064A136843F0020336
:102DF0001360536843F002035360936843F0020387
:102E00009360704748200D4007B50C4800F0B0FDB6
:102E1000FFF7EAFF0A4B1A6842F002021A6000222A
:102E20000192019A0F2A02DC019A0132F8E71A682E
:102E300022F002021A6003B05DF804FBB12D2000FD
:102E400054200D40064A136823F0020313605368B0
:102E500023F002035360936823F0020393607047EA
:102E600048200D40084B93F90020002A09DB074A4F
:102E7000ED2111601160E32111601A7862F07F0288
:102E80001A700120704700BFFC0C002038880840F1
:102E90000B4B1A689207FBD41B685B065FBF094B9C
:102EA000ED221A601A60084B1B6813B1054BEF2224
:102EB0001A60064A0120137803F07F0313707047ED
:102EC0004C860840388808402C860840FC0C0020BE
:102ED00038B5A0F10B04E3B20F2B054613D80B4B0A
:102EE0001B6813F03F0302D0FFF7D2FF012304EB6E
:102EF0008404074A0B3414600BB1FFF7B3FF054B92
:102F0000E8B21D7000E0FF2040B238BD488608409E
:102F10003C860840F700002010B50B4B1B68990653
:102F200003D1FFF79FFF012300E00023074A126847
:102F3000D207FBD5064A1468C4F300140BB1FFF79F
:102F4000A7FF204610BD00BF4886084064860840A1
:102F50004C860840044B186800F02200A0F12003C2
:102F600058425841704700BF4C860840024B1868D1
:102F700000F04000704700BF4C86084038B50C4652
:102F8000002900F08880102800F28780DFE800F038
:102F9000090F1A1C23394253586F738585787A7C40
:102FA0007F003F4B1B68003318BF012370E03D4B8F
:102FB00005221B6803F07F030B3B93FBF2F30B33FB
:102FC000DBB265E0384B00E0384B1A68043B1B6805
:102FD00043EA02235CE000230B60354B354A1B6853
:102FE00003F001030B601268900644BF43F0020334
:102FF0000B60314B1B78002B4BD00B6843F0040364
:1030000046E02E4B00201B780860002B41D00123A6
:103010000B6038BD2A4B1A680023D2B2294901EB54
:10302000C3000079904202D851F8333030E00133C8
:103030000E2BF3D128E0244B1B685BB2493B27E001
:10304000224B1B68990603D1FFF70CFF012300E018
:1030500000231F4A1268D207FBD51E4A1568493D56
:10306000EDB20BB1FFF714FF6DB2256011E01A4B02
:1030700093F900300CE0194B1B7803F07F0307E055
:103080000B2305E01A2303E06FF0170300E007238A
:103090002360002038BD022038BD012038BD00BFAC
:1030A0002C8608403C860840CC850840D4850840E2
:1030B0000086084024860840FB0C0020F600002013
:1030C00040860840547220005886084048860840D0
:1030D0006486084060860840FA0C0020F90C002045
:1030E00038B505460C46134B1B689B07FBD4124BA7
:1030F00093F90030002B01DBFFF7B4FE0F4BEE22FB
:103100001A60691E1A60A21C43F8102C2144022088
:1031100000F04AFB013C0A4924012143022000F04F
:1031200055FB022000F05CFB022000F071FB002048
:1031300038BD00BF4C860840FC0C00203888084091
:1031400002C001C0F8B5214B93F90030002B0DDB14
:10315000FFF772FB0446FFF785FEFFF76DFB6FF08C
:1031600009031B1BC342F8D4012600E00026184BBC
:103170001B7823B9174D2B68990604D405E0FFF797
:10318000CBFE0028F6D10220F8BD134CE9232360C2
:1031900004272B689A0707D4013F17F0FF0703D0D5
:1031A0000620FFF725FBF4E72B689B0704D4EE23EA
:1031B00023602360012403E02C6814F00204FBD197
:1031C0000EB1FFF765FE2046F8BD00BFFC0C0020E5
:1031D000F60000204C86084038880840044B1A68E6
:1031E00010B142F0010201E022F001021A607047C2
:1031F000008608400B280DD1082A0DD161B1074B7C
:10320000083111F8012D43F8042F054A9342F8D1F3
:10321000002070470120704702207047A4850840B5
:10322000C485084070B5304E336813F0400308D0B1
:103230002E4D2B68DCB21B0605D52D4BED221A60F6
:103240001A60002070BD042CF7D9023C8C42F4DCDB
:10325000E4B2032C21D001190139032000F0ACFAAB
:10326000631E24491B010320194300F0AFFA032019
:1032700000F0B6FA032000F0CBFA032000F0D4FAF5
:103280000028FAD129681C4B4939C9B219702B683A
:103290001A4D18062B70D0D506E02B6803702B68EA
:1032A00043702B688370EDE749B289B2042001F0C6
:1032B0003DFE2978032001F07F0101F037FE104B1D
:1032C0001B7873B933685A060BD5074B1B681B066E
:1032D00003D50C4801F0C4F903E0054BED221A6058
:1032E0001A60204670BD00BF4C8608402888084000
:1032F0003888084002C0010CFA0C0020F90C0020AC
:10330000FB0C0020500000200B282DE9F84F8A46C6
:1033100011D1082A40F0828000297FD0414B01F171
:10332000FF3A53F8042D0AF8012F3F4A9342F8D18F
:103330000020BDE8F88F0C286DD1042A6ED1002939
:103340006CD03A493A480B68DFF8EC9023F0070359
:103350000B600368DFF8E4B043F008030360DBF8B8
:103360000040D9F800200B68DFF8D4C0DFF8D48023
:1033700023F070030B60D8F80050DCF80030E4B2A2
:10338000120244EA036392B2DFF8BCE01A43EBB2E4
:1033900042EA03430024DEF8002044EA03060B68F7
:1033A000D5B223F0070343F001030B6003682F46F7
:1033B00043F008030360DBF80000D9F800200B6835
:1033C000120223F0700343F010030B60D8F8005092
:1033D000DCF80030C1B241EA036392B21A43EBB2A7
:1033E00042EA0343DEF8002044EA03085FFA82F968
:1033F000FFF722FAB6EB080667EB0907F903054663
:1034000041EA5641F0030B4A002302F06FFD281AEF
:10341000CAF800008CE70120BDE8F88F0220BDE863
:10342000F88F00BFC8850840A8850840108808406C
:10343000048808400048E8011888084014880840BB
:1034400020880840248808401C880840214B1870B8
:10345000002834D0204B1B681B03FBD51F4B1A6878
:1034600042F002021A601A6842F001021A601A68F9
:103470001A495007FBD50A6822F001020A60196850
:10348000164A4907FBD4116841F002011160116826
:1034900041F0010111601A685207FCD5104A136807
:1034A00023F004031360D2F8A83123F00403C2F818
:1034B000A8310C4B4FF40052C3F890207047084AD3
:1034C000136843F004031360064B4FF400521A6173
:1034D000704700BFFB0C002004200D40048808400A
:1034E0008C86084000E100E010B50C4607285CD847
:1034F000DFE800F0040F1B1F263C4256012903D1D0
:10350000FFF7B0FC002010BD002950D1FFF7C0FC30
:10351000F8E7A1F10B030F2B49D8C8B2FFF7D8FC8D
:10352000431C0CBF0320002010BD8CB2E2B2214B23
:1035300002E08CB2204BE2B2240A1A605C60E1E740
:1035400031F0070333D101F00100FFF747FE1B4BB9
:1035500014F0020F1A68C4F3800014BF42F0200276
:1035600022F020021A60FFF771FFCBE731F0010073
:103570001DD1134B197010BD01F118031F2B16D864
:103580000D231049DA0051F83300844204DC8B1813
:103590001A790D4B1A60B5E713F1FF33F1D2B1E799
:1035A000CCB20A4B49341C60ACE7012010BD0220AC
:1035B00010BD00BFC8850840D0850840248608405B
:1035C000F6000020547220004086084058860840CB
:1035D000F8B5294F3D7815F001054BD1274B012453
:1035E0001C605C609C60A3F59323A3F51473F82220
:1035F0001A600922C3F89021152270331A6003F56E
:103600009B230B2203F59E731A60A3F59B23A3F55E
:10361000F07340221A601A687F2642F020021A6076
:10362000D52243F81C5CDE62DA61154B1878FFF78F
:103630004FFC144B4FF480421E60134B02201A6162
:1036400000F0DAF81149022000F0B6F8032000F08B
:10365000D3F80E49032000F0A7F80D4B1878FFF7B8
:10366000F5FE0C48294600F0E3FF3B782046234353
:103670003B70F8BD0020F8BDFC0C0020A8200D40D8
:10368000F70000209486084000E100E02888084008
:10369000FB0C00205000002038B503880446CBB155
:1036A00040F20342934203D000230380032038BD3D
:1036B000194B18781A4628B11B7873B1174B1B7831
:1036C00058060AD5822908D1137843B1134B1A78CA
:1036D000520614D440F203432380012038BD01F088
:1036E000D7FB01F06FFB8021FFF79CFD0028EDDD8B
:1036F00080B201F025FB0A4B1B699847E6E70022E0
:103700001A70084B1D68FFF7C3FBFFF761FFAB069C
:10371000E0D0FFF7A7FBDDE7FB0C0020FC0C00204E
:103720006C7320004886084008B5054B1B7813B918
:10373000044800F095FF044B00221A6008BD00BF4A
:10374000FB0C00205000002034880840064B07483E
:103750001A68042A1FBF06490A7842F040020A701C
:1037600000221A6000F07CBF2C8808405000002026
:10377000FC0C002010B5094C40222046002102F02C
:1037800035FF074B01221A605C60064B4FF4804204
:103790005A604FF400425A6010BD00BF0000002084
:1037A00004F00F4000E100E003289EBF014B000140
:1037B000195070470000002003289EBF024B03EB06
:1037C00000104160704700BF0000002003289EBF2A
:1037D000024B03EB00108160704700BF0000002027
:1037E00003289FBF034901230A6883409CBF1343FA
:1037F0000B60704728F00F4003289FBF0349012347
:103800000A6883409CBF13430B60704720F00F4051
:1038100003289FBF034901230A6883409CBF1343C9
:103820000B60704714F00F4003289FBF044B03EB5D
:103830000010806800F0070088BF0020704700BFBC
:1038400000000020024B4FF0FF321A60704700BFAB
:1038500004F50F40014B01221A6070474CF00F40F5
:10386000094B1A6812F4801F1A46F9D1043B1968F3
:1038700021F4803119601168C903FCD41A6842F43C
:1038800000321A60704700BF04200D4010B50A4B8B
:103890001A681C4612F0030F0CD0084B1A6851012D
:1038A000FBD41A685201FCD5FEF7B0FFFFF7D8FF32
:1038B0000023236010BD00BF58200D4004200D40A0
:1038C00038B5254B1C6814F03F0413D1234B53F833
:1038D000243023B1984768B10134052CF6D1204D2E
:1038E0002B783BB1FEF7A2FF0446FEF7A5FF201A96
:1038F000092801D830BF38BD002CFBD0194B1A68FD
:1039000022F400321A60184A1168C902FBD41968FF
:1039100041F4803119601368DB03FCD5FEF78CFF9E
:10392000201A092803D8BDE83840FFF799BF63285B
:103930000E4C02D92B78022B00D00123236000F01B
:1039400045FE20B1FFF78CFF0023236038BDFEF752
:103950006DFF0028CED1F5E748860840CC01002055
:10396000FD0C002000200D4004200D4058200D408B
:103970000023064A52F82310814206D011B942F8BA
:10398000230070470133052BF3D17047CC01002091
:10399000054B002205491A600B6943F004030B61D3
:1039A000034B1A70704700BF58200D4000ED00E037
:1039B000FD0C002010B5074B4FF48032064CC3F8C5
:1039C0009021C3F89020206818B100F049FE002330
:1039D000236010BD00E100E0E001002030B5184B8D
:1039E0001A78431E3AB9174A1278122A03D1164A96
:1039F00012784B2A03D001F52011273117E04A082D
:103A000002F12814B4F1281F04D014F8015D03F862
:103A1000015FF7E701F5201127310023934205DA12
:103A200011F801598418E5540133F7E730BD074A0E
:103A3000914204D011F8012903F8012FF7E730BDB6
:103A40002B0028002A002800290028002700280031
:103A50000FB407B504AA52F8041B0448019200F001
:103A600021F803B05DF804EB04B07047600000205B
:103A700070B505460C46102C07D92B6868680849B4
:103A80001022984750B9103CF5E734B12B686868AC
:103A90002246BDE8704002491847204670BD00BF6D
:103AA000637520002DE9F04F80468FB00691079294
:103AB0000026069B1B78002B00F05F83069B1C46AC
:103AC00013F8012B1AB9069B9C4203D10FE0252A5B
:103AD000F5D1F8E7069BD8F80400E51A0699D8F85E
:103AE00000302A469847002840F02A832E44237845
:103AF000002B00F042836378611C002B00F03D83B3
:103B000000240A4611F8013B2B2B11D006D8202B9C
:103B100011D0232B12D144F00804F2E72D2B04D04E
:103B2000302B0BD144F01004EBE744F00104E8E73C
:103B300044F00604E5E744F00204E2E7A3F13101B2
:103B400008290DD8134600251A4613F8011BA1F1C8
:103B50003000092811D80A2202FB0515303DF3E791
:103B60002A2B09D1079B01321D68191D002D0791D1
:103B7000B8BF44F0010400E0002513782E2B1CD1BF
:103B80005178531CA1F1300009280ED8194600279E
:103B90000A780B46A2F13000092801F101010FD883
:103BA0000A2303FB0727303FF2E72A2906D1931C9B
:103BB000079A111D0791176802E013464FF0FF376F
:103BC0001A786C2A09D15A786C2A02D144F0800400
:103BD0000AE0013344F060040BE0682A09D15A7806
:103BE000682A03D144F02004023302E0013344F098
:103BF00040041A78642A3CD01FD8462A48D00DD8F1
:103C0000252A5AD003D8002A00F0B78257E0412A6B
:103C10004AD0452A53D144F4424450E0582A31D086
:103C200004D8472A4BD144F4A13448E0612A38D063
:103C3000632A44D144F4A06441E06E2A3AD007D804
:103C4000662A22D027D3672A28D0692A11D036E0E5
:103C5000732A2CD006D86F2A11D0702A2FD144F4A1
:103C600040742CE0752A07D0782A28D144F4C8542F
:103C700025E044F4245422E044F410641FE044F4AA
:103C800088541CE044F4B24419E044F4007416E093
:103C900044F4844413E044F4024410E044F48134D6
:103CA0000DE044F4C1340AE044F4E13407E044F4A4
:103CB000806404E044F4E06401E044F4C06401334F
:103CC000069304F4E063B3F5806F00F0AA8116D880
:103CD000B3F5807F2BD0B3F5407F7FF4EAAE079B2E
:103CE000A04914F4804F03F104029F4818BF08460E
:103CF0000DF1330107920F461A680023C5E1B3F5B1
:103D0000C06F08D0B3F5E06F00F03182B3F5A06F5B
:103D10007FF4CFAE00E2D8F80030D8F80400934921
:103D200001229847002840F00B820136C1E6002F9F
:103D3000ACBF24F01004012714F40053039304F0E3
:103D4000E00337D0402B17D008D8DBB1202B2AD185
:103D5000079B1A1D079293F9002017E0602B11D0E2
:103D6000802B20D1079B073323F0070303F10802C0
:103D70000792D3E900230AE0079B1A1D0792B3F9C3
:103D8000002003E0079B1A1D07921A68D317002A28
:103D900073F1000109DA524263EB4303CDE90023DA
:103DA0004FF0010933E000220023CDE900234FF05A
:103DB00000092CE0402B16D007D8CBB1202B20D106
:103DC000079B1A1D07921A78EEE7602B10D0802B04
:103DD00017D1079B073323F0070303F1080207926B
:103DE000D3E90023E1E7079B1A1D07921A88DBE756
:103DF000079B00211A1D07921B681846CDE9000198
:103E0000D5E700220023CDE900234FF0000904F498
:103E1000C053B3F5805F0CD0B3F5C05F33D0B3F5BA
:103E2000006F4FD1DDE900230DF1360ACDE90423FF
:103E300004E0DDE900230DF1360A15E0DDE9042395
:103E400013433AD0DDE904010A22002302F04EF8C0
:103E5000DDE9040130320AF8012D00230A2202F0C4
:103E600045F8CDE90401E9E752EA030125D002F063
:103E7000070130310AF8011DD10841EA4371D80821
:103E80000A460346F0E7384B14F4804F0DF1360A2A
:103E9000344908BF1946DDE9002352EA03000CD07B
:103EA00002F00F00085C4FEA131E0AF8010D10091A
:103EB00040EA037002467346EFE70DF1360BCAEB9A
:103EC0000B0B03E00DF1360A4FF0000B41F6080230
:103ED00041F208035F4502EA04028CBFCBEB0707FF
:103EE00000279A4202D1002F08BF012741F608019E
:103EF0008A4207EB0B030DD1DDE9000150EA010214
:103F000008D01B4914F4804F1A4A4FF0020C18BF16
:103F10000A4602E04FF0000C62460399A1B1B9F1E4
:103F2000000F0AD104F0060102290AD0062912491D
:103F300004BF4FF0010C0A4606E04FF0010C0F4A97
:103F400002E00F4A4FF0010C63449D428CBFED1A12
:103F5000002514F0010922D1E30613D52F444D4664
:103F60001DE000BF30752000417520006175200004
:103F7000557520005275200058752000F5752000F9
:103F80002574200040462946CDF80CC00092FFF76A
:103F90006FFD009ADDF80CC0002840F0D180BCF124
:103FA000000F0DD01146D8F800306246D8F8040052
:103FB000CDF800C09847DDF800C0002840F0C08070
:103FC0003C465E44102CD8F800300DD9D8F80400D7
:103FD0006C491022CDF800C09847002840F0B0800E
:103FE000103CDDF800C0EDE75CB1D8F8040065498D
:103FF0002246CDF800C09847DDF800C0002840F008
:104000009F80D8F80030D8F8040051465A466644DC
:104010009847002840F094803E44B9F1000F79D0D1
:1040200073E0079BD3F800A01A1D0792BAF1000FA6
:1040300009D05346994699F800200133002AF9D156
:10404000CAEB090903E0DFF840A14FF00609002F91
:1040500002DBB94528BFB9464D458CBFC9EB050504
:10406000002514F0010405D140462946FFF700FD64
:10407000002865D1D8F80030D8F8040051464A46E7
:10408000984700285CD14E443EE052EA030E0ED021
:1040900002F00F0E10F80EE04FEA131C01F801EDCC
:1040A0004FEA121E4EEA037E72466346EDE70B4668
:1040B0007F1A01BF3022012701F1FF3301F8012CE3
:1040C00003377822BD4203F8012C4FF0300203F889
:1040D000022C88BFED1B4FF0230298BF002514F07F
:1040E0000104A3F1030903F8032C04D14046294637
:1040F000FFF7BEFC20BBD8F80030D8F804004946D2
:104100003A469847E0B93E4424B140462946FFF775
:10411000AFFCA8B92E44CCE4079B012D03F10402A7
:104120001B688CBF05F1FF35002514F001040792D0
:104130008DF8203008D140462946FFF799FC10B190
:104140004FF0FF301AE02E44D8F80030D8F80400C1
:1041500008A9012298470028F2D16F1C2CB14046D3
:104160002946FFF785FC0028EAD13E44A1E4079BDD
:104170001A1D1B6807921E609BE430460FB0BDE815
:10418000F08F00BF207520005A75200010B50E4C2E
:10419000236813B90D4A136010BDFEF71FFB216899
:1041A00091E80C001A44131A8A6842B192E812008E
:1041B0002144091A8B4228BF0B469268F5E7184440
:1041C000024B186010BD00BFE4010020E801002090
:1041D000014800F045BA00BF68000020F8B5038828
:1041E00005462BB1592B09D0002303800320F8BDCD
:1041F0001E4A136059232B800120F8BD872920D047
:104200008229F7D1194F00263C68002CF2D02046B5
:1042100002F012FB90B1E0688821224600F0E0F93C
:1042200050B9E060A3680EB1B36000E03B600023CA
:10423000A360FFF7ABFFE5E7FFF7CAFF2646A468D8
:10424000E3E70A490B680BB90B60D3E7D8689042E3
:1042500001D19B68F7E70B6099680029CAD0C8684C
:1042600090420ABF89680B469960F5E7E401002097
:1042700010B50446FFF7ACFFE3680B4A4BB1136877
:104280003BB1A34203D1094A1268DA6007E09B6898
:10429000F6E7064B1B68E36013681460A360BDE893
:1042A0001040FFF773BF00BFE4010020F0010020C1
:1042B000024B1868003018BF01207047E40100204D
:1042C00010B50B4A04461368984206D18368136000
:1042D00008E09A68A24203D01346002BF9D103E00C
:1042E000A2689A60FFF752FF0023A360E36010BD4D
:1042F000E4010020F8B50388064615462BB14A2B89
:1043000015D0002303800320F8BD174802F0A5FA5A
:1043100004462CB1201DA16802F076FA2468F8E763
:10432000124B01221A704A2333800120F8BD8829DC
:10433000FBD10D4802F091FA0446002CF3D0231D66
:104340009D420ED10848214602F091FA084B62695D
:104350001F681A60A2691D460AB1E06990472F6084
:10436000E1E72468E9E700BFEC010020FE0C002033
:10437000F001002010B5064B002406481C7002F026
:1043800069FA2146BDE81040034800F051B900BF6A
:10439000FE0C0020EC0100207800002070B50446DF
:1043A000E3610B4B049D1B786561A26143B1094D2C
:1043B000094B2E68201D2B6002F026FA2E6000E0CB
:1043C000A1602146BDE87040044802F064BA00BF15
:1043D000FE0C0020F001002078000020EC010020FD
:1043E00013B5034C24680094FFF7D8FF02B010BD4A
:1043F000F001002010B5084B04461B781BB10430B7
:10440000FFF75EFF01E0C36003612146BDE8104095
:10441000024802F02CBA00BFFE0C0020EC01002084
:1044200038B5836804460D469BB10A4804600220F3
:10443000A07304F10C0098470238012801D9832D9C
:1044400005D120462146BDE8384000F005B80123DB
:10445000A37338BDF00100202DE9F8431C4A04463F
:10446000156889462B4690461A4E3768A34204D0F9
:104470000BB11B68FAE7BDE8F88334B3A37BABB19B
:104480000023A37345B1AC4204D0284687212246BD
:1044900002F0C3F92D68F5E7A3683BB14C4505D0A0
:1044A000346004F10C0083212A469847D8F8003084
:1044B0009C4203D12268064B05E0134623B11A68DB
:1044C000A242FAD122681A603760BDE8F88300BFC3
:1044D000F4010020F001002010B5094B00221A70F1
:1044E000084B1C685CB1E37B3BB101230022A37342
:1044F000E27320468221FFF793FF2468F2E710BDA4
:10450000010D0020F4010020024B1878421C1A70A3
:10451000704700BF020D0020064B8A221A70064A1F
:1045200000231370054A1370054A1360054A13608F
:10453000704700BF020D0020FF0C0020000D00207E
:10454000F4010020F00100202DE9F0411A4D2B78F4
:104550000BB1FFF7C1FF194C22783AB3184E0C216A
:104560003378184F5943781817F80180013347689A
:10457000806803F01F03013A3370227068B9124B50
:104580001E689EB12B780BB1FFF7A6FF304641465F
:104590003A4602F042F93668F3E7B8F1810F04BFFA
:1045A0000123837341463A4602F037F92B7820788D
:1045B0001844BDE8F08100BF010D0020000D00206F
:1045C000FF0C0020F8010020F4010020024A034BF8
:1045D00010781B7818447047000D0020010D002052
:1045E000F0B50B4E3378202B0FD00A4C0C252478D5
:1045F000094F1C4404F01F046C4301333D19A860AB
:1046000039556A6033700020F0BD0120F0BD00BF55
:10461000000D0020FF0C0020F801002038B5034CED
:10462000256802F0FAF8256038BD00BFF0010020CF
:1046300010B50A4609490C68234683420DD00BB1D8
:104640001B68FAE748B10460086001218173838127
:104650008121BDE81040FFF7E1BF10BDF40100204B
:1046600038B1837B013B012B9FBF024A0123C373F7
:1046700013707047010D0020024610B506485360C4
:104680000468029B11609360026014B90846FEF74B
:10469000E9F8002010BD00BF7803002010B5084CD9
:1046A000206858B1002323608168436898472368D5
:1046B00023B1BDE810401868FEF7D4B810BD00BFA4
:1046C0007803002038B505880446672D09D0792D78
:1046D0002ED0002D32D1FFF717FF1B4B18701B4B4C
:1046E0001D601B4802F05CF9431C01D167231DE0EB
:1046F0000A28164B07D01A687E2AF2DC511C196072
:10470000144B9854EDE7196800254A1C1A60114AA9
:104710000D4B555428461978FFF762FF0E4B852143
:1047200018682A46FFF75CFF20B97923238009E047
:10473000852907D1054B00221A60D2E700230380A8
:10474000032038BD012038BD770E002084030020EF
:104750007C030020840D0020F00100200D2810B5FE
:10476000014615D00B4C23782BB90B4802F004F905
:1047700048B9012306E00A2805D1074802F0FCF8F1
:1047800008B1002323700548FFF76AFF012010BD20
:10479000002010BD830D00207C0300208800002035
:1047A00008B505480549802202F0DFF8BDE8084059
:1047B00003480021FFF73CBF7C030020030D0020CD
:1047C0008800002070B505880446772D30D07E2DF6
:1047D0003FD0002D4DD1FFF797FE294B1870294B84
:1047E0001D601D462B68284A264E52F823204AB1E8
:1047F00026480021C15493688020984733680133CC
:104800003360EFE7224A1370772320E01F4AD25625
:10481000002A12DB1B4A136801331360194B1C4A30
:104820001B6812789342F1DB1A4B1B68002BEBD00C
:10483000184A00231360134AEFE7114A0020117849
:10484000114A52F82320FFF7CBFE30B97E23238094
:1048500013E00B4B1B788B420FD10A4B0B491A68A4
:104860008B5C03F07F038B540A4A13680133136097
:10487000D0E700230380032070BD012070BD00BF7E
:10488000780E00208C03002040000020730E0020D2
:10489000040E002088030020094B1A78002393425D
:1048A00004DA084951F82310814207D10649074824
:1048B000CA5C62F07F02CA54FFF7D2BE0133EEE752
:1048C000040E002040000020730E002098000020FD
:1048D000054A136843F004031360044B1B68906996
:1048E00043EA002080B2704700700D4014700D4004
:1048F000174A136823F00C031360164B01221A6049
:104900001A68012AFCD1144B08221A60E322C3F86A
:10491000142203F505731946104B1B68DB07FBD502
:10492000102000230E4A0138126802F0010243EA07
:1049300002034FEA43039BB2F4D1002BF0D0094AA3
:10494000180A03F0FE0310601360EF230B6070473A
:1049500000700D40A8200D40248608406486084061
:104960009C86084014700D4010B54378047843EAE3
:104970000420054B88409B5CC2F1080203EA20201A
:104980001041C0B210BD00BFA475200010B50B4C83
:104990000B4A616E04F138000023FFF721FDFFF799
:1049A00097FF636E074AB0FBF3F101FB130104F1BB
:1049B00018000023BDE81040FFF712BD900300204F
:1049C000C9492000E1492000044B5A6E196E52007B
:1049D0008A4294BF5A665966FFF7D8BF90030020F9
:1049E00010B500F055FA00F0EDF9002303800446FD
:1049F00000F062F868B1037B5BB12388818804EB27
:104A000083025180C18801339180238001F062FFCD
:104A1000F0E720888000023080B200F091F923880E
:104A200023B1BDE81040024800F0C2B810BD00BF7D
:104A3000900300209DF80030012B04D1024B9A6DA9
:104A40005A66FFF7A3BF704790030020F8B586466B
:104A50000F4616461D46074C71462046064A00F092
:104A600095F8A765E66525660448BDE8F84000F0BE
:104A70001DB800BF9003002028732000354A200095
:104A800070B505460C46164600F062F82E612046C9
:104A9000BDE87040014902F0F3B800BFAD752000D9
:104AA000014801F0D7BE00BFFC030020014B186095
:104AB000704700BF00040020014801F0CEBE00BFD7
:104AC000FC0300202DE9F04106460B480C46174632
:104AD00001F0C3FE70B18388A34208D185684DB14F
:104AE000314622463B46AC46BDE8F041604701F006
:104AF000F1FEEFE7BDE8F081FC030020054B10B5A7
:104B00001B689847044618B10120A18800F00EFAEE
:104B1000204610BD1C73200038B5064B05465B6867
:104B200098470446A988012000F000FA201C18BF0D
:104B3000012038BD1C732000014B9B68184700BF43
:104B40001C732000014801F085BE00BF0404002052
:104B5000034681800148194601F09DBE04040020EF
:104B60000146014801F083BE0404002010B504464C
:104B7000054801F072FE28B18388A34202D001F0FB
:104B8000A9FEF8E710BD00BF0404002070B505467B
:104B90000C461646044AFFF773FF6E612046BDE8D7
:104BA0007040024902F06CB830732000AF752000ED
:104BB00010B5044604491A2000F0C6F92046BDE8A5
:104BC000104002F04FB800BF700E0020F8B5074645
:104BD0000A480D46164601F040FE044638B1A36867
:104BE0000BB128469847204601F074FEF5E7384699
:104BF00029463246BDE8F84002F03BB808040020E0
:104C000038B5FFF77BFF0546094801F026FE04464C
:104C100030B1636803B19847204601F05BFEF6E7C8
:104C200025B12846BDE8384002F01EB838BD00BFA7
:104C30000804002010B50446FFF76EFF38B100F0FD
:104C40009BF8034B034821469B689847012010BD01
:104C500098732000CD4B200008B5044801F03DFEBC
:104C6000BDE80840024801F038BE00BFB400002093
:104C7000A800002038B50E4801F03FFE0446A8B158
:104C80000C4801F03AFE0546206028B92146084844
:104C900001F047FE284638BD00F09CF805F1B6014A
:104CA000A5F8800005F1820000F018F9204638BD13
:104CB000A8000020B400002010B504460748214693
:104CC00001F045FE48B12168054801F02AFE214661
:104CD000BDE81040014801F024BE10BDA80000202E
:104CE000B400002010B504460948214601F02FFE0B
:104CF00068B12468B4F88010204600F0D9F804F1B7
:104D0000820004F1B601BDE8104000F0FBB810BD10
:104D1000A800002010B508490B888342A1BF074CAA
:104D200080B222881218A1BF181A088022800120A0
:104D3000B8BF002010BD00BFEC0C0020EE0C00201E
:104D4000014B1880704700BFEC0C002000487047F2
:104D50002C040020014B1888704700BFEC0C002089
:104D6000034A044B10781B781844C0B2704700BF48
:104D7000150E0020EE0C00202DE9F0410D4B1A8895
:104D80001D46A2B10C4B00261F880C4B93F80080E7
:104D900034B2BC4206F1010607DAFFF7E1FF084B27
:104DA0001C44235C04F80830F2E700232B80BDE8A4
:104DB000F08100BFEE0C0020EC0C0020150E00204E
:104DC0002C04002008B5FFF7CBFF014B184408BDA9
:104DD0002C040020F8B50C4B07461C780B4B1E88A2
:104DE000A519802D0CDC2246094901F089FBFFF74B
:104DF000E9FF3C4401463246204601F081FB00E0D9
:104E000000252846F8BD00BF150E0020EC0C002040
:104E10002C04002008B5FFF7A3FF024B1B881844A1
:104E200080B208BDEC0C002010B50446FFF7F2FF7D
:104E30002318802B0FDC013880B202B2002A04DB79
:104E4000064B995C23449954F5E7054B18782044A8
:104E50001870012010BD002010BD00BF2C040020E0
:104E6000150E002010B507480021342201F0BEFBCA
:104E70000024054805492044023401F06EFF082C47
:104E8000F7D110BD3C0E0020340E0020B873200076
:104E9000044A00231380044A1380044A1370FFF766
:104EA000E1BF00BFEE0C0020EC0C0020150E00202E
:104EB00038B50C460546FFF7EBFF802C28BF802451
:104EC00029462246034801F01BFB034B20461C8069
:104ED00038BD00BF2C040020EC0C002010B5074B9F
:104EE00003F1340253F8044B934240F8044BF9D1D8
:104EF000034A13680B6053684B6010BD3C0E0020E2
:104F0000340E002010B5074B00F1340250F8044B6A
:104F1000904243F8044BF9D10B68034A13604B6885
:104F2000536010BD3C0E0020340E0020024B23F8CD
:104F300010100120704700BF3C0E0020014B33F8D9
:104F4000100070473C0E002008B5044B1A3803EBE4
:104F5000400001F002FF012008BD00BF340E002018
:104F6000024B1A3803EB4000704700BF340E00209C
:104F70000148024901F0F4BE360E0020B87320004B
:104F8000084B10B51B689847074B5B689847074B61
:104F90005B689847064B5B689847BDE81040054B37
:104FA0005B681847C47220006C732000987320005F
:104FB000507320003873200070B5FDF70FFC0446D5
:104FC00000261A200E4DFFF7CBFF0C2303FB0655DE
:104FD000294601F0C5FE78B10A20FFF7AFFF2B7A12
:104FE000834201D0002070BD6868201AB0F5206FA0
:104FF0008CBF0020012070BD0136102EE1D1F1E7F9
:10500000AC04002070B500251A20164CFFF7A8FF4D
:105010000C2101FB054101F0A3FE6B1C10B9102B04
:105020001D46F1D10C225E1E02FB0343183B0C3BD4
:1050300046B103F1180503F10C0207CA013E85E8E9
:105040000700F4E70A20FFF779FF2072FDF7C6FB9F
:1050500060601A20FFF784FFBDE8704001460148F8
:1050600001F07BBEAC04002030B591B0054600F0E5
:105070008FF84FF6FF73984202D14FF0FF3081E076
:1050800040226846002101F0B1FA3F4B1A782AB954
:1050900001221A70FFF71CFC3C4B18701420FFF71C
:1050A0004DFF8DF810001320FFF748FF8DF8120018
:1050B000FFF75EFF044628B100238DF813308DF80A
:1050C000153006E00B20FFF739FF8DF815408DF8FD
:1050D0001300002301248DF814308DF81840ADB171
:1050E0000A20FFF72BFF28B10A20FFF727FF8DF8D2
:1050F0001A000BE0254B1A7802B91C7019780A20A7
:105100004A1C1A708DF81A10FFF710FF02248DF850
:10511000194000F03DF8ADF81C00FFF729FF38B149
:10512000FF238DF817408DF800308DF8013008E02E
:105130001B20FFF715FF0146684601F00EFE8DF8B3
:10514000174000F025F8ADF81E001A20FFF708FF01
:10515000014602A801F001FEFFF734FE0E90FFF7B2
:10516000F9FD0F90684601F001FF04464DB1FFF7CD
:105170005BFE002881D0FFF7E9FD0146684601F09B
:105180003FFF204611B030BD170E0020160E002044
:10519000014B1888704700BFF40000202DE9F04152
:1051A000012986B006460F46144640F3868003A9BF
:1051B00001F06FFF03AB03CB1B88206123839DF8B5
:1051C000113061610BB1B51C02E0B378F51CA37618
:1051D00003A801A902AA01F020FE9DF81380B8F1EE
:1051E000000F23D0029B23B16A7815F8023B03EB32
:1051F0000223B8F1020FA38309D12046314901F0FF
:10520000ACFD6B78237015F8023B637014E0B8F1C5
:10521000030F11D105F108021346611E13F8010DA9
:10522000AB4201F8010FF9D1154605E020462549AA
:1052300001F093FDA4F81C809DF81580B8F1000FD3
:105240002BD0019B53B16A7815F8023B03EB022384
:10525000029A9BB2E3831AB9A38301E0A38BE38391
:10526000B8F1020F0AD104F10800164901F075FDEA
:105270006B78237215F8023B637215E0B8F1030FE7
:1052800012D108352A46E31D04F10F0112F8010D71
:1052900003F8010F8B42F9D106E004F10800094937
:1052A00001F05BFDA4F81E80AE1BBB1BE363A5638E
:1052B000BE42D4BF3046002000E0002006B0BDE86A
:1052C000F08100BFB8732000014BDB68184700BFB6
:1052D00098732000014B5B69184700BF6C73200076
:1052E000014B9B69184700BF6C732000024BD869C3
:1052F00000B10047704700BF6C73200013B504462F
:1053000068B1006B01F0A9FA024640B12146054B95
:105310000548DB68019302B0BDE81040184702B0B1
:1053200010BD00BF6C732000E970200070B590F8CC
:1053300029200F4B032A88BF04220124DB699440F3
:1053400005469847002808BF0120013C444305D08A
:10535000FFF7BEFAB0FBF4F303FB140405F10800F9
:1053600021462B46BDE87040024AFFF739B800BF1E
:105370006C732000FD5220002DE9F04107461B20F0
:105380008846FFF7EDFD484B05461A78474C22B991
:1053900001221A70FFF79CFA2080238813B9434B2F
:1053A00001221A8021880A204B1C2380FFF7BEFDB2
:1053B0003F4801F052FA044640B1201D294601F051
:1053C000CFFCD8B9204601F085FAF4E7394801F05E
:1053D00094FA044640B32946201D01F0BEFC002388
:1053E00004F12C00206384F8283084F82930E3622B
:1053F00001F030FA2E48214601F04DFA206B01F001
:1054000062FA072810DC2C4801F077FA054698B9B3
:10541000206B01F058FA38B92548214601F027FAE7
:105420002448214601F07DFA38464146BDE8F04166
:105430000422012301F04DBE204801F05EFAA8606D
:1054400058B3FFF717FC686018B30920AE68FFF780
:1054500075FD10B90823337203E00920FFF76EFDD4
:10546000307286E880010D20FFF768FD012829468B
:10547000206B02D101F01EFA01E001F00CFA206B62
:1054800001F0EBF985420DD12046BDE8F041FFF770
:105490004DBF0A48A96801F044FA2946064801F0C0
:1054A00040FAB5E7BDE8F081200E0020F00C0020A6
:1054B00034060020CC000020D8000020C0000020CE
:1054C00008B5054801F009FA044801F006FABDE8FC
:1054D0000840034801F001BAD8000020C0000020B5
:1054E000CC0000202DE9F0470D4614468B68074696
:1054F000106BD3F80090D3F8048092F8286001F084
:10550000B6F96868FFF7D8FBA968144801F009FAF2
:105510001348294601F005FA206B01F09EF940B1CD
:10552000002384F8283084F829302046FFF7FEFE57
:105530000BE004F10800FEF75DFF0A48214601F088
:1055400096F90948214601F0ECF9484641463A46A9
:105550003346BDE8F04701F0BCBD00BFC0000020ED
:10556000D800002034060020CC0000200A4B13B5E0
:1055700000241C70094B1C80FDF75EF9009400F5B7
:1055800080510122064B0748FFF776F8064B0122AF
:105590001A7002B010BD00BF2E0E0020F20C0020C9
:1055A0005D5A2000A0060020320E0020074B82B07A
:1055B0001B784BB1064B1A7832B901221A70054B91
:1055C0001B6A019302B0184702B07047320E0020E8
:1055D0002E0E0020C4722000094B82B01B786BB1E4
:1055E000084B1A7852B1084A127802F0FF012AB922
:1055F0001970064B5B6A019302B0184702B07047FE
:10560000320E00202E0E0020310E0020C472200029
:1056100008B5FFF7E1FF024B00221A6008BD00BF8A
:105620009C060020044B1B7823B9044B1B680BB964
:10563000FFF7D2BF704700BF300E00209C0600204D
:10564000094B00221A70094BC2B21A7082B0084A84
:10565000084B18B1012111701B6A01E05B6A1070E0
:10566000019302B0184700BF320E0020310E002017
:105670002E0E0020C472200037B50B4B1A7802F0B2
:10568000FF056AB901241C70084B1D70FDF7D4F8A2
:10569000009500F5805122460548064BFEF7ECFFC9
:1056A000012003B030BD00BF320E0020310E0020BB
:1056B000A00600205D5A200037B50A4B05461B782E
:1056C0000C466BB1FDF7B8F8231A022B48BF841CB7
:1056D00000230093284621460122034BFEF7CCFF0E
:1056E00003B030BD320E00205D5A200013B5234BAD
:1056F0001A681C460AB9FFF76FFFFFF72BFB032858
:1057000039D0FFF787FB002835D01D4B9B689847A1
:10571000002830DBFFF71EFB68B3FFF77BFB50B3BD
:105720001B20FFF71DFC174901F01AFB68B113207D
:10573000FFF704FC206068B1FFF738FF124804212E
:10574000124A0023FEF74CFE09E0FFF711FC002887
:10575000EDD110E0FFF740FF0B48FEF74BFEFFF7DF
:105760002BFC40B9FFF74EFC094BDB68019302B0FC
:10577000BDE81040184702B010BD00BF9C060020D5
:105780008C732000700E0020AC0600201156200003
:10579000507320002DE9F04F744E89B03378049097
:1057A00023B9734B1B780BB90525DBE0FFF732FB00
:1057B0000028F9D06F491A20FFF7C6FBFFF7D8FB86
:1057C00007460C20FFF7BAFB98B1FFF723FB824690
:1057D000694C4FF001096568FFF7B8FA5146A847D0
:1057E000664DA36985F8009001939847A84678B95B
:1057F00009E001210B20FFF799FB614B5B6898479B
:105800000028E2DAD0E7E36902939847054618B129
:10581000002388F8003085E0FFF7DEFE337886F855
:105820000090DBB20393049B63BB4FF00609FDF7C6
:1058300003F88346FFF7BAFEFCF7FEFF6FF00303A1
:10584000CBEB0303C342F7D463699847834648B957
:10585000FFF7C2FE88F800B0FFF7BEFE9DF80C30DF
:1058600033705FE0FFF7B8FEFCF7E6FF8346FCF716
:10587000E3FF6FF00F03CBEB0303C342F7D4B9F19F
:105880000109D4D1003718BF01270FB9FFF78EFEE9
:105890000A20FFF753FB5FFA80FBFDF767F9FCF77F
:1058A000CBFF8146FCF7C8FF364BC9EB0303C3426D
:1058B00044D5FDF75BF9002F36D0A36850469847D2
:1058C000FCF7BAFF02460592FCF7B6FF059A6FF0A7
:1058D0000C039B1AC342F6D4002FE3D1019B9847D7
:1058E00070B3FCF7A9FF8146FCF7A6FF6FF0140325
:1058F000C9EB0303C342F7D4236907A803219847E0
:10590000032826D19DF81E305B4522D100244FF09C
:105910000109FFF761FE9DF80C303370002388F811
:105920000030D4B101251DE0049B002BC5D0FCF74D
:1059300083FF154BC9EB0303C342BED4002409E027
:10594000029B98470028CCD1636998470028C8D0AB
:10595000A8E701244FF00009DBE71FB9994514BF00
:105960001D460225284609B0BDE8F08F320E002002
:10597000310E0020700E0020C4722000300E002076
:105980008C732000B0EFFFFFDEFDFFFF2DE9F04735
:10599000074688461546002A58D02D4B1B683BB158
:1059A0005068FFF79FF9012238464146134621E02F
:1059B0001646304600F08EFF04467068FFF792F9F5
:1059C0000C20FFF7BBFA00BB1CB113200121FFF72D
:1059D000ADFA20491A20FFF7B7FA01210B20FFF793
:1059E000A5FA1D4B5B689847002807DA3846414600
:1059F00005220123BDE8F04701F06BBB0C2001211B
:105A0000FFF794FA706801F094F92646002CD0D183
:105A1000284600F05FFF06466868FFF763F9132029
:105A2000FFF78CFA81462046FFF7B4FE03280446B0
:105A30000CD0384641462246012301F04AFB2CB9DE
:105A400026B135460124B9F1000FE1D1BDE8F08758
:105A50009C060020700E00208C73200040F2B112D2
:105A60002DE9F3476B4C80462388934218D0B3F559
:105A7000D97F07D2002B40F0BC80FCF7DDFE664BDF
:105A8000186008E040F2E312934235D040F202225F
:105A9000934240F0AE80614A00231370604A02E0F6
:105AA0005F4A1378013313705D4B1B78012B16D8B6
:105AB0005C4B1A78002A40F0A3805B4A1268002AE7
:105AC00040F09E801B780BB9FFF770FD574B5B6968
:105AD0009847002840F09280504B01221A704F4B9B
:105AE0001B78002B71D0FCF7A7FE514B514A186070
:105AF00000231370504A13704A4BDFF848911B780B
:105B0000002B4BD199F80030002B47D0FCF794FEC6
:105B1000474B1A686FF4CC739B1AC3423ED5434D72
:105B2000444F6B69984718B13B7801333B7000E0F4
:105B30003870414ED5F818A0337801333370D04710
:105B400008B100233B703B78052B02D9FFF76AFDB3
:105B500024E033780A2B05D9D04718B9EB69984768
:105B60000028F3D0EB699847C0B9344B1B7893B148
:105B7000D8F80050FCF760FE05F114062D1A15F157
:105B8000120F48BF861C0023009340463146012275
:105B90002B4BFEF771FD40F2E3132BE099F8003038
:105BA0009BB1224DAB69984748B1FCF745FE204BAD
:105BB0001A686FF4CC739B1AC34204D505E0EB69F5
:105BC00098470028F1D1FFF72DFD134D2B6803F501
:105BD00080532B60FCF730FE2B68C3F1A003C34257
:105BE0007FF559AF29684046FFF766FD40F2022372
:105BF00000E00023238002B0BDE8F087FFF712FD2C
:105C0000FCF71AFE00F110014046FFF755FD40F287
:105C1000B113EFE7F20C0020980600202D0E0020B3
:105C20002B0E0020300E00209C060020C4722000A5
:105C3000CC0600202F0E00202C0E0020320E00205B
:105C40005D5A20002E0E002008B5024B1B689847B5
:105C5000023008BD4473200038B50C4B9B68984750
:105C6000041E02DA4FF0FF3038BDFFF7ABF80378BF
:105C70000546002BF6D10220FFF74CF80028F1D0A2
:105C80006878FFF75DF8A01C38BD00BF44732000A2
:105C900070B50220FFF7C8F810B94FF0FF3070BDA3
:105CA000FFF754F8002505700446FFF753F86070BD
:105CB000FFF7B0F80446FFF7C7FF20442A2812DC9C
:105CC000C0F12B00C4B2FFF77DF80646FFF742F89B
:105CD00029462246304400F089FCFFF73BF8204477
:105CE00080B2FFF72DF8044B5B689847041ED4DBA5
:105CF000FFF742F8A01C70BD44732000014B9B6865
:105D0000184700BF3873200070B505460C461420B4
:105D10000121FFF70BF9034B28462146BDE87040EF
:105D20009B681847507320008329F7B506460C4638
:105D3000174602D1404800F0C5FF35882DB1AE2D81
:105D400042D000233380032073E03C4B3C4C4FF4A3
:105D5000807001469B689847E36A0D2101209847AF
:105D6000A36A01A9374C01209847374800F0F2FC9C
:105D7000627821783548FDF76BFE01993448FDF7CC
:105D800067FE344800F0E6FC334821460570457054
:105D900000F0E6FF314B186040B13148217862785D
:105DA000FDF756FE0120FCF75FFBFBE7224881214F
:105DB0002C4AFEF7EBFE2C484FF4C07100F024FD96
:105DC000AE233380012034E0284B1B78A3420ED150
:105DD0001A4B9F42EFD17B68002098470028EAD1F8
:105DE000234800F0B7FC234B01221A70E3E71E485A
:105DF00000F022FD8442DED11E4B1C781CB91E48E7
:105E0000FDF726FED7E7012CD5D11C4800F0A2FCF7
:105E10002046FCF729FB0E211948FFF749F80648F0
:105E2000FEF7C6FE174800F095FC2046FCF724FB61
:105E3000C1E703B0F0BD00BFE0060020DC71200028
:105E4000C4722000700E0020D0752000F77520006D
:105E50000C76200024762000F40C0020F8060020A8
:105E60004C762000B0732000D0060020780E002071
:105E70008A762000330E0020AB762000BE7620000C
:105E8000F37620000177200008B589B2FFF710F8FB
:105E9000BDE808400148FEF78BBE00BFE0060020C9
:105EA00073B50C460220FCF7DFFA26786578FEF71A
:105EB00089FF04460420FFF741F800B2314623462B
:105EC0002A4600900848FDF7C3FD0220FCF7D4FAEB
:105ED000FEF778FF0446FEF73DFF0146204602B07C
:105EE000BDE87040FFF7D0BF1977200053B94AB919
:105EF000002908BF00281CBF4FF0FF314FF0FF30D2
:105F000000F03CB882B0EC462DE9005000F01EF8DD
:105F1000DDF804E002B00CBC704700BF2DE9F04191
:105F2000069C904606460F461D4600F029F808FBE1
:105F300001FCA8FB002300FB05C5B21A2B4467EB4C
:105F400003038646C4E90023BDE8F0812DE9F84348
:105F5000089E1746804689461D4600F067F900FBFB
:105F600005F3A0FB074507FB0137B8EB04043D44EC
:105F700069EB0505C6E90045BDE8F883704700BF39
:105F800000292DE9F043C0F2A8800026002BC0F2C2
:105F90009E8081468E4690469C46174604460D4696
:105FA000002B3DD18A4259D9B2FA82F33BB1C3F1F9
:105FB00020029D4020FA02F29F4015439C40390C7C
:105FC000B5FBF1F01FFA87FE01FB10550EFB00F345
:105FD000220C42EA0545AB4209D9ED1900F1FF3226
:105FE00080F00B81AB4240F2088102383D44ED1A4B
:105FF000B5FBF1F301FB13550EFB03FEA4B244EA1B
:106000000545AE4508D9ED1903F1FF3280F0F78060
:10601000AE4540F2F480023B43EA0043002203E035
:106020008B420FD900221346341C18BF0124604252
:106030004FF0000565EB450158405140001969419A
:10604000BDE8F083B3FA83F2002A40F089808B42E6
:1060500002D3804500F2E2800123E5E712B9012373
:10606000B3FBF2F7B7FA87F8B8F1000F3BD1ED1B9D
:106070004FEA174C1FFA87FE0122B5FBFCF00CFB20
:1060800010550EFB00F3210C41EA0545AB4207D940
:10609000ED1900F1FF3102D2AB4200F2C380084695
:1060A000ED1AB5FBFCF30CFB13550EFB03FEA4B27B
:1060B00044EA0545AE4507D9ED1903F1FF3102D297
:1060C000AE4500F2AD800B4643EA0043ACE75242D6
:1060D0006FEA060663EB43035BE7404261EB410175
:1060E0004FF0FF3652E707FA08F7C8F1200225FA09
:1060F00002F34FEA174CB3FBFCF11FFA87FE0CFBCF
:10610000113324FA02F205FA08F50EFB01F92A43CD
:10611000100C40EA0343994504FA08F407D9DB1947
:1061200001F1FF3078D2994576D902393B44C9EB69
:106130000303B3FBFCF00CFB10330EFB00F592B233
:1061400042EA03439D4207D9DB1900F1FF325FD2D7
:106150009D425DD902383B445D1B40EA01428CE719
:10616000C2F1200328FA03F10CFA02FC41EA0C0CFC
:106170004FEA1C402EFA03F1B1FBF0F51FFA8CF741
:1061800000FB151129FA03F30EFA02FE07FB05F9CD
:1061900043EA0E0E4FEA1E4343EA0141894508FADD
:1061A00002F808D911EB0C0105F1FF3332D2894511
:1061B00030D9023D6144C9EB0101B1FBF0F300FBB2
:1061C000131107FB03F71FFA8EFE4EEA014E7745C7
:1061D00008D91EEB0C0E03F1FF3117D2774515D904
:1061E000023BE64443EA0543A3FB0889C7EB0E0ED6
:1061F000CE4509D305D0002216E71046F7E6134630
:106200000AE794404445F6D2013BF4E70B46E9E740
:106210001046A1E71D46CEE7014688E7134603E78F
:10622000023B51E702383D443AE700BF2DE9F04315
:10623000002B44D18A42154604464FD9B2FA82F760
:106240000E464FB1C7F12003B94020FA03F602FA17
:1062500007F50E4300FA07F42F0CB6FBF7F01FFA10
:1062600085FE07FB10620EFB00F1260C46EA024396
:10627000994209D95B1900F1FF3280F0EE80994212
:1062800040F2EB8002382B44591AB1FBF7F307FBBD
:1062900013110EFB03FEA4B244EA01418E4508D956
:1062A000491903F1FF3280F0DA808E4540F2D78041
:1062B000023B43EA004000263146BDE8F0838B42B2
:1062C00047D8B3FA83F6002E48D18B4202D38242DC
:1062D00000F2CF8001203146BDE8F08312B90125DC
:1062E000B5FBF2F5B5FA85FCBCF1000F78D1491B7E
:1062F0002F0C1FFA85FE0126B1FBF7F007FB1011EA
:106300000EFB00F2230C43EA01418A4207D94919E6
:1063100000F1FF3302D28A4200F2BC801846891A8B
:10632000B1FBF7F307FB13110EFB03FEA4B244EA23
:106330000142964508D9521903F1FF3180F091804E
:10634000964540F28E80023B43EA00403146BDE86C
:10635000F083002630463146BDE8F083C6F12004C4
:1063600022FA04F5B3402B4321FA04F74FEA13480D
:10637000B7FBF8FC1FFA83F908FB1C7720FA04FE30
:1063800001FA06F509FB0CF44EEA05054FEA154E35
:106390004EEA0747BC4202FA06F204D9FF180CF194
:1063A000FF3168D38C463F1BB7FBF8F408FB14772A
:1063B00009FB04F9ADB245EA0741894504D9C9187A
:1063C00004F1FF355DD32C4644EA0C44A4FB0223C0
:1063D000C9EB0101994249D345D0204600266BE71D
:1063E000CCF1200405FA0CF521FA04F32A0CB3FBD6
:1063F000F2F61FFA85FE02FB163820FA04F701FABE
:106400000CF10EFB06F90F433C0C44EA0843994596
:1064100000FA0CF407D95B1906F1FF3138D299451F
:1064200036D9023E2B44C9EB0303B3FBF2F002FB67
:1064300010330EFB00F1BFB247EA0343994207D97C
:106440005B1900F1FF3721D299421FD902382B4442
:106450001746591A40EA06464EE7104614E7134617
:1064600027E70B4670E7B0409042B6D2601E002688
:1064700022E7304620E7BC4294D9ACF1020C1F441D
:1064800091E789459FD9023C19449DE73846DFE7EB
:106490000E46C8E70238294441E700BF032A70B41A
:1064A00026D940EA01039B0711D004780D78AC424D
:1064B00022D10244431C05E013F8014B11F8015F9F
:1064C000AC4219D19342F7D1002070BC70470C4602
:1064D00003461E6825681846AE42214603F10403B0
:1064E00004F1040404D1043A032A18462146F0D8E2
:1064F000002ADAD11046E8E7601B70BC704700BF85
:10650000844641EA000313F0030349D1403A23D300
:106510000B6803604B6843608B688360CB68C36023
:106520000B6903614B6943618B698361CB69C3610B
:106530000B6A03624B6A43628B6A8362CB6AC362F3
:106540000B6B03634B6B43638B6B8363CB6BC363DB
:1065500040304031403ADBD230320BD30B6803601D
:106560004B6843608B688360CB68C3601030103128
:10657000103AF3D20C3205D351F8043B40F8043BF7
:10658000043AF9D2043208D0D2071CBF11F8013BFB
:1065900000F8013B01D30B8803806046704700BFC1
:1065A000082A13D38B07B1D010F00303AED0C3F188
:1065B0000403D21ADB071CBF11F8013B00F8013BB2
:1065C000A4D331F8023B20F8023B9FE7043AD9D329
:1065D000013A11F8013B00F8013BF9D20B78037046
:1065E0004B7843708B7883706046704770B4840733
:1065F00046D0541E002A41D0CDB2034602E0621EAE
:10660000E4B3144603F8015B9A07F8D1032C2ED9A2
:10661000CDB245EA05250F2C45EA054519D9264690
:1066200003F11002103E0F2E42F8105C42F80C5C91
:1066300042F8085C42F8045C02F11002F2D8A4F1BE
:10664000100222F00F0204F00F041032032C134446
:106650000DD91E462246043A032A46F8045BFAD8AE
:10666000221F22F003020432134404F003042CB16D
:10667000C9B21C4403F8011BA342FBD170BC704794
:1066800014460346C2E700BFFEE708B5FBF7FEFD70
:1066900073B50646002425463046FBF7E5FE002389
:1066A0000193019BAB4203DA00BF019B0133F7E783
:1066B0003046FBF7E1FE00230193019AC5F5C8734C
:1066C0009A4203DA00BF019B0133F5E70134B4F5C8
:1066D000487F05D0B4F5C87FDDDDC4F54875DBE73C
:1066E00002B070BDFBF77EBFFCF72CB870470020EE
:1066F000FCF70CB90120FCF709B90020FCF7CABA75
:106700000120FCF7C7BA0220FCF7C4BA0320FCF74B
:10671000C1BA10B50C46FCF7E3FC2046BDE81040BA
:10672000FCF710BD10B504460020E1B2FCF704FAF6
:10673000204610BD70B5054604464618601B44B19E
:10674000237833B1B44204D018460134FFF7EAFF8E
:10675000F4E770BD38B50546002415F8010B20B1EB
:10676000FFF7E0FF0134002DF7D10A20FFF7DAFF31
:10677000204638BD002070470120704710B5044600
:1067800000210E203022FCF7D7FA84B1012C0CD165
:1067900042F210730011A0F28E5058432A2390FB4E
:1067A000F3F000F5C340283010BD4FF0004010BD9D
:1067B000002070470120704710B5044600210F20CB
:1067C0003022FCF7B9FA5CB1012C07D140F6F25344
:1067D000584347F6F07390FBF3F010BD4FF00040C4
:1067E00010BD08B51AB108461146FFF7A3FF0020F7
:1067F00008BD10B5041F54F8040F18B10021FDF7AF
:1068000017FFF8E710BD704710B5044600F00DF80B
:106810002046BDE81040FDF72BBD837BDB0701D58B
:10682000FDF7FEBD7047FFF761BF10B5416004463C
:10683000FBF7D4FF206010BD10B50446FBF7CEFF78
:106840002368C3F101030344606898422CBF002011
:10685000012010BD00230360704700687047006886
:1068600000B9704703680BB11846FBE7704703682F
:1068700010B57BB100228B4207D10B680AB90360C7
:1068800000E0136000230B6010BD1C681A460CB1B9
:106890002346F0E710BD38B505460C46FFF7E7FF85
:1068A000002323602846FFF7DAFF08B92C6038BDC3
:1068B000046038BD38B504460D46FFF7D8FF23689D
:1068C0002B60256038BD0368002013B101301B68C0
:1068D000FBE7704700B10068704710B5044600211F
:1068E00062884068FFF782FE23886288A0680021E2
:1068F0005A43BDE81040FFF779BE10B54188002328
:106900008B420CDA4268D418D25C32B90122227070
:106910000188826801FB032010BD0133F0E70020ED
:1069200010BD30B5826844880023A3420DDA8A4244
:1069300007D14168CA5C0AB1013ACA544268D05CC6
:1069400030BD058801332A44EFE7FF2030BD82685F
:10695000914208D34388008800FB032081422CBF6A
:10696000002001207047002070470023013A016099
:10697000027143718371704710B54279837904794C
:10698000D31A2340A3421FBF0368995443795A1C6A
:106990001FBF037913404371012008BF002010BDC1
:1069A000837942790179D21A0A421FBF0268D25C08
:1069B00001330B401ABF837110464FF0FF30704710
:1069C000831C0020023313F8042C1AB113F8032C93
:1069D0001044F7E77047072B2DE9F8430746884630
:1069E00014461D4607DC084611461A46FDF7BCFF53
:1069F0003870BDE8F8834FEAE309AAB1002608EB36
:106A0000060021460822FDF7AFFFB85501364E4576
:106A1000F5D115F0070216D008EB06002146FDF768
:106A2000A3FFB855BDE8F88318F804303B5501348E
:106A30004C45F9D115F0070205D008EB0400002100
:106A4000FDF792FF3855BDE8F8832DE9F341FEF7D5
:106A5000B9F904460220FEF75DF908B9002044E0C8
:106A60006078237803EB002080B2FEF77FF80546BC
:106A70000028F3D0FEF7A6F98046287B10F0070324
:106A800018BF012303EBD000FEF744F90028E5D03E
:106A9000AC680026023414F8023C2BB3192B14F80E
:106AA000017C08EBE60106F0070209D901A83B4684
:106AB000FFF791FF14F8020C01A9FEF745FA10E068
:106AC0000023ADF8043001A83B46FFF784FF9DF892
:106AD00005109DF8043014F8020C43EA0121FEF77A
:106AE00025FA3E440234D6E7284602B0BDE8F081DC
:106AF000072BF0B506DC1278C1F11001CB1A02FAAF
:106B000003F322E0DD1049B3571E00EB050E70457C
:106B10000FD017F8014FC1F10806B4400678C4F34E
:106B2000072C4CEA0606067010F8016F3443047017
:106B3000EDE713F007042AD0535DC4F108021144B5
:106B40000B41DBB2C4F11004A3400278C3F3072168
:106B50000A430270427813434370F0BD545C4454BE
:106B60000131A942FAD113F0070310D0525CC3F1EE
:106B700008052A41C3F1100302FA03F3425CC3F390
:106B800007252A4344184254627813436370F0BDCA
:106B90002DE9F743047B054614F0070318BF0123D2
:106BA00003EBD404A01CFEF73FF998B3FEF7CEF830
:106BB000AB880370AB881B0A4370FEF7C7F8871CCD
:106BC000224638460021FFF711FDAC68002502344B
:106BD00014F8020CE8B1192814F8016C07EBE50968
:106BE00005F0070805D9FEF7BBF9414602464846BD
:106BF00009E0FEF7A3F98DF80400000A8DF80500FE
:106C00004146484601AA3346FFF772FF3544023435
:106C1000DEE7012003B0BDE8F0837047F7B50F460B
:106C2000FEF7D0F803880446ADF80030BDF80060E8
:106C3000FEF790F8B300023383420FD802340025E8
:106C4000B5420BDA54F8040B01350190BDF804107D
:106C50003846BDF80620FDF735FFF1E703B0F0BD7B
:106C6000FDF77EBFFDF7E6BF03691B6803B1184758
:106C7000704703695B6803B118477047FDF762BF4F
:106C800038B50D46FDF772FF044620B185602846F1
:106C9000FDF752FF207338BD43695B6803B11847A5
:106CA000704713B504461A20FEF75AF9014601A8A9
:106CB00000F053F863691B6813B1204601A9984797
:106CC00002B010BDFFF7CCBF10B5FDF7C5FFFEF752
:106CD000DFF8FDF7E5FEFFF7D1FFBDE81040022029
:106CE0004FF400714FF4F0524FF4E123FDF7AEBEC4
:106CF0000EF00F000D2808BF00F00EB800982DE927
:106D0000F04F00F1240181F3098890E8F08F0EF034
:106D10000F000D2818BF7047EFF3098020E9F04FEE
:106D20000990BDE8F08F016801F18200B631FEF7ED
:106D3000D5B810B5046804F1820004F1B601FEF77D
:106D4000CDF82046FEF746F8A4F8800010BD036891
:106D500003EB4101B1F8820070470B880380704754
:106D600008B50222FFF79AFBB0FA80F0400908BD8F
:106D700030B591B0FEF726F80446FDF7EBFF6A4602
:106D800001462046FEF70AFA044610B94FF0FF30DC
:106D90003BE0FDF7BFFF0028F8D014209DF810104D
:106DA000FEF7C4F89DF81730ABB1BDF81C50FEF7E4
:106DB000EFF9854205D04FF6FF73BDF81C209A42CB
:106DC000E4D19DF81700694600F0C1F818B91B20FE
:106DD0006946FEF7B9F802A91A20FEF7B5F81320A4
:106DE0009DF81210FEF7A2F89DF815300A2013B98D
:106DF0009DF81A1001E04FF6FF71FEF797F80E208C
:106E00009DF81A10FEF792F8204611B030BD01200F
:106E1000FEF72AB90020FEF727B930B5002853D075
:106E2000037A022B2FD1C479437A057914B99BB91F
:106E3000012D0DE01BB9002D40D1012014E0032CE1
:106E40000CD1032B03D1002D3CD1012017E0022BE4
:106E500014BF0020012006E0204604E0022CF6D1F9
:106E6000181C18BF012005BB0CB1022C05D1023B38
:106E7000012B8CBF002301231BE0032C15D19C1E8A
:106E80006342634115E00378022B10D003792BB9DC
:106E9000437A13F0030318BF012300E00023C079F5
:106EA00010F0030018BF012003E0002301E00020E0
:106EB000034601B10B603AB1106030BD032CCDD157
:106EC0001846D0E70020CEE730BD37B504460D4662
:106ED000084606220021FFF789FB637DD9075CBFC6
:106EE00001232B70237E012B0DD8E37D9A0708D058
:106EF000637E9B0705D0E28BA38B9A4201D10123CD
:106F000000E00023237504F11000694601AAFFF791
:106F100084FF009B0BB10223EB70019B0BB102239A
:106F20006B70E37D03F00303022B03D0032B0CBF34
:106F300008230023AB70637E03F00303022B03D00E
:106F4000032B0CBF082300232B7103B030BD022894
:106F50000CBF022308230B448B4205D013F8012DEC
:106F6000FF2AF9D0002070470120704707B5694615
:106F7000FFF7ABFF9DF800009DF801300230184488
:106F80009DF802309DF8032018449DF80430104409
:106F900003449DF80500184403B05DF804FB8378B2
:106FA000427803F001031B0102F0010243EAC2022E
:106FB000037830B503F0070342EA0304C37803F013
:106FC000010344EA4312037903F0010342EA831305
:106FD0000B704479457A827904F00104C37902F098
:106FE000010244EA851503F0030345EA420444EA3A
:106FF0008302037A03F0030342EA03134B7030BDAC
:1070000073B504460D466946FFF75FFF04F11000B3
:107010002946FFF7C4FF9DF80030012B02BFA37E75
:107020000322AB709DF8013018BF0222022B08D159
:10703000A18B531CA954A18BDBB20232090AD2B234
:10704000E9549DF8026031469319DBB2581AC0B278
:1070500019B10139635C2B54F6E79DF80320022A2D
:1070600008D1E18B5A1CE954E18BD2B20233090AF0
:10707000DBB2A9549DF8046032469819C0B2811A57
:10708000C9B222B1013AA018007A6854F5E702B0FB
:1070900070BD0278437802F007000870C2F3C000A8
:1070A0004870C2F300108870C2F34010C2F380121F
:1070B0000A7103F001024A71C3F340028A71C3F3FB
:1070C0008102CA71C3F301129B09C8700A724B7224
:1070D000704710B5044630B1084611461A4623469B
:1070E000BDE81040184710BD2DE9F0410E46174687
:1070F000044600285BD0006BFFF7AFFB054668B184
:107100000A216868FFF723FE80460A20FDF716FF74
:10711000804505D02846FFF7DDFBEFE7BDE8F081AD
:10712000AB68002B43D0032E3AD8DFE806F00219F3
:107130000B4094F8282000203A4484F8290084F871
:1071400028202EE0002284F8292094F828203A44B0
:10715000D2B284F828201B7A934219D8022020E06A
:1071600094F829203A44D2B2052A83BF002284F839
:10717000292094F8282084F8292084BF013284F83B
:10718000282094F828201B7A9A4201D3012008E095
:107190002046FEF7CBF86868BDE8F041FFF7C3BDB5
:1071A000304629462246BDE8F041FEF79BB9BDE8CE
:1071B000F0811020704770B5054600200C46FEF7A0
:1071C000E9FA0328024606D028462146BDE8704069
:1071D0000123FFF77EBF70BD704700002E742000B2
:1071E0008D242000E92420000000000001000000A0
:1071F000010000000100000000C0004000410D40FF
:1072000000000000080000002C0000000000000149
:10721000FFFFFFFF05000000020000000200000069
:107220000200000000D0004008410D4002000000B4
:10723000080000002C00000002010200FFFFFFFF19
:1072400006000000C9742000CD742000DC7420000A
:10725000E074200007000000FF00000005000000AF
:10726000ED00000003000000D50000000100000058
:10727000C500000000000000B6000000FFFFFFFF97
:10728000B0000000FDFFFFFFA1000000FBFFFFFFBB
:1072900091000000F9FFFFFF88000000F7FFFFFFEB
:1072A00072000000F5FFFFFF62000000F3FFFFFF28
:1072B00058000000F1FFFFFF42000000E8FFFFFF61
:1072C00000000000D1352000E130200045312000D1
:1072D0001367200025322000192F2000552F200091
:1072E0006D2F2000652E2000912E20007D2F200084
:1072F000E934200009332000F53120000775200013
:107300007D67200075672000796720001B752000CD
:10731000B9672000B1672000B56720004B6A2000E4
:10732000916B2000C16920001D6C20001B6C2000A7
:10733000A36C2000996C2000B3752000C96C20005C
:10734000014C2000156E20000F6E2000716D200092
:10735000B8752000C154200079532000C952200084
:10736000D5522000E1522000ED522000BD752000D2
:107370006D552000B77120008D592000ED5620007A
:107380007956200041562000B3712000495C20004E
:10739000915C2000595C2000C8752000D971200044
:1073A000095D2000FD5C2000E400002000000000DA
:1073B000A15E2000000000000000436F6E74696B46
:1073C000692D38643863323733005A6F6C657274D4
:1073D00069612052452D4D6F746520726576697321
:1073E000696F6E204220706C6174666F726D00521E
:1073F000696D6520636F6E66696775726564207775
:10740000697468206164647265737320002530328A
:10741000783A00253032780A00204E65743A200010
:10742000204D41433A2000205244433A2000427507
:1074300074746F6E004343323533383A2049443A0E
:107440002030782530346C782C207265762E3A20E6
:10745000504725642E25642C20466C6173683A20C1
:10746000256C75204B69422C205352414D3A202502
:107470006C75204B69422C204145532F5348413AAB
:107480002025752C204543432F5253413A20257522
:107490000A53797374656D20636C6F636B3A2025B2
:1074A0006C7520487A0A492F4F20636C6F636B3AE2
:1074B00020256C7520487A0A5265736574206361D3
:1074C0007573653A2025730A00504F520045787451
:1074D00065726E616C207265736574005744540068
:1074E000434C44206F7220736F667477617265201D
:1074F00072657365740063633235333820524620F9
:10750000647269766572004F6E2D4368697020540D
:10751000656D706572617475726500564444330020
:10752000303030303030303030303030303030305B
:1075300030313233343536373839414243444546A9
:10754000003031323334353637383961626364653F
:1075500066003078003058002B00286E756C6C295E
:107560000025002020202020202020202020202056
:107570002020204576656E742074696D6572004325
:1075800074696D65722070726F6365737300536503
:107590007269616C206472697665720053656E73FE
:1075A0006F7273000080C0E0F0F8FCFEFF00001A6C
:1075B00010000052696D650043534D4100436F6EEA
:1075C00074696B694D4143006E756C6C7365630043
:1075D0000A2D2D2D2D2D2D2D2D2D2D2D2D2D2D2DFE
:1075E0002D2D2D2D2D2D2D2D2D2D2D2D2D2D2D2DCB
:1075F0002D2D2D2D2D2D0052494D45206164647295
:10760000203D20093078257825780A005573696E69
:107610006720726164696F206368616E6E656C20BB
:1076200025640A002D2D2D2D2D2D2D2D2D2D2D2DAB
:107630002D2D2D2D2D2D2D2D2D2D2D2D2D2D2D2D7A
:107640002D2D2D2D2D2D2D2D2D2D2D000A4C6F6125
:1076500064656420616E20696E76616C6964205295
:10766000494D452061646472657373202830782524
:107670007825782921205265736574207468652007
:107680006465766963652E0A0A00427574746F6ECC
:1076900020707265737365642120666F7220747741
:1076A0006F207365636F6E64730D0073746174652E
:1076B0002069732069646C65206D6F646500737464
:1076C000617465206973206E65696768626F7572A1
:1076D0005F646973636F766572792062726F61644B
:1076E00063617374696E672061206D657373616790
:1076F000650D004E616E2062726F61646361737428
:107700000042726F616463617374206D65737361AD
:1077100067652073656E742E0042726F61646361E9
:107720007374206D65737361676520726563656945
:107730007665642066726F6D203078257825783AFA
:107740002027257327205B525353492025645D0A67
:10775000004C6573736F6E20353A20466C6F6F6412
:04776000696E6700E7
:107764000C732000DC712000FC722000000000007B
:1077740000000000F674200099362000000000008C
:10778400E367200000000000000000007375200083
:10779400DD41200000000000000000007F75200093
:1077A400F542200000000000000000008E7520005B
:1077B400C546200000000000000000009C75200069
:1077C400C547200000000000040008000D0E002042
:1077D4000C040020BE000800050E0020FC0600205A
:1077E4000C000800210E0020D40500203400020003
:1077F400290E00206C0500200C000800180E002043
:10780400380600200000000051772000295D200088
:0878140000000000CDAB011AD9
:08781C0064E7FF7F010000009A
:020000040027D3
:10FFD400FFFFFFF30000000000202000FFFFFFFFF1
:10FFE400FFFFFFFFFFFFFFFFFFFFFFFFFFFFFFFF1D
:0CFFF400FFFFFFFFFFFFFFFFFFFFFFFF0D
:040000050027FFD4FD
:00000001FF
